:02000002D0002C
:1040000000400D00889F0D00000006000C00050117
:0840100004014E040000000051
:1040180014990D0009480A49884208B505D0094A8B
:10402800824202D0121A05F0BCFB0748074A002159
:10403800121A05F0C1FB014808BD00BFE0DB0320F0
:10404800689E0D00D8DC0320D8DC0320F0E70320AD
:1040580070B504F05FFB074C074BE41AA408002571
:104068001E46A54204D056F8253098470135F8E792
:1040780070BD00BF5C9E0D00209E0D0000F014B9BD
:1040880008B501F07BFABDE8084004F011BB02F066
:10409800E7BA02F0E5BA02F0EBBA02F0E9BA007842
:1040A800B0FA80F0400970470123037070477047E9
:1040B800024B0A461868024901F0BCBE38DD0320ED
:1040C800C3DF032010B508460C4605F0E2FB214685
:1040D8000246034805F0FAFB024B01221A7010BD94
:1040E8003CDD0320C0DD0320037823F07F03194360
:1040F8000170704738B504460D468CB1E168A94295
:104108000ED035B129B1284605F095FB10F0FF0F08
:1041180006D0B4F90A3013B104EB0314EDE71C46DA
:10412800204638BD10B502460C4648B10521083076
:10413800FFF7DAFFE0B20021C2E90001012010BD5B
:1041480010BD10B502460C4650B1083021B103210C
:10415800FFF7CAFF146001E0FFF7C6FF012010BD9A
:1041680010BD10B54B688A6810339A4201D20020FE
:1041780010BDA2F110038B60002BF8D0416819B173
:104188005C1A24114C8100E003600021436022F88E
:10419800061C02F8081C42F8041C184610BD000052
:1041A8000B780BB9036002E0024B03600023436005
:1041B800704700BFB7400D0030B544680A444368F3
:1041C8000568AB4207D2914205D05D1C456011F8E5
:1041D800015B1D70F3E700221A704068001B30BDB8
:1041E80037B5174C17490023102203F0D7FA224697
:1041F800002302F8033F23706370A370A31C01928D
:1042080000932246631C10490E4802F041FA5820D8
:10421800FFF73DFF054638B10C4B009340F25B7247
:104228000F23214601F0CEFB094B0A491D602846A1
:1042380001F080FD084B012200201A7003B030BD48
:104248007CDD0320C9E2032028990D0015590D00D3
:1042580038DD032080DD0320C8E0032010B5064CBC
:1042680000232146102203F099FA402221460348F0
:1042780005F02CFB002010BDC9E2032080DD0320DF
:1042880008B510220023024903F088FA002008BD6F
:10429800C3DF032008B510220023024903F07EFA89
:1042A800002008BDC3DE032010B586B000242246D6
:1042B8000194009401232D492D4802F071F92D4BEA
:1042C8002B491B788DF8003022463C2302A802F0C7
:1042D80067FB039C7CB16368013B63605BB923683F
:1042E80020469B689847A368013BA3601BB92368D5
:1042F8002046DB689847204902A803F02BFA02A859
:10430800FFF7ACFF02A803F0DEF91C4902A803F08E
:1043180021FA02A8FFF764FF02A803F0D4F90021EC
:10432800132004F035FA0021112004F031FA00219D
:104338000F2004F02DFA0121022004F029FA104977
:1043480002A803F007FA02A8FFF79AFF02A803F0F1
:10435800BAF90C4902A803F0FDF902A8FFF79AFF81
:1043680002A803F0B0F906B010BD00BFCD400D00A3
:1043780034990D00C1DD032049990D0058990D00AD
:10438800DB990D0065990D0010B50A490A480B4CD8
:1043980005F05BFA0A49084805F03EFA206801F082
:1043A800E5FB28B10449206801F0B7FE002010BDE4
:1043B800012010BD73990D00C2DD032038DD0320F4
:1043C8003CDD032008B500F120030246036043608A
:1043D80013B100F5907100E0194691600BB102F538
:1043E800907302F11800D3600021FFF77DFE10469C
:1043F80008BD2DE9F0410E4617460446C8B100F144
:104408000808C1B1084605F044FA7D68B968421C3D
:10441800AB188B420FD87B606DB13146284605F04A
:10442800C0F940460421FFF75FFE25600120BDE882
:10443800F081BDE8F08140460021FFF755FE0020DD
:10444800BDE8F08138B50246A0B1002900F10800A6
:104458000C464FEAE17503DB0621FFF745FE05E050
:104468000721FFF741FE644265EB4505C2E90045B7
:10447800012038BD38BD70B51646027A12F07F02A9
:1044880004460D4605D120210830FFF72DFE226095
:104498006260237A03F0200303F0FF0083B129460A
:1044A8002068FFF727FE00B170BD31462046FFF7B0
:1044B80058FE28B1037AC56003F07F03037270BD0C
:1044C80070BD40B1037A03F07F03033B012B01D891
:1044D8000068704700207047837B43B943685A1CC3
:1044E80042601B7823EAE373437301238373407BA1
:1044F800704770B5044600252046FFF7EDFF0A28EF
:1045080003D809281DD2B0B12FE0202819D02F28B0
:1045180002D00D2829D114E0A5732046FFF7DCFF4F
:104528002A2802D02F2816D01CE0A5730026204682
:10453800FFF7D2FF10B94FF0010070BD2F2802D14C
:104548000EB1A573D8E7A0F12A035E425E41A573B8
:10455800EDE70A28D0D0A5732046FFF7BDFF002855
:10456800F7D1E8E74FF0020070BD4FF0000070BDD2
:1045780008B5027A02F0200202F0FF031AB10068BF
:10458800FFF7B8FD08BD184608BD00002DE9F04149
:1045980004460F468668FFF79FFF00258046A573EF
:1045A8002046FFF799FF80454FF00003A57326D0FA
:1045B80018B94FF00100BDE8F0815C281AD12046F7
:1045C800FFF78AFF0028F4D0752801D0124B06E0C7
:1045D8004FF00400BDE8F081904204D002331A780D
:1045E800002AF9D105E0587818B94FF00200BDE863
:1045F800F081A573A3685A1CA2601870D0E7A2685E
:10460800511CA16013703E601EB94FF00300BDE855
:10461800F0811846BDE8F08185990D00A0F15F038F
:104628001B2B13D9A0F14103192B0FD9A0F12B0390
:10463800DBB20E2B04D9A0F12E0250425041704734
:1046480047F6E57222FA03F3DB07F4D50120704739
:104658002DE9F04104460D46FFF73EFF27282BD0F1
:10466800222829D02046A768FFF736FF064600B360
:10467800FFF7D4FFD0B14FF00008A36884F80E808C
:104688005A1CA26020461E70FFF726FF0646FFF759
:10469800C5FF0028F1D1A3685A1CA260002F18702A
:1046A8002F600CBF03200020BDE8F0810220BDE888
:1046B800F0810120BDE8F08129462046FFF766FF1A
:1046C800BDE8F08138B5044608460D4605F0E1F826
:1046D800294602462068FFF76FFD6368184460604A
:1046E80038BD00000000000070B51B4D1B4C2B6846
:1046F80013F0010F06461AD12846FFF7D0FCB0B1D7
:104708000DA3D3E90023C4E90A230DA3D3E90023A9
:10471800C4E90C230CA3D3E90023C4E90E230CA39A
:10472800D3E900232846C4E91023FFF7BDFC04EBB6
:10473800C60494ED000B70BD176E05B5B5B8934669
:10474800F5F93FE9034F384D321D30F94877825A61
:104758003CBF737FDD4F157530DD032028DC032057
:1047680070B5334D334C2B6813F0010F064634D126
:104778002846FFF794FC00282FD01BA3D3E9002379
:10478800C4E900231AA3D3E90023C4E902231AA326
:10479800D3E90023C4E9042319A3D3E90023C4E916
:1047A800062319A3D3E90023C4E9082318A3D3E9EE
:1047B8000023C4E90A2318A3D3E90023C4E90C237E
:1047C80017A3D3E90023C4E90E2317A3D3E90023D1
:1047D8002846C4E91023FFF767FC04EBC60494EDF0
:1047E800000B70BDAFF300809A9999999999B93FD8
:1047F8007B14AE47E17A843F2D431CEBE2361A3F27
:104808003A8C30E28E79453EBC89D897B2D29C3C2E
:1048180033A7A8D523F649393DA7F444FD0FA5329F
:104828009D978CCF08BA5B25436FAC642806C80AED
:10483800E0DC0320E8DC03202DE9F84F0B782B2B74
:10484800044604D02D2B03D10131012501E00131AB
:1048580000250B78A3F13002092A02D92E2B40F04B
:10486800AB80DFF8F0B18846002000214FF0993A7C
:104878004FF00A0CC6461EF8013BA3F13002D2B233
:10488800092A14D88B4508BF824511D30CFB01F3C4
:10489800A0FB0C0119440023D2B2DF43D6438F4258
:1048A80008BF864204D380185941F046E2E723B195
:1048B80000234FF0FF36644F0FE0C4E9000104F015
:1048C800D7FA002DC4E902010CBF06230723B2E082
:1048D80000230A2204F0BCFD4B468F4208BF8642E3
:1048E80003F10109F4D3C8EB030303EB08064246BE
:1048F80018F8017BA7F1300EBEF1090F36B2F4D9D2
:104908002E2F1DD1C6460FF23819D9E900894FF06C
:104918000A0C72460EF1010E1778303FFFB2092FCC
:104928000ED8894508BF8045F3D3A0FB0C230CFBA8
:104938000133D01906F1FF3643F1000136B2E8E73A
:10494800137803F0DF03452B33D153782D2B03D194
:10495800971C4FF0010E05E02B2B14BF571C971C1A
:104968004FF0000E00234FF00A083A4617F801CB23
:10497800ACF1300C5FFA8CF9B9F1090F14D808FBC7
:1049880003C3F218B2F59A7FEFDD0022BEF1000FE3
:1049980005D015B14FF000434AE0002348E00DB9B7
:1049A8002A4B45E02A4B43E0BEF1000F02D05B42A0
:1049B80000E0002317784FB100220023C4E9002348
:1049C80000230022C4E90223002334E01E4404F03B
:1049D8004FFA002E8046894611DDF2070AD5F8B253
:1049E800FFF782FE4046494653EC102B04F076FA56
:1049F80080468946761007F10107EED111E076422C
:104A08007EB1F3070AD5F8B2FFF7AAFE4046494639
:104A180053EC102B04F062FA804689467610013771
:104A2800EEE71DB1424609F1004301E042464B461C
:104A3800C4E90223082323742046BDE8F88F00BF89
:104A48009899999999990100FFFF0F000000F07F4C
:104A58000000F0FF999999192DE9F04397B0804625
:104A68000D46FFF739FD00240746A1463846E6B251
:104A7800FFF7D4FD58B13F2C09D006AB88F80E904B
:104A8800E7544046FFF728FD01340746EEE716AB2A
:104A98003344002403F8404C9DF81830742B09D196
:104AA800052105F10800FFF71FFB01220023C5E9D6
:104AB800002310E0662B0CD105F108000521FFF753
:104AC80013FB00220023C5E90023701F18BF012033
:104AD80024E06E2B01D1301FF8E706A96846FFF7DE
:104AE800ABFE9DF810100729DDE9006703D00829FF
:104AF80008D0062910D105F10800FFF7F5FAC5E935
:104B0800006707E0DDE9026705F10800FFF7ECFA46
:104B1800C5E90067204601E04FF0020017B0BDE884
:104B2800F08370B588B00C460646FFF7E2FC01A991
:104B38008DF8040004A8FFF733FB049B002B3ED13B
:104B4800059D15F001053AD13046FFF7C5FC272829
:104B580010D103A93046FFF719FD02A98DF8080006
:104B680006A8FFF71DFB069B63BB079810F0010220
:104B780028D12AE007D82228EBD021463046FFF773
:104B88006BFFC0B229E05B280BD104F1080040217B
:104B9800FFF7AAFA256065602146304600F01FF845
:104BA800EFE77B28E9D104F108002021FFF79CFA00
:104BB800256065602146304600F077F8E1E79DF80A
:104BC80004000AE09DF8080007E004F10800042149
:104BD800039DFFF789FA2560104608B070BD70B5CF
:104BE800037B88B004460E4613B94FF005005AE01F
:104BF800FFF772FC5B2810D10023A3732046FFF750
:104C080078FC01A98DF8040002A8FFF7C9FA029BF5
:104C1800BBB9039BDA0714D416E04FF0020042E058
:104C2800237B013B23732046FFF77BFF237B8DF813
:104C380004000133237301A904A8FFF7B1FA049B08
:104C480053B19DF804002EE02046FFF745FC5D288F
:104C580020D10020A07326E0059BDB07F1D4204675
:104C6800FFF747FC01A98DF8040006A8FFF798FA9A
:104C7800069B002BE5D1079B13F00105E1D12046E7
:104C8800FFF72AFC5D28E4D02046FFF725FC2C28F6
:104C9800C3D1A57321683046FFF763FA014600289F
:104CA800BED14FF0030008B070BDF0B5037B8FB0E4
:104CB80004460F4613B94FF0050098E0FFF70CFCC7
:104CC8007B287BD10023A3732046FFF712FC69469B
:104CD8008DF8000002A8FFF763FA029B002B4DD164
:104CE800039810F0010549D12046FFF7F5FB7D2810
:104CF80017D1A57328467AE02046FFF7EDFB2C284C
:104D08005CD10023A3732046FFF7F3FB69468DF8B7
:104D180000000CA8FFF744FA0C9B7BBB0D9BDB073C
:104D28002CD421683846FFF71CFA054610B94FF015
:104D380003005CE001A92046FFF78AFC69468DF86C
:104D4800000004A8FFF72CFA049BBBB9059BD80701
:104D580014D42B7A63F07F032B72019BEB602046FF
:104D6800FFF7C7FB69468DF8000006A8FFF718FA99
:104D7800069B1BB9079B13F0010602D09DF80000A3
:104D880035E02046FFF7A8FB3A2817D1237BA67306
:104D9800013B237329462046FFF7C3FE237B8DF88A
:104DA800000001332373694608A8FFF7F9F9089B47
:104DB800002BE3D1099BD90703D5DFE74FF00200A9
:104DC80015E02046FFF795FB69468DF800000AA814
:104DD800FFF7E6F90A9B002BD0D10B9BDA07CDD45D
:104DE8002046FFF779FB7D2886D10020A0730FB0FD
:104DF800F0BD10B503685A681C68A2423FBF541C36
:104E08005C6011705B683CBF00221A70426834BF56
:104E1800012300231344436010BD000070B505460C
:104E28000C4619B91149FFF74DFC70BD2221FFF757
:104E3800E0FF013C14F8011F71B10D4B13F8026C2F
:104E48007EB1023313F8032C8A42F7D15C2128463D
:104E5800FFF7CFFF314604E022212846FFF7C9FFBC
:104E680070BD2846FFF7C5FFE4E700BF90990D0025
:104E780083990D0010B5521A04460068FFF79CF993
:104E880063681844606010BD2DE9F04186B00DF1EB
:104E98001604054616461F46A046304639460A22DD
:104EA800002304F0D5FA303204F8012D00233046EF
:104EB80039460A2204F0CCFA06460F4656EA07039A
:104EC800EBD1424621462846FFF7D4FF06B0BDE89D
:104ED800F0810000000000002DE9F84F2DED068B51
:104EE800064653A3D3E90023D0E9000104F07CFA75
:104EF80010B308244FF4807700252046D6E90089AE
:104F0800FFF7F2FB404653EC102B494604F06CFACD
:104F180060B12046FFF724FCD6E9000153EC102BC2
:104F280003F0DCFFC6E900013D442DB214F1FF3463
:104F38004FEA6707E1D203E04FF48077082405467B
:104F4800D6E90089002200234046494604F056FA73
:104F580000285BD038A3D3E900234046494604F033
:104F680039FA002852D09FED2C8B9FED2D9B9FED99
:104F78002EAB631C4AD0DFF8F0B0DFF8F0A0DBF806
:104F8800003013F0010FD6E9008925D15846FFF704
:104F980086F808B32AA3D3E90023CAE908232AA379
:104FA800D3E90023CAE90A2329A3D3E90023CAE9DC
:104FB8000C2329A3D3E90023CAE90E2328A3D3E9A4
:104FC800002358468AED028B8AED049B8AED06ABD6
:104FD800CAE91023FFF768F80AEBC40ADAE90023E4
:104FE8004046494604F0ECF960B12046FFF77CFBE7
:104FF800D6E9000153EC102B03F070FFC6E900015D
:10500800ED1B2DB2013C7F1064B2B2E7BDEC068BFC
:105018002846BDE8F88F00BF9A9999999999B93FA0
:10502800FCA9F1D24D62503F48AFBC9AF2D77A3E04
:1050380000000000D0126341F168E388B5F8E43E4F
:105048001656E79EAF03D23C80688965D639803909
:105058000DD13196FC53DA32C2DEB7814554912521
:10506800148BD77DB207FE0ADCDC0320E0DB0320CB
:105078002DE9F04F55EC104B89B0074610EE102A79
:105088002B4610EE100A294604F090F920B973490E
:105098003846FFF717FBDEE00022002320462946AA
:1050A80004F084F968B922462B462046294603F0C5
:1050B80063FD02460B462046294604F077F900288E
:1050C800E5D1002200232046294604F079F930B1C1
:1050D8002D213846FFF78DFE05F100431D4608A82F
:1050E80060E90845FFF7F8FEDDE90089044649460E
:1050F800404604F08DF9DFF86CA106460246092304
:105108000A215DB2092A03F1FF33DBB204D9BAFBE5
:10511800F1FAB2FBF1F2F4E7304603F069FE024619
:105128000B464046494603F025FD804650468946D1
:1051380003F05EFE02460B464046494603F0CEFEAB
:105148008046894604F064F9834603F051FE02461E
:105158000B464046494603F00DFD02460B4603F058
:105168000BFD04F055F900EB0B08C2450DD80136CC
:105178003CB1092E07D9013424B24FF000080126AA
:1051880003E0A04601E04FF000080A22B8FBF2F362
:1051980002FB138129B9002D03DD013D98466DB24C
:1051A800F4E70DF11E010A22B6FBF2F302FB1366C7
:1051B800303601F8016D1E46002BF5D10DF11E02A7
:1051C8003846FFF757FED5B1E9B202ABC1F110007E
:1051D800184406AB1A460A26834209D0B8FBF6F5EE
:1051E80006FB158808F1300803F8018DA846F3E797
:1051F800511A2E2301F8013D3846FFF73BFE002CDB
:1052080012DA17493846FFF75DFA64420DF11E01BC
:105218000A2294FBF2F302FB1344303401F8014DE7
:105228001C46002BF5D111E015D065213846FFF753
:10523800E0FD0DF11E010A2294FBF2F302FB134478
:10524800303401F8014D1CB2002CF5D10DF11E02CD
:105258003846FFF70FFE09B0BDE8F08F90990D00B2
:1052680095990D0000CA9A3BF8B5037A03F07F03BD
:10527800052B05460C466CD008D8002B70D0022BA5
:1052880058D901682046FFF7C9FDF8BD082B17D08B
:105298000CD8062B57D0072B62D1D0E900672D21F7
:1052A8002046FFF7A6FD32463B464EE0202B1FD096
:1052B800402B55D15B212046FFF79BFD2D6813E05D
:1052C80090ED000B0846FFF7D3FEF8BD21462846AF
:1052D800FFF7CAFFB5F90A3043B115EB031505D03E
:1052E8002C212046FFF785FD002DEFD15D211DE023
:1052F8007B212046FFF77DFD2D68B5B1E968204682
:10530800FFF78CFD3A212046FFF773FD214628461A
:10531800FFF7AAFFB5F90A303BB115EB031504D026
:105328002C212046FFF765FDE7E77D212046FFF7A2
:1053380060FDF8BD90E806002068FEF73DFF636851
:1053480018446060F8BDD0E900232046FFF79CFDB3
:10535800F8BDD0E90023134314BF0449044900E011
:1053680004492046FFF7AEF9F8BD00BF98990D0033
:105378009D990D0090990D001FB501F2FF13009340
:1053880010304FF0000301910B70CDF808D0039353
:1053980003D002A9FFF768FF03E0044902A8FFF75A
:1053A80091F9039805B05DF804FB00BF90990D00D2
:1053B80030B51320C9B003F015FA05466846FFF763
:1053C80001F86A461749184C04A8FFF754F86A46CA
:1053D8001649FFF70EF86A46154904A8FFF74BF877
:1053E8002146FEF7AEFE6A46124904A8FFF743F8C5
:1053F8001149FEF7A6FE6A46214604A80F4CFFF79E
:105408003AF82946FFF71EF821466846FFF7B4FF29
:105418000B4B0C491868224600F00CFD002049B0DF
:1054280030BD00BF44990D00A7990D003CDD032055
:10543800A3990D00B3990D00BA990D00C9E2032094
:1054480038DD0320C3DF032030B50F20C9B003F0D7
:10545800C9F905466846FEF7B5FF6A461749184C6C
:1054680004A8FFF708F86A461649FEF7C2FF6A461D
:10547800154904A8FEF7FFFF2146FEF762FE6A46BB
:10548800124904A8FEF7F7FF1149FEF75AFE6A46CB
:10549800214604A80F4CFEF7EEFF2946FEF7D2FF7F
:1054A80021466846FFF768FF0B4B0C4918682246EF
:1054B80000F0C0FC002049B030BD00BF44990D0089
:1054C800BE990D003CDD0320A3990D00B3990D0092
:1054D800BA990D00C9E2032038DD0320C3DF032099
:1054E80030B51120C9B003F07DF905466846FEF7CE
:1054F80069FF6A461849194C04A8FEF7BCFF6A46BA
:105508001749FEF776FF6A46164904A8FEF7B3FF67
:105518002146FEF716FE6A46134904A8FEF7ABFFBC
:105528001249FEF70EFE21466A4604A8FEF7A3FFBD
:105538000F4C002DD4BF00210121FEF7F3FD2146B9
:105548006846FFF719FF0B4B0B491868224600F015
:1055580071FC002049B030BD44990D00D0990D0070
:105568003CDD0320A3990D00B3990D00BA990D00F5
:10557800C9E2032038DD0320C3DF032010B51C4C2B
:10558800237803B31B4C00F02DFE2368C01A41F2A8
:10559800873398422BD900F025FE2060164C2068EE
:1055A80000F0E4FA154B60B101221A70FFF700FF12
:1055B800FFF74AFFFFF794FF2068BDE8104000F0AE
:1055C80080BC187010BD0E4B1B7883B10D4B1B7837
:1055D8006BB1094B186800F0C9FA40B1FEF7D4FE68
:1055E800094A0A490A4801F025FE0123237010BD23
:1055F800C2DE0320C4E0032038DD032034DD0320AD
:10560800C0DD0320C8E00320B9400D00D7990D0084
:10561800E0E403202DE9F041ADF5567D4EAC56ABE4
:105628004E934F930021D6AB54A850935193FEF755
:105638005BFD23686360E368A360002154A8FEF75C
:1056480053FDA24B0793089332238DF8243052A9B7
:10565800002306A88DF826300694FFF762FA02A9FF
:105668008DF8080004A8FEF79BFD049B8BB9059BE9
:10567800DA070ED49DF825305BB1237E13F0600F56
:1056880007D103F07F03033B012B84BF02238DF86E
:1056980008309DF808308DF8043006A8FEF792FE11
:1056A80001A902A8FEF77CFD029B894E002B40F061
:1056B800DE80039BDB0700F1DA80864952A8FEF7FB
:1056C80057FFFEF7FEFE8449074652A8FEF750FF33
:1056D800FEF7F7FE8149054652A8FEF749FFFEF797
:1056E800F0FE7F49804604F0A6F800285BD17D498A
:1056F800284604F0A0F800283DD17A4952A8FEF7C0
:1057080037FF58B3037A03F07F03033B052B25D8F3
:10571800DFE803F017170303030A90E80C001343AC
:1057280014BF0124002413E000220023D0E9000163
:105738004FF0010403F03AFE08B14FF00004E4B260
:1057480006E00168684804F076F8B0FA80F4640965
:1057580024B10121022003F02CF804E000210220EA
:1057680003F027F80024294606AA0AA8FEF783FEB4
:105778002146FEF7D7FC06AA5C490AA8FEF77BFE7D
:1057880006AA5B49FEF735FE06AA53490AA8FEF7A2
:1057980072FE2946FEF7D5FC504906AA0AA8FEF76C
:1057A8006AFE414658E05349284604F044F870B967
:1057B800132003F017F806AA474904460AA8FEF77B
:1057C8005AFE4C49FEF7BDFC06AA4A4912E04A496E
:1057D800284604F030F8A0B90F2003F003F806AA11
:1057E8003D4904460AA8FEF746FE4349FEF7A9FCD0
:1057F800414906AA0AA8FEF73EFE2146FEF722FE08
:105808001BE03E49284604F016F8B0B9112002F012
:10581800E9FF06AA044630490AA8FEF72CFE3749D4
:10582800FEF78FFC354906AA0AA8FEF724FE002CCD
:10583800D4BF00210121FEF775FC06AA2B490AA84E
:10584800FEF719FE06AA2A49FEF7D3FD234906AA40
:105858000AA8FEF710FE2A49FEF773FC06AA1D499E
:105868000AA8FEF708FE3946FEF76BFC20E006AAF8
:105878001E490AA8FEF7FFFD06AA1D49FEF7B9FD55
:1058880006AA15490AA8FEF7F6FD1A49FEF759FCBB
:1058980006AA12490AA8FEF7EEFD1949FEF751FCBF
:1058A800144906AA0AA8FEF7E6FD6321FEF7CAFD19
:1058B800144906A8FFF760FD124A1349306800F042
:1058C800B9FA00200DF5567DBDE8F081C9E0032046
:1058D80038DD0320E9990D00A3990D00B3990D0057
:1058E800EE990D00E5990D0098990D0044990D0069
:1058F8003CDD0320A7990D00BE990D00D0990D003D
:10590800BA990D00C9E20320C3DE0320054B10B588
:105918001846144603F045FF00220255BDE8104022
:10592800FFF778BEC9E00320024B01221A7000F08D
:1059380061BC00BFC1DD032038B584690A4B036030
:1059480005467CB16368013B63605BB92368204608
:105958009B689847A368013BA3601BB9236820464E
:10596800DB689847284638BD349C0D0010B50446BE
:10597800FFF7E2FF2046FEF78EFB204610BD38B544
:105988001D46059B036300230446436302B18264FA
:1059980019B104F1380001F0F0FE049B2365069B61
:1059A800E069A4F84C50FF2BB8BFFF23A4F854308B
:1059B80008B1FEF772FBB4F85400FEF76AFBE06129
:1059C80038BD00002DE9FF410446002517469846DA
:1059D8000E4602F0B1F9E5610A4904F1380001F018
:1059E800B9FEFF2302930A9B01932046A564CDF8D4
:1059F80000803B4632462946FFF7C1FF204604B0E7
:105A0800BDE8F0818F990D0010B50446204602F0DC
:105A1800F7F80028FAD0204602F013F8C0B210BDFB
:105A28002DE9F0470546C4698846FFF7EDFF207069
:105A3800EB6993F800A04FF001090AF0F00A00277B
:105A48004E462846FFF7E0FFEB69985500F07F03C4
:105A580013FB09F31F44741C0306A4B2BFB24FEA38
:105A6800C91901D52646ECE7631EBAF1300F88F84C
:105A7800003013D12846D5F81C80FFF7C5FF08F879
:105A880004002846F41CD5F81C800236FFF7BCFF3A
:105A9800B6B2A4B208F80600022300E000231B1BDC
:105AA8009EB2A3199BB29F420BD92846FFF7ACFFC1
:105AB800B5F85430A34284BFEB6918550134A4B239
:105AC800EFE7B5F85400A0422CBF20460020BDE8FF
:105AD800F087F7B507468E461E461D46002402A9E4
:105AE80005F07F032144ED0918BF43F0800301341A
:105AF80001F8043CE4B2002DF1D1C4F10403D1183B
:105B080002F803E0A54206DA2B1B01A81344285C1F
:105B180058710135F6E7721C2244384601F06FFED1
:105B2800054600F05FFB013478623444A8B2231ABA
:105B38005842584103B0F0BD0233F0B59BB20D4650
:105B48006C1A15F8016BA4B23EB1B0F854709F42BC
:105B580003D95C1CD654A3B2F2E7191B0A442112DC
:105B680002F8021C02F8014C1846F0BD38B505468B
:105B780001F05BFE002814BF0124002402D128464E
:105B880002F027F8204638BD2DE9F04387B00446D7
:105B9800894617461E46DDF83880FFF7E7FF0546B9
:105BA800002840F0BD80A16C39B90346B4F84C20F8
:105BB800A16B204601F066FE09E0684601F05CF939
:105BC8002B46B4F84C206946204601F085FF002892
:105BD80000F0A280012323849DF84C30042B15D1BA
:105BE800524B18689A88ADF804200090E2699B79B6
:105BF80000988DF80630531DC2F80500BDF8041052
:105C08009DF806209A7199800C2312E0484BD4F82D
:105C18001CC0186859681B7A6A4603C213706B4621
:105C280003CBCCF80500CCF8091013788CF80D30AC
:105C38000E23B8F1000F0AD09DF840209DF83C10C3
:105C4800520142F0060242EAC102D2B200E0022248
:105C58009DF8481009B902F0FD022FB116B942F0BB
:105C6800800201E042F0C002E169CA54226DE16994
:105C7800581C12120A549A1CE169206D8854033387
:105C8800E26949462046FFF757FFB8F1000F0BD0ED
:105C98000346E26941462046FFF74EFFE269119943
:105CA80003462046FFF748FF67B10346E2693946D5
:105CB8002046FFF741FF2EB10346E26931462046F0
:105CC800FFF73AFF431F9BB2E26910212046FFF716
:105CD80000FF00F087FA4FF47A766062A0622046EF
:105CE80001F08EFF40B900F07DFAA36AC01A236D57
:105CF80073439842F3D90FE069462046FFF790FEB8
:105D0800042809D1E369DE7836B900F06BFA012579
:105D1800A06284F82C6004E0204601F05AFF00E0FD
:105D28000025284607B0BDE8F08300BFF2990D00B2
:105D3800F9990D007FB504230593012304930023EB
:105D480003930293019300931A46FFF71DFF07B0D0
:105D58005DF804FB2DE9F14F0D9E9DF828809DF814
:105D68002C509DF8307004468B4691469A46FFF7B2
:105D7800FDFE00284CD0B4F85420E069002103F05F
:105D88001BFD0523E26959462046FFF7D5FE6B1E29
:105D9800012B12D8238CE26901339BB223841B1296
:105DA8001354411C89B2E369228C5A54023080B2E0
:105DB8001EB1238C5A1C22843380002291B283188E
:105DC8008A459BB20AD9B4F854609E4202F1010296
:105DD80004D919F80160E169CE54EFE7B8F1000F72
:105DE8000CBF302131210FB141F00801022D02D141
:105DF80041F0040103E0012D08BF41F00201053B19
:105E0800E2699BB2204601B0BDE8F04FFFF761BEE2
:105E180001B0BDE8F08F1FB5089C039400240294DC
:105E28009DF81C4001949DF818400094FFF792FFDC
:105E380004B010BD7FB5054610460E46144603F063
:105E480028FD00230293019300932246034631461E
:105E58002846FFF7E0FF04B070BD38B504460D468C
:105E6800FFF784FE90B1E36962221A70E3690222A7
:105E78005A70E3692A129A70E369DD700422E169B5
:105E8800204601F0BCFC003018BF012038BD38B5F1
:105E980004460D46FFF76AFE90B1E36972221A7054
:105EA800E36902225A70E3692A129A70E369DD7085
:105EB8000422E169204601F0A2FC003018BF01204D
:105EC80038BD2DE9F04F83B000AF0446FFF74EFE12
:105ED8008146002800F0F68000F084F9226D4FF426
:105EE8007A735343A26A821A9A42054603D8626AB1
:105EF800821A934217D294F82C302BB1204601F025
:105F080068FE4FF00009DDE0E269C0211170E26926
:105F18005370E1690222204601F071FC0123656299
:105F2800A56284F82C30204601F06AFE002800F0B3
:105F3800C980F91D2046FFF773FD0246002800F0CE
:105F4800C180E369A562187800F0F00130297DD19D
:105F5800D4F830B0BBF1000F00F0B48097F807C058
:105F680003EB0C00EA46817890F801E001EB0E2E75
:105F78001FFA8EFE0EF1080121F00701ADEB010DAD
:105F8800684600218EB2B64506D90CEB01061E44C0
:105F9800F67846540131F5E7002100F80E101E7816
:105FA80006F00606022E0CF10301CCEB02021ED10C
:105FB8007144CEEB020213F801801944053A49787E
:105FC80001EB08280CF1050171441944D847E3692D
:105FD80040221A70E3695E70E3691FFA88F84FEA95
:105FE80028229A70E369042283F8038020E0042EB3
:105FF80024D17144CEEB020213F801801944053A0A
:10600800497801EB08280CF1050171441944D84777
:10601800E36950221A70E36902225A70E3691FFA91
:1060280088F84FEA28229A70E369324683F8038099
:10603800E169204601F0E3FB656205E0033A71443B
:10604800CEEB02021944D847D5463BE0502908D187
:106058009978DB7803EB012189B22046FFF7FDFE32
:1060680030E040290CD0602908D19978DB7803EB1F
:10607800012189B22046FFF70AFF23E070290DD1DC
:10608800616BF9B1042A1DD110F0060F1AD1987866
:10609800DB7803EB002080B2884713E0902911D009
:1060A800C0290AD1D0221A70E36900225A70E16926
:1060B8000222204601F0A3FB04E0D02904BF0023FC
:1060C80084F82C3048460C37BD46BDE8F08F70B5D3
:1060D80004460E461546FFF749FDE8B1238C013307
:1060E8009BB203B901232384238CE2691B125371E9
:1060F800E369228C9A71E269314607232046FFF74B
:106108001BFDE3691D54031FE26920469BB28221EF
:10611800BDE87040FFF7DDBC70BD0022FFF7D7BFB8
:1061280000F068B808B5024B1B685B68019308BDAE
:106138004802030008B5024B1B689B68019308BD21
:106148004802030008B5024B1B68DB68019308BDD1
:106158004802030008B5024B1B681B69019308BD80
:106168004802030008B5024B1B685B69019308BD30
:106178004802030008B5024B1B681B6B019308BD5E
:106188004802030008B5024B1B685B6C019308BD0D
:106198004802030008B5024B1B68DB6C019308BD7D
:1061A8004802030008B5024B1B685B6D019308BDEC
:1061B8004802030008B5024B1B68DB6E019308BD5B
:1061C8004802030008B5024B1B685B68019308BDD1
:1061D8001802030008B5024B1B689B68019308BDB1
:1061E8001802030008B5024B1B685B69019308BDE0
:1061F8001802030008B5024B1B681B68019308BD11
:106208002C02030008B5024B1B685B68019308BDAC
:106218002C02030008B5024B1B689B68019308BD5C
:106228002C02030008B5024B1B68DB68019308BD0C
:106238002C02030008B5024B1B681B69019308BDBB
:106248002C02030008B5024B1B681B6B019308BDA9
:106258002C02030008B5024B1B681B6A019308BD9A
:106268002802030008B5024B1B685B6A019308BD4E
:106278002802030008B5024B1B689B6A019308BDFE
:106288002802030008B5024B1B68DB6A019308BDAE
:106298002802030008B5024B1B681B6B019308BD5D
:1062A8002802030008B5024B1B685B6B019308BD0D
:1062B8002802030008B5024B1B681B6C019308BD3C
:1062C8002802030008B5024B1B681B69019308BD2F
:1062D8006C02030008B5024B1B685B69019308BD9B
:1062E8006C02030008B5024B1B689B69019308BD4B
:1062F8006C02030008B5024B1B685B6D019308BD77
:106308006C02030008B5024B1B689B6D019308BD26
:106318006C02030008B5024B1B685B69019308BD5A
:106328006402030008B5024B1B689B69019308BD12
:106338006402030008B5024B1B681B6A019308BD81
:106348006402030008B5024B1B685B6A019308BD31
:106358006402030008B5024B1B689B6A019308BDE1
:106368006402030008B5024B1B689B68019308BDD3
:106378006802030008B5024B1B68DB68019308BD7F
:106388006802030008B5024B1B685B68019308BDEF
:106398003802030008B5024B1B689B69019308BDCE
:1063A8003802030008B5024B1B68DB69019308BD7E
:1063B8003802030008B5024B1B681B6A019308BD2D
:1063C8003802030008B5024B1B689B6A019308BD9D
:1063D8003802030008B5024B1B68DB6A019308BD4D
:1063E8003802030008B5024B1B681B6B019308BDFC
:1063F8003802030008B5024B1B685B6B019308BDAC
:106408003802030008B5024B1B689B6B019308BD5B
:106418003802030008B5024B1B68DB69019308BD0D
:106428003002030008B5024B1B681B6A019308BDC4
:106438003002030008B5024B1B681B68019308BDB6
:106448003C02030008B5024B1B68DB68019308BDDA
:106458003C02030008B5024B1B681B69019308BD89
:106468003C02030008B5024B1B685B69019308BD39
:106478003C02030008B5024B1B689B69019308BDE9
:106488003C02030008B5024B1B68DB69019308BD99
:106498003C02030008B5024B1B681B6A019308BD48
:1064A8003C02030008B5024B1B689B6A019308BDB8
:1064B8003C02030008B5024B1B681B68019308BD2A
:1064C8004C02030008B5024B1B681B69019308BD09
:1064D8004C02030008B5024B1B685B69019308BDB9
:1064E8004C02030008B5024B1B689B69019308BD69
:1064F8004C02030008B5024B1B68DB69019308BD19
:106508004C02030008B5024B1B681B6A019308BDC7
:106518004C02030008B5024B1B681B6D019308BDB4
:106528006002030008B5024B1B685B68019308BD55
:106538002002030008B5024B1B68DB6C019308BD01
:106548002002030008B5024B1B685B6D019308BD70
:106558002002030008B5034B1B68D3F88830019369
:1065680008BD00002002030008B5034B1B68D3F8E0
:106578009430019308BD00002002030008B5034BC6
:106588001B68D3F8A430019308BD00002002030063
:1065980008B5024B1B681B6A019308BD440203003F
:1065A80008B5024B1B685B6A019308BD44020300EF
:1065B80008B5024B1B68DB6B019308BD440203005E
:1065C80008B5024B1B685B68019308BD40020300D5
:1065D80008B5024B1B689B68019308BD4002030085
:1065E80008B5024B1B68DB68019308BD4002030035
:1065F80008B5024B1B681B69019308BD40020300E4
:1066080008B5024B1B685B69019308BD4002030093
:1066180008B5024B1B689B69019308BD4002030043
:1066280008B5024B1B68DB69019308BD40020300F3
:1066380008B5024B1B681B6A019308BD40020300A2
:1066480008B5024B1B681B6B019308BD4002030091
:1066580008B5024B1B685B6B019308BD4002030041
:1066680008B5024B1B681B68019308BD1C02030098
:1066780008B5024B1B685B68019308BD1C02030048
:1066880008B5024B1B689B68019308BD1C020300F8
:1066980008B5024B1B685B69019308BD1C02030027
:1066A80008B5024B1B68DB6A019308BD1C02030096
:1066B80008B5024B1B681B6B019308BD1C02030045
:1066C80008B5024B1B68DB6B019308BD1C02030075
:1066D80010B5836804460BB902F0FDF8C368984703
:1066E800A3681BB103222146204698472046BDE8EF
:1066F8001040FDF7D0BC70470020704710B5044625
:10670800FDF7C9FC204610BD08B508B1FFF7F6FF34
:1067180008BD10B58368044613B1032201469847A3
:10672800204610BD38B5C468D4B12378022B02D1F5
:10673800E068FFF79DFF65682DB12846FFF7E9FF80
:106748002846FDF7A8FCA5682DB12846FFF7E1FF0C
:106758002846FDF7A0FC2046BDE83840FDF79BBC65
:1067680038BD38B5046805467CB16368013B636091
:106778005BB9236820469B689847A368013BA360E0
:106788001BB923682046DB689847284638BD13B5EF
:10679800044691E8050000234B600B6020606260AE
:1067A80001A801930093FFF7DCFF204602B010BD5B
:1067B8000B68036013B15A6801325A607047F7B525
:1067C8000C4602AD54F8043B45F8083D06460F4612
:1067D80001A82146FFF7ECFF29463046FFF7D7FF0F
:1067E80001A8FFF7BEFF2046FFF7BBFF3846FDF7BD
:1067F80052FC304603B0F0BD13B50B46044603C83F
:106808008DE8030093E8030084E803009DE8030093
:1068180083E8030002B010BD826810B50AB902F01F
:106828005AF8C368BDE81040184708B5006800F179
:106838001001FFF7F1FF08BD826810B50AB902F030
:106848004AF8C368BDE81040184708B5006800F169
:106858001001FFF7F1FF08BD38B5002383608B688E
:1068680004460D462BB102229847EB68E360AB68FB
:10687800A360204638BD00002DE9F0414FF69C7317
:1068880086B00468B1F904208B8000230F688DF866
:1068980000300B604FF00200D4E84F1F994203D13B
:1068A800C4E8450F002DF7D102D08DF800106AE03A
:1068B80014F10C051EBFE76022821F460123BFF3B7
:1068C8005F8F0020637004F10803BFF35F8F53E804
:1068D800006F43E80002002AF9D1BFF35F8F002E52
:1068E80051D0FFF727FE20B129463046FFF794FF25
:1068F80043E031466846FFF7AFFFE068B4F910504F
:1069080008B102F0ABFF04901020ADF81450FDF769
:10691800BEFB054630B34FF00008C0F808801820C9
:10692800FDF7B5FB0446C0B1C0F8088001466846CB
:10693800FFF762FF029BA268A360039B0292E268D2
:10694800E360BDF81430A3824FF69C73ADF81430A1
:10695800049B03922361CDF810800E4BEB600E4B25
:106968002C60AB600498FFF783FE6846FFF7D1FE02
:10697800002229460948FFF7E5FD3046FFF7C9FE22
:106988003046FDF788FB3846FFF772FE06B0BDE8D3
:10699800F08100BF33680D00916A0D00D9660D00C3
:1069A8002DE9F04F8BB007AD4FF0000B0646994626
:1069B80014200C230F4690469DF850A0C5F804B04B
:1069C800C5F808B00793FDF762FB044638B180F8B4
:1069D80000B080F801B0C0F804B0C0F808B00023D7
:1069E800102003940493FDF752FB28B10123436060
:1069F8008360234B0360C4600490224B08930820F3
:106A0800FDF745FB044628B1039B40F8043B04A965
:106A1800FFF7CEFE00955FFA8AF34A4641463846AC
:106A28000994FFF7B5FDB8B9039B5B7803F0FF0243
:106A380093B94FF69C7305A903A80592ADF81830D1
:106A4800FFF71AFF0598FFF713FE05A80999FFF746
:106A5800B6FE06A8FFF785FE039B059304A906A8C2
:106A6800FFF7A6FE05A93046FFF791FE06A8FFF737
:106A780078FE04A8FFF775FE30460BB0BDE8F08F2E
:106A88000C9A0D00F96B0D00022AF8B5044606D0E1
:106A9800032A17D0012A20D10B6803601DE01820B3
:106AA8000E68FDF7F4FA054650B13146FFF7D4FEFB
:106AB8003069B6F9147008B102F0D0FE2861AF82CF
:106AC80025600AE0046844B12069FFF7D1FD20463B
:106AD800FFF71FFE2046FDF7DEFA0020F8BD38B5A7
:106AE800002383608B6804460D462BB10222984729
:106AF800EB68E360AB68A360204638BD022A70B536
:106B0800044606D0032A11D0012A17D10B68036066
:106B180014E014200E68FDF7BAFA054620B1314694
:106B2800FFF7DDFF337C2B74256007E004682CB188
:106B38002046FFF7EEFD2046FDF7ADFA002070BDB8
:106B4800F0B5002387B00C46BFF35F8F50E8006FA5
:106B580040E80032002AF9D1BFF35F8F002E3ED003
:106B68001846FFF7E7FC074620B121463046FFF7F5
:106B780063FE2EE0314601A8FFF7B1FF23788DF8B8
:106B880014301020FDF783FA0546D0B18760142031
:106B9800FDF77DFA044678B18760014601A8FFF742
:106BA8002BFE039BA268A360049B0392E268E36048
:106BB8009DF81430049223740A4BEB600A4B2C6046
:106BC800AB6001A8FFF7A5FD002229460748FFF79B
:106BD800B9FC3046FFF79DFD3046FDF75CFA07B07B
:106BE800F0BD00BF53680D00056B0D00D9660D00A0
:106BF80030B585B004460D4668461146FFF7DFFDFF
:106C08007CB124B228460DB102F028FE029002A9F8
:106C18006846ADF80C40FFF72FFE0298FFF728FDF5
:106C28001DE000988DF808404FF00102D0E84F3F72
:106C3800A34203D1C0E8412F0029F7D102D08DF833
:106C480008300CE010F10C014FF0010318BF03737A
:106C5800BFF35F8F043000F8033CFFF771FF01A812
:106C6800FFF77FFD05B030BD002211464068FFF7F1
:106C7800DFBC002211464068FFF7EABC00224068EA
:106C8800FFF7DEBC002281F001014068FFF7C8BCB5
:106C980000231A4619464068FFF7BABC00231A4673
:106CA80019464068FFF7ACBC002211464068FFF760
:106CB8009FBC002211464068FFF78ABC00220221CF
:106CC8004068FFF78DBC00231A464068FFF778BC80
:106CD800024B03225A60024A1A607047CCE4032030
:106CE800289A0D007047F8B5064615460C468F18C9
:106CF800BC4206D0336814F8011B9B68304698479D
:106D0800F6E72846F8BD0022007CFFF7A3BA002169
:106D1800007CFFF7A7BA0021007CFFF7ABBA00217F
:106D2800007CFFF7AFBA0021007CFFF7B3BA10B5BB
:106D38000446FDF7B0F9204610BD000010B5044622
:106D48004FF47A730846A3600021044B20746160F5
:106D58002360FFF7AFFA204610BD00BF5C9A0D0014
:106D68000021007CFFF79EBA704710B50446FDF776
:106D780092F9204610BDF0B5037D062B8DB00E4666
:106D880000F104074FF0000402D000F1080518E0F4
:106D98000CAD394605F8304D2F232A460A20FFF757
:106DA800B9FA284602F075FD33680246DB682946C1
:106DB800304698470FE024B12E21304600F01EFCE3
:106DC800044415F8011D0A22304600F047FCBD4274
:106DD8000444F0D120460DB0F0BD000010B5054BBD
:106DE8000446112240F8043B002102F0E5FC20464D
:106DF80010BD00BF849A0D000346074A10B543F83A
:106E0800042B01F1100251F8044B43F8044B914252
:106E1800F9D10A781A7010BD849A0D00037D042BED
:106E280001D1406808E0062B0AD1436853B1836852
:106E380043B1C36833B10069003018BF01207047FF
:106E4800002070471846704710B59DF8084044EA7E
:106E5800032343EA024242EA0161042341600375C5
:106E680010BD37B50D788B784A78C97800912946D6
:106E7800FFF7EAFF03B030BD10B5034B03600446CB
:106E8800FFF7EFFF204610BD849A0D000068FFF75A
:106E980081B90000014B024A1A607047D4E403200C
:106EA8003E9B0D0010B501230374836804460BB1A3
:106EB800C06806E0006828B183680BB901F00BFDD3
:106EC800C3689847012363740020BDE81040FFF7AA
:106ED80071B9002211464068FFF7AABB002211468B
:106EE8004068FFF7B5BB00224068FFF7A9BB002246
:106EF80081F001014068FFF793BB00231A46194649
:106F08004068FFF785BB00231A4619464068FFF71B
:106F180077BB002211464068FFF76ABB0022114682
:106F28004068FFF755BB002202214068FFF758BBB5
:106F380000231A464068FFF743BB38B5054678B1C9
:106F4800046844B1A3681BB1032221462046984730
:106F58002046FDF7A0F82846BDE83840FDF79BB865
:106F680038BD10B103685B681847704710B50368EF
:106F78000446BBB15868FFF7DDF878B923685A7C36
:106F880012B95868FFF7E6F823685868FFF7EAF877
:106F980020680023236028B1FFF7CFFF206808B1DD
:106FA800FFF7CBFF204610BD38B50B4B03600446F6
:106FB800D0F8CC0108B1FDF770F8D4F8C4512DB160
:106FC8002846FFF7D3FF2846FDF765F8A06808B103
:106FD800FFF7C7FF204638BD709B0D002DE9F84F1D
:106FE8000B9F9DF828B00646884691469A46044667
:106FF8000025236C4B4529D1636C534526D194F861
:1070080048305B4522D14021404602F072FC41469F
:107018000246204602F045FCC0B96FB10C21384643
:1070280002F067FC024638B1582303FB0560394675
:10703800493002F036FC04E0582000FB056595F85D
:107048004900B0FA80F04009BDE8F88F0135052DF8
:1070580004F15804CDD10020BDE8F88F2DE9F04F98
:1070680085B007469DF838A00F9E0196CDF800A080
:10707800894602920393FFF7B1FF00283CD10446EA
:10708800582303FB0475D5F84080B8F1000F2ED1C2
:107098004021484602F02DFC4946834602462846D0
:1070A80002F07FFBCBF14002414605EB0B0002F0FA
:1070B80083FB029B2B64039B6B6485F849802EB18C
:1070C8000C21304602F015FC054600E035465820F4
:1070D800444338193C442A4631464930254402F095
:1070E80060FB002085F8490084F848A005E00134D9
:1070F800052CC6D1024800E0002005B0BDE8F08F9D
:10710800FCFEFFFF07B5002301930093FFF7A6FFDE
:1071180003B05DF804FB2DE9F341044608460D462B
:10712800904602F0B6FB04F5DC760746236CABB15B
:107138004021204602F0DDFB874202460BD3294658
:10714800204602F01FFB30B9009043462A462146EC
:107158005820FFF713FA5834B442E7D102B0BDE81B
:10716800F081000030B58DB004461122002101A83D
:1071780002F022FB062301AA09498DF814300A20DF
:10718800FFF7D0F807AD01A906A8FFF735FE0FCD28
:1071980004340FC42B68237000200DB030BD00BF2D
:1071A8009C9B0D0030B5044689B000F5E070FFF7F0
:1071B8006DFE236883BB4C20FCF769FF054608B1C8
:1071C80001F084F82068256008B1FFF7CAFE20683E
:1071D80020B300224FF49A6101F0A7F808A900250E
:1071E80001F8195D1148FFF76DF820689DF8072030
:1071F800036849F269011B6A984702A8FFF7EEFD88
:1072080002A8FFF7AFFF002804DB02A9206801F0FD
:10721800F6F804E0054602E0002500E0044DD4F845
:10722800C001FEF7BFFF284609B030BDA99B0D007D
:10723800FCFEFFFF2DE9F341044600F5E0700F4620
:107248009046FFF723FED4F8BC61002E39D12849B7
:10725800042001F02FFB054640B32549142001F016
:1072680029FB28B10674066046608660C6604674CD
:107278002860A8B11F4B83602B681F49DC60286811
:107288004FF440638DE8090003221C4B0430FEF7DD
:1072980049FF28B92B681B7C43B9FEF753FFF9E770
:1072A800286800232B6008B1FFF747FED4F8BC61BB
:1072B800C4F8BC512EB13046FFF758FE3046FCF7F3
:1072C800EAFE2046FFF76EFF002807DB42463946F4
:1072D800201DFFF717FF00EAE07500E00546D4F827
:1072E800C001FEF75FFF284602B0BDE8F08100BF8D
:1072F800B89D0D0019740D00AD9B0D00AD6E0D000D
:107308002DE9F041054600F5E0768AB03046FFF7F2
:10731800BDFD2C68D5F8C001FEF744FF002C63D0F2
:10732800D5F8C43163B12368D5F8C4111F6B204662
:107338004FF47A734FF49A62B847041E13DC56E090
:107348002D494FF49A6001F0C4FAD5F8C431C5F854
:10735800C40113B11846FCF7A0FED5F8C431002BC0
:10736800E1D1264844E02023254A029300920023D5
:10737800019402AA234903930120FFF7CBF8D5F81B
:10738800C4315F1C1B786BBB013C2146384602F0B8
:10739800B0FA38B3241A002C07EB000822DD3B5C56
:1073A80003BB013C0ED008F101082146404602F01B
:1073B800A0FA241A002C15DD18F8003093B9012C16
:1073C80002D00FE0DFF844803046FFF75FFD424609
:1073D8003946281DFFF79FFED5F8C001FEF7E2FEEB
:1073E800002005E0084803E06420FEF7F3FE20468D
:1073F8000AB0BDE8F08100BFB89D0D00FCFEFFFF9C
:10740800BC9B0D00B59B0D00E8FEFFFF8F990D009A
:1074180008B504462046FFF773FFFBE738B50D4C67
:107428000D4B23600025022304F5E4706360A5601A
:10743800C4F8C451C4F8C851FEF7A4FE074BC4F8F9
:10744800CC5123602046064A0649BDE8384001F081
:1074580023BA00BFD8E40320D49B0D00709B0D0015
:10746800D8DC0320B16F0D0000231A464068FFF7EF
:10747800A7B8002202214068FFF7B2B800221146DF
:107488004068FFF7A5B8002211464068FFF7B0B87A
:1074980000231A4619464068FFF7B2B800231A4677
:1074A80019464068FFF7B4B8002281F0010140682E
:1074B800FFF7B6B800224068FFF7C2B800221146AD
:1074C8004068FFF7C5B8002211464068FFF7B0B81A
:1074D8002DE9F043002495B016460D460746FFF700
:1074E8007DFC214620220CA8009402F065F9402377
:1074F8000C9321466B460CAA3046FEF73BFF044628
:10750800002844D1024601216868FFF771F802217A
:10751800804622466868FFF76BF8009E8146214640
:10752800002E34D0002932D17368022B02D00A2BE6
:1075380009D02AE0B8F1000F27D071693846043124
:10754800FFF78FFC20E0B9F1000F1ED074691122FB
:1075580001A802F031F906238DF8143001AD04F1C9
:1075680008031834186859682A4603C20833A34226
:107578001546F7D101A906A807ADFFF73DFC0FCDC9
:107588003C1D0FC42B6823700121F669C8E70098D9
:10759800FEF7E8FE384615B0BDE8F083024B034A13
:1075A8001A6000225A607047A8E60320D49B0D0099
:1075B800F8B506460D468F180024BD420CD0336836
:1075C80015F8011B9B6830469847002801DB0444E6
:1075D800F3E7002C08BF04462046F8BD70B5054601
:1075E8000C46084649B102F054F92B680246214678
:1075F8002846DB68BDE87040184770BD03689B6883
:10760800184730B58BB00B4600218DF82410012A9D
:1076180098BF0A220DF12304B3FBF2F505FB1233E0
:1076280003F0FF03092B94BF30333733DBB2214615
:1076380004F801392B46002DEED1FFF7CFFF0BB030
:1076480030BD10B42AB903685DF8044B9B68C9B211
:107658001847D2B25DF8044BFFF7D3BFFFF7F1BF6D
:1076680010B50446FFF755F8204610BD0348044AF4
:1076780004490023836001F00FB900BFB0E603207E
:10768800D8DC032069760D00704710B50446FCF776
:1076980002FD204610BD000070B5084B036004468B
:1076A80000250E4640F80C5FFEF764FD3046267153
:1076B800FEF7B0FEA560204670BD00BF089C0D0017
:1076C8000079FEF7AFBE10B504460068FEF7D0FF9C
:1076D800204610BD10B50446006808B1FEF7C8FF83
:1076E80000232360A360636010BD38B504460D46CF
:1076F80000680131FEF7C4FF10B184E821000120C1
:1077080038BD10B50368044613B143688B4207D2ED
:107718002046FFF7EAFF20B1A3680BB9226813706F
:10772800012010BD70B50E46114604461546FFF7F8
:10773800E8FF18B92046FFF7CDFF09E02A46314691
:10774800A560206802F02DF82268A3680021D154B2
:10775800204670BD38B5002304460360436083604B
:1077680003730D4639B1084602F093F829460246DC
:107778002046FFF7D7FF204638BD38B505460C46EA
:1077880041B1084602F085F8214602462846FFF72F
:10779800C9FF01E0FFF79EFF284638BD70B50E46C9
:1077A8009AB191B185689D4202D800230B7070BDD3
:1077B800541EED1A0168AC4228BF2C4619442246D3
:1077C800304602F083F80023335570BD044B002087
:1077D8004FF6FF72187058809A80FEF7A3BE00BF5C
:1077E800C0E6032037B502AC036804F8011DDD6B61
:1077F80001224FF0FF332146A84703B030BD10B433
:107808000368DC6B4FF0FF33A4465DF8044B604718
:1078180037B502AC036804F8011DDD6B2146134639
:107828000122A84703B030BD704738B543691A68CC
:10783800002A044605DAB3F88620B3F884309A4261
:1078480001D001250BE003681B699847002814BF85
:107858000125002503D123682046DB6A984728467E
:1078680038BD43691868C043C00F7047704700208F
:10787800704710B50446FCF70EFC204610BDFCF717
:107888000ABC00002DE9F0439846036893B0DB6A10
:107898000C4606461746984712AB002543F8485D44
:1078A8002A4629462046FEF765FD00283ADB009B5C
:1078B800002B39D05B69002B36D006A8FFF78EFA6B
:1078C800009B5C696378022B01D1211D13E00A2B10
:1078D80014D11122294601A801F06EFFA36833BB19
:1078E800E36823BB4FF6FF702569FEF723FD854249
:1078F8001DD104F1140106A8FFF7B3FA06A8FFF793
:107908008DFA88B1336807ADD3F82090184B0C93E3
:107918000FCD0DAC0FC42B6823703A4643460CA913
:107928003046C84704461CE04FF0FF3419E004F124
:10793800080301AD1834186859682A4603C2083389
:10794800A3421546F7D1062301A90CA80DAD8DF861
:107958001430FFF751FA0FCD07AC0FC42B68237012
:10796800CCE70098FEF7FEFC204613B0BDE8F08394
:10797800849A0D007FB51646002242600292039257
:107988005A1C04460D4608D04FF47A72B3FBF2F144
:10799800029102FB11314A43039260690823009364
:1079A80041F205026B4440F6FF710068FEF7F2FCF5
:1079B800002808DB60690023324629460068FEF784
:1079C80011FD002804DAFEF77BFE036863600020DF
:1079D80004B070BD10B5036804469B689847A36857
:1079E800013BA3602BB923682046DB68BDE8104043
:1079F800184710BD70B504464D69054B44F8043B63
:107A08008C3506460FCD0FC42B682370304670BDE9
:107A1800849A0D0010B54369B3F88620B3F8843012
:107A28009A42044605D06269B2F884301344187942
:107A380010BD03681B6998470028F4D14FF0FF3048
:107A480010BD10B54369B3F88620B3F884309A4264
:107A5800044608D06269B2F88430591C1344A2F86D
:107A68008410187910BD03681B6998470028F1D164
:107A78004FF0FF3010BDF8B543691746B3F88620BC
:107A8800B3F884309A4205460E4606D103681B694E
:107A9800984710B94FF0FF3414E06969B1F88430A1
:107AA800B1F88640E41ABC4228BF3C461944224635
:107AB8000431304601F075FE6A69B2F88430234417
:107AC800A2F884302046F8BD42690023A2F8843029
:107AD8004269A2F8863070472DE9F041984603685C
:107AE8000D468AB0DB6A0646174698472B7D7469AF
:107AF800042B0CBF02200A2006220121FEF782FC7B
:107B0800206073691C68002C5BDB3046FFF7DCFFE4
:107B1800B8F1000F17D0002303A95FFA88F0039388
:107B2800ADF81030FEF7D6FB002849DB7069062354
:107B3800009341F20B0203AB40F6FF710068FEF7B9
:107B480029FC00283CDB1C242246002103A801F064
:107B580033FE2B7D8DF80C40042B0CD102233846C4
:107B68008DF80D30FEF7F6FBADF80E006868FEF7ED
:107B7800E1FB049013E00A2338468DF80D30FEF738
:107B8800E9FB05ACADF80E002B1D05F114071868CC
:107B98005968224603C20833BB421446F7D17369B9
:107BA8001C2203A91868FEF705FC002808DB2C1D19
:107BB8000FCC76698C360FC623683370012404E035
:107BC800044633683046DB6A984720460AB0BDE869
:107BD800F08110B5436904461868002801DBFEF7F8
:107BE800E1FB63694FF0FF321A60606911220021DE
:107BF8008C3001F0E1FD2046BDE81040FFF764BF7E
:107C080030B54269B2F886308BB004461BB1B2F881
:107C180084209A4240D06369186800283FDBB3F893
:107C280086507F2D3BD8191DC5F1800208232944B1
:107C3800FEF7C8FB00280CDD6369B3F886200AB993
:107C4800A3F884206269B2F886301844A2F8860046
:107C580025E0FEF735FD03680B2B20D0FEF730FD3D
:107C680003680B2B1BD02023002502930395FEF7F6
:107C780027FD036801930E4B009302AA2B460D497A
:107C88003220FEF747FC63691868FEF78BFB6369CF
:107C98004FF0FF321A6002E0FFF716FFBBE7626998
:107CA800B2F88630B2F88400181A0BB030BD00BFA5
:107CB800789C0D00B59B0D0010B5002304460160AB
:107CC800A0F88430A0F886308830FFF787F820467F
:107CD80010BD00004FF47A7270B500238260144A18
:107CE80043600260436183610446A0200E46FCF7AE
:107CF800CEF9054610B13146FFF7DEFF1420FCF738
:107D0800C6F9034628B1012242608260094A02602E
:107D18000561A0696561A36128B14368013B4360BF
:107D28000BB9FFF757FE2046FFF7CEFE204670BD81
:107D3800349C0D00189C0D0010B54FF0FF3104461F
:107D4800FFF7C8FF204610BD10B50446006800289C
:107D580001DBFEF727FB204610BD10B5046920465D
:107D6800FFF7F2FF24B12046BDE81040FCF793B9B5
:107D780010BD0000024B1A68024B1A60704700BF22
:107D880070DC0320C8E6032010B40468246BA44602
:107D98005DF8044B604703689B6C1847808E7047FA
:107DA800028FC08E101A704713B502AB026803F831
:107DB800011DD46819460122A04702B010BD10B5B4
:107DC80003681B690446984728B1E38EE26B591C87
:107DD800E186D05C10BD4FF0FF3010BD10B50368D0
:107DE8001B690446984718B1E38EE26BD05C10BD5E
:107DF8004FF0FF3010BD704710B403460846DC6BE7
:107E0800D98E1A8F0368521ADB6821445DF8044B37
:107E18001847A0F11000FFF7EFBFF0B503688DB069
:107E28001C265B6A04460F461546984701233246CE
:107E3800002105A8029301F0BFFC8DF814603846B4
:107E48000A268DF81560FEF785FA1122ADF816009E
:107E580002213046FEF7D6FA0028606124DB0422AE
:107E6800009202AB40F6FF71FEF794FAE0B995B1C3
:107E78000390ADF8100003A9E8B2FEF72BFA98B901
:107E88000623009341F20B0203AB40F6FF716069D1
:107E9800FEF780FA40B91C2205A96069FEF772FA5C
:107EA80010B96564012004E0236820465B6A98479E
:107EB80000200DB0F0BD10B504464069002801DB74
:107EC800FEF770FA4FF0FF3363610023E3862387E0
:107ED80010BD38B5C36B0546C08E13B12C6C241A7F
:107EE80000E01C46944228BF14462246184401F07C
:107EF80058FCEB8E2344EB86204638BD70B50368EA
:107F08001B6904460E461546984788B123682046E3
:107F18001B699847E38EE16B8542A8BF0546194463
:107F28002A46304601F03DFCE38E2B44E38601E00F
:107F38004FF0FF35284670BD70B50446054B44F830
:107F4800043B01F1200506460FCD0FC42B682370B2
:107F5800304670BD849A0D00F0B59446026889B029
:107F6800976A0A4A02921D1D8E4606460FCD03AC3B
:107F78000FC42B682370BDF838300093624602ABFB
:107F880071463046B84709B0F0BD00BF849A0D006D
:107F9800F0B50368B0F836E09F6A0D4B89B000F180
:107FA8002006044602930FCE03AD0FC533682B702D
:107FB800A38E0093724602ABE16B2046B847236854
:107FC8000546DB6920469847284609B0F0BD00BF42
:107FD800849A0D00F0B54378022B8DB005460C4607
:107FE800174601D1011D33E00A2B35D1112200219A
:107FF80001A801F0E1FBAB6843B9EB6833B94FF670
:10800800FF702E69FEF796F986421FD005F1080326
:1080180001AE05F1180E18685968324603C20833D4
:1080280073451646F7D1062301A906A807AE8DF8B1
:108038001430FEF7E1FE0FCE04340FC4336823700A
:1080480057B16888FEF77EF9388005E005F114011C
:108058002046FEF706FFF3E70DB0F0BD2DE9F0412D
:108068008EB00EAB002506461746084643F8345D29
:108078002A462946FEF77EF900281FDB019BFBB143
:108088005B69EBB102A8FEF7A9FE019B2A46586975
:1080980002A9FFF79FFF02A8FEF7C0FE80B1336870
:1080A80003ADD3F838800B4B08930FCD09AC0FC440
:1080B8002B6823703A4608A93046C047044601E0B9
:1080C8004FF0FF340198FEF74DF920460EB0BDE899
:1080D800F08100BF849A0D002DE9F047D0F8148094
:1080E800B8F1000F8CB005460C461746994600DBE0
:1080F80011B94FF0FF3035E04FF01C0A05AE52467B
:108108000021304601F058FBCDF808A0B9F1000F66
:1081180014D04FF47A72B9FBF2F1039102FB11917A
:108128004A4308230492009341F2060203AB40F647
:10813800FF714046FEF72EF908B113E0082002ABA4
:1081480001932146034600963A466869FEF742F9CC
:10815800041E06DB05F1340205F11C013046FFF769
:1081680039FF20460CB0BDE8F08738B505461446FF
:108178002B7D062B084611D11C2313700A2353703C
:10818800FEF7E8F8083424F8060C2B1D143553F8CC
:10819800042B44F8042BAB42F9D138BD042B0AD187
:1081A8001023137002235370FEF7D4F860806868B8
:1081B800FEF7C0F8606038BD2DE9F0438BB003AC22
:1081C8001C25994606460F46904600212A46204619
:1081D80001F0F2FA2246BDF848104846FFF7C5FFFD
:1081E8009DF80D3043B18DE83000002342463946F2
:1081F8007069FEF7FFF801E04FF0FF300BB0BDE803
:10820800F083F0B591B00C4606460021154609A842
:108218001C221F4601F0D0FA09AA00212046FFF7C8
:10822800A4FF9DF82530022B2ED1002305930A9B2D
:108238000493DDB102A92846FEF754F8B0B910A995
:1082480041F8340D0298FEF755F860B9039B53B115
:10825800DA6812685178022903D152680AB1059286
:1082680001E01B68F3E70398FEF74CF8002F4FF086
:108278000803009318BF032204AB08BF042200219F
:108288003046FEF787F81EE00A2B1AD104AC1422F8
:108298000021204601F090FA0BAB0FCB002F84E8A9
:1082A8000F004FF01403009318BF0C22234608BF99
:1082B8000D22292130460895FEF76CF800EAE07097
:1082C80001E04FF0FF3011B0F0BD000038B54FF4B9
:1082D8007A7383600B4B03F108026C33002503614A
:1082E8004FF0FF3304464560026043611C30FEF7DF
:1082F80075FD4FF40073E5862587E563236465649F
:10830800204638BDB49C0D0010B590F8483004469E
:108318001BB1C06B08B1FBF7BEFE0023E36384F812
:1083280048302364E386238710BD70B5044616469B
:108338000D46FFF7E9FF0023E66323643EB935B134
:108348002846FBF7A6FE0123E06384F84830E36B78
:1083580003B12564206C003018BF012070BDF8B54A
:108368001746C26B05460C461AB9016C09B1FFF7EE
:10837800DCFF04340FCC05F120060FC623683370E8
:108388000023AF86EB862B87286CF8BD70B5C26BCF
:1083980004460E461AB9016C09B1FFF7C6FFE16B36
:1083A8000022E286228749B1226C3AB1236820462E
:1083B8001D6B3346A8470028C8BF2087236820467E
:1083C8001B69BDE87040184710B5074B03F1080258
:1083D8006C33044602600361FFF76DFD2046FFF72A
:1083E80093FF204610BD00BFB49C0D0010B5044695
:1083F800FFF7EAFF2046FBF74EFE204610BD024677
:108408004069002804DB012392F84420FFF7F9BEF5
:108418004FF0FF307047704741747047007CFEF79B
:1084280041B8007CFEF716B8007CFEF723B8007C44
:10843800FEF718B8007CFEF725B810B50446FBF720
:108448002AFE204610BD70B5457C04460E4625B967
:10845800007CFEF727F8002805DD3146207CBDE8C2
:108468007040FDF7EFBF284670BD000010B5044608
:1084780008461146002262604FF47A72A260054AEB
:1084880022600122207462741A46FDF7D3FF204649
:1084980010BD00BF2C9D0D00007CFDF7FBBF000048
:1084A800F8B5194C25684DB98420FBF7F0FD064650
:1084B80018B18422294601F07FF92660134D2E68F1
:1084C8004EB98420FBF7E3FD074618B184223146F4
:1084D80001F072F92F600E4F396811F0010611D1C1
:1084E8003846FBF7DCFD68B122682B68094831463D
:1084F800FFF7BCFF3846FBF7D7FD074A0749054891
:1085080000F0CAF90348F8BDE8E60320E0E60320D6
:10851800E4E60320CCE60320D8DC03201F840D000A
:108528004174704770470021007CFDF7DBBF0121D3
:10853800007CFDF7D7BF007CFDF7CCBF007CFDF7C2
:10854800C1BF38B50446007C0D46FDF7C3FF0028BF
:1085580001DC607C20B12946207CFDF7CBFF01209F
:1085680038BD007CFDF7CEBF10B50446FBF793FD80
:10857800204610BD10B50446002363604FF47A739B
:10858800A360054B236001230846217463741146D8
:10859800FDF790FF204610BD5C9D0D0010B514221C
:1085A8000446002101F008F9204610BD30B50E4DF3
:1085B80087B001A8FFF7F2FF296811F0010410D174
:1085C8002846FBF76CFD60B101AA21460748FFF772
:1085D800D1FF2846FBF768FD054A0649034800F025
:1085E8005BF9024807B030BDECE60320F0E6032053
:1085F800D8DC03202D850D00002211464068FDF7C8
:10860800F7BF002211464068FEF712B80022114653
:108618004068FEF71DB800224068FEF711B8002236
:1086280081F001014068FDF7FBBF00231A46194697
:108638004068FDF7EDBF00231A4619464068FDF76C
:10864800DFBF002211464068FDF7C2BF00220221A9
:108658004068FDF7C5BF00231A464068FDF7B0BF64
:10866800024B04225A60024A1A60704704E703204A
:108678008C9D0D0008B50C4B33B1FFF797FF0368CD
:108688001B699847002809DC084B63B1FFF708FF0E
:1086980003681B699847002803DC08BDAFF3008016
:1086A800F2E7AFF3008008BD000000000000000002
:1086B80008B5FFF7DFFFFDF795FD014B186008BD12
:1086C80010E7032007B5002300931A466FF07701DF
:1086D800FDF74AFF03B05DF804FB000007B54388C7
:1086E8000A2B08D0502B09D1094B1B683BB103B0AA
:1086F8005DF804EB1847FFF7E5FF06E00023009359
:108708001A466FF07701FDF72FFF03B05DF804FB01
:108718000CE7032010B5FDF755FD044601F054F8A9
:10872800074B13B12046AFF3008000210448FDF742
:108738003FFF00210348BDE81040FDF70BBF00BF15
:1087480000000000E5860D0010B504460F48FEF74E
:10875800B7FF28B1A4F10B03022B01D8002010BDEC
:1087680000F058F8FEF7FCFA08B1012CF6D9FFF72B
:1087780097FEFFF791FE18B1A4F10903012BEDD97B
:10878800232C8CBF0020012010BD00BF2CE7032044
:10879800232838B504460D460AD8FF2908D0FFF724
:1087A800D3FF28B129462046BDE83840FDF732BD41
:1087B80038BD38B504460D46FDF734FDFF2810D006
:1087C800062804D84D2323FA00F0C30709D420460D
:1087D800FFF7BAFF28B129462046BDE83840FDF723
:1087E80029BD38BD0D2810B504469CBF0E34A4B26F
:1087F8002046FFF7A9FF50B103212046FDF702FDEF
:10880800032804D12046BDE81040FDF71BBD002019
:1088180010BD000038B50B4D296811F001040FD1C7
:108828002846FBF73CFC58B121460748FEF786FA74
:108838002846FBF739FC054A0549034800F02CF89F
:10884800014838BD14E7032018E70320D8DC0320CB
:10885800ED6C0D0070B50C4C0C4E0D4D00212046F2
:10886800FEF71AFF20460B4C3246294600F014F852
:1088780001212046FEF710FF324629462046BDE872
:10888800704000F009B800BF2CE70320D8DC0320B3
:1088980091760D003CE703200B460146184600F090
:1088A80063BF0000024B1868BFF35F8F704700BFBB
:1088B8004CE7032010B5002814BF044601242046C5
:1088C800FDF7CEFE20B9FFF7EDFF08B18047F6E7C8
:1088D80010BDFFF7EFBF08B5FDF7E2FE244B1A689D
:1088E800D0075CBF01221A60224B1A68D1075CBF0F
:1088F80001221A60204B1A68D2075CBF01221A6055
:108908001E4B1A68D0075CBF01221A601C4B1A68FC
:10891800D1075CBF01221A601A4B1A68D2075CBFE4
:1089280001221A60184B1A68D0075CBF01221A602E
:10893800164B1A68D1075CBF01221A60144B1A68DB
:10894800D2075CBF01221A60124B1A68D0075CBFBD
:1089580001221A60104B1A68D1075CBF01221A6005
:108968000E4B1A68D2075CBF01221A60704700BF1D
:108978007CE7032078E7032074E7032070E70320EF
:108988006CE7032068E7032064E7032060E703201F
:108998005CE7032058E7032054E7032050E703204F
:1089A800184B1A68D1075CBF01221A60164B1A6867
:1089B800D2075CBF01221A60144B1A68D0075CBF4B
:1089C80001221A60124B1A68D1075CBF01221A6093
:1089D800104B1A68D2075CBF01221A600E4B1A6846
:1089E800D0075CBF01221A600C4B1A68D1075CBF24
:1089F80001221A600A4B1A68D2075CBF01221A606A
:108A0800704700BF9CE7032098E7032094E7032002
:108A180090E703208CE7032088E7032084E70320FE
:108A280080E70320184B1A68D1075CBF01221A603F
:108A3800164B1A68D2075CBF01221A60144B1A68D9
:108A4800D0075CBF01221A60124B1A68D1075CBFBD
:108A580001221A60104B1A68D2075CBF01221A6003
:108A68000E4B1A68D0075CBF01221A600C4B1A68BB
:108A7800D1075CBF01221A600A4B1A68D2075CBF93
:108A880001221A60704700BFBCE70320B8E7032043
:108A9800B4E70320B0E70320ACE70320A8E70320EE
:108AA800A4E70320A0E70320244B1A68D0075CBF83
:108AB80001221A60224B1A68D1075CBF01221A6092
:108AC800204B1A68D2075CBF01221A601E4B1A6835
:108AD800D0075CBF01221A601C4B1A68D1075CBF23
:108AE80001221A601A4B1A68D2075CBF01221A6069
:108AF800184B1A68D0075CBF01221A60164B1A6817
:108B0800D1075CBF01221A60144B1A68D2075CBFF8
:108B180001221A60124B1A68D0075CBF01221A6042
:108B2800104B1A68D1075CBF01221A600E4B1A68F5
:108B3800D2075CBF01221A60704700BFECE7032030
:108B4800E8E70320E4E70320E0E70320DCE703206D
:108B5800D8E70320D4E70320D0E70320CCE703209D
:108B6800C8E70320C4E70320C0E7032081F00041E1
:108B780002E000BF83F0004330B54FEA41044FEAFA
:108B8800430594EA050F08BF90EA020F1FBF54EA95
:108B9800000C55EA020C7FEA645C7FEA655C00F031
:108BA800E2804FEA5454D4EB5555B8BF6D420CDD02
:108BB8002C4480EA020281EA030382EA000083EA85
:108BC800010180EA020281EA0303362D88BF30BD25
:108BD80011F0004F4FEA01314FF4801C4CEA11317B
:108BE80002D0404261EB410113F0004F4FEA0333DA
:108BF8004CEA133302D0524263EB430394EA050F65
:108C080000F0A780A4F10104D5F1200E0DDB02FAD3
:108C18000EFC22FA05F2801841F1000103FA0EF267
:108C2800801843FA05F359410EE0A5F120050EF12D
:108C3800200E012A03FA0EFC28BF4CF0020C43FA5E
:108C480005F3C01851EBE37101F0004507D54FF06B
:108C5800000EDCF1000C7EEB00006EEB0101B1F5BB
:108C6800801F1BD3B1F5001F0CD349085FEA300001
:108C78004FEA3C0C04F101044FEA445212F5800F0C
:108C880080F09A80BCF1004F08BF5FEA500C50F1A9
:108C9800000041EB045141EA050130BD5FEA4C0C8C
:108CA800404141EB010111F4801FA4F10104E9D115
:108CB80091F0000F04BF01460020B1FA81F308BF0C
:108CC8002033A3F10B03B3F120020CDA0C3208DDD8
:108CD80002F1140CC2F10C0201FA0CF021FA02F1B3
:108CE8000CE002F11402D8BFC2F1200C01FA02F123
:108CF80020FA0CFCDCBF41EA0C019040E41AA2BF48
:108D080001EB0451294330BD6FEA04041F3C1CDA0F
:108D18000C340EDC04F11404C4F1200220FA04F02F
:108D280001FA02F340EA030021FA04F345EA0301D9
:108D380030BDC4F10C04C4F1200220FA02F001FA9B
:108D480004F340EA0300294630BD21FA04F029461D
:108D580030BD94F0000F83F4801306BF81F48011B6
:108D68000134013D4EE77FEA645C18BF7FEA655C29
:108D780029D094EA050F08BF90EA020F05D054EAFB
:108D8800000C04BF1946104630BD91EA030F1EBF00
:108D98000021002030BD5FEA545C05D14000494104
:108DA80028BF41F0004130BD14F580043CBF01F5F7
:108DB800801130BD01F0004545F0FE4141F47001DD
:108DC8004FF0000030BD7FEA645C1ABF19461046B8
:108DD8007FEA655C1CBF0B46024650EA013406BFB9
:108DE80052EA033591EA030F41F4002130BD00BF78
:108DF80090F0000F04BF0021704730B54FF4806435
:108E080004F132044FF000054FF0000150E700BFB5
:108E180090F0000F04BF0021704730B54FF4806414
:108E280004F1320410F0004548BF40424FF0000101
:108E38003EE700BF42004FEAE2014FEA31014FEA44
:108E480002701FBF12F07F4393F07F4F81F0605193
:108E5800704792F0000F14BF93F07F4F704730B502
:108E68004FF4607401F0004521F0004120E700BF95
:108E780050EA010208BF704730B54FF000050AE01C
:108E880050EA010208BF704730B511F0004502D51D
:108E9800404261EB41014FF4806404F132045FEA1F
:108EA800915C3FF4DCAE4FF003025FEADC0C18BFC4
:108EB80003325FEADC0C18BF033202EBDC02C2F1BA
:108EC800200300FA03FC20FA02F001FA03FE40EA4C
:108ED8000E0021FA02F11444C1E600BF70B54FF04C
:108EE800FF0C4CF4E06C1CEA11541DBF1CEA13552E
:108EF80094EA0C0F95EA0C0F00F0DEF82C4481EA96
:108F0800030621EA4C5123EA4C5350EA013518BFB5
:108F180052EA033541F4801143F4801338D0A0FBA2
:108F280002CE4FF00005E1FB02E506F00042E0FB4F
:108F380003E54FF00006E1FB03569CF0000F18BF55
:108F48004EF0010EA4F1FF04B6F5007F64F54074FD
:108F580004D25FEA4E0E6D4146EB060642EAC62190
:108F680041EA55514FEAC52040EA5E504FEACE2EFD
:108F7800B4F1FD0C88BFBCF5E06F1ED8BEF1004F00
:108F880008BF5FEA500E50F1000041EB045170BD7C
:108F980006F0004646EA010140EA020081EA0301C0
:108FA800B4EB5C04C2BFD4EB0C0541EA045170BDBC
:108FB80041F480114FF0000E013C00F3AB8014F136
:108FC800360FDEBF002001F0004170BDC4F100047F
:108FD800203C35DA0C341BDC04F11404C4F1200500
:108FE80000FA05F320FA04F001FA05F240EA02005B
:108FF80001F0004221F0004110EBD37021FA04F691
:1090080042EB06015EEA430E08BF20EAD37070BD4A
:10901800C4F10C04C4F1200500FA04F320FA05F0A9
:1090280001FA04F240EA020001F0004110EBD370AB
:1090380041F100015EEA430E08BF20EAD37070BD1B
:10904800C4F1200500FA05F24EEA020E20FA04F3F4
:1090580001FA05F243EA020321FA04F001F00041A3
:1090680021FA04F220EA020000EBD3705EEA430E14
:1090780008BF20EAD37070BD94F0000F0FD101F043
:109088000046400041EB010111F4801F08BF013C7C
:10909800F7D041EA060195F0000F18BF704703F0BA
:1090A8000046520043EB030313F4801F08BF013D41
:1090B800F7D043EA0603704794EA0C0F0CEA1355FD
:1090C80018BF95EA0C0F0CD050EA410618BF52EAB7
:1090D8004306D1D181EA030101F000414FF00000BD
:1090E80070BD50EA410606BF1046194652EA4306CB
:1090F80019D094EA0C0F02D150EA013613D195EA3F
:109108000C0F05D152EA03361CBF104619460AD186
:1091180081EA030101F0004141F0FE4141F4700190
:109128004FF0000070BD41F0FE4141F4780170BD80
:1091380070B54FF0FF0C4CF4E06C1CEA11541DBFE5
:109148001CEA135594EA0C0F95EA0C0F00F0A7F8E7
:10915800A4EB050481EA030E52EA03354FEA013114
:1091680000F088804FEA03334FF0805545EA131327
:1091780043EA12634FEA022245EA111545EA1065EF
:109188004FEA00260EF000419D4208BF964244F186
:10919800FD0404F5407402D25B084FEA3202B61AA5
:1091A80065EB03055B084FEA32024FF480104FF479
:1091B800002CB6EB020E75EB030E22BFB61A7546ED
:1091C80040EA0C005B084FEA3202B6EB020E75EB80
:1091D800030E22BFB61A754640EA5C005B084FEAE8
:1091E8003202B6EB020E75EB030E22BFB61A7546B5
:1091F80040EA9C005B084FEA3202B6EB020E75EBC0
:10920800030E22BFB61A754640EADC0055EA060E80
:1092180018D04FEA051545EA16754FEA06164FEAC3
:10922800C30343EA52734FEAC2025FEA1C1CC0D16F
:1092380011F4801F0BD141EA00014FF000004FF0FC
:10924800004CB6E711F4801F04BF01430020B4F1BD
:10925800FD0C88BFBCF5E06F3FF6AFAEB5EB030C75
:1092680004BFB6EB020C5FEA500C50F1000041EB72
:10927800045170BD0EF0004E4EEA113114EB5C043F
:10928800C2BFD4EB0C0541EA045170BD41F4801112
:109298004FF0000E013C90E645EA060E8DE60CEA1A
:1092A800135594EA0C0F08BF95EA0C0F3FF43BAF37
:1092B80094EA0C0F0AD150EA01347FF434AF95EAEE
:1092C8000C0F7FF425AF104619462CE795EA0C0FD2
:1092D80006D152EA03353FF4FDAE1046194622E79F
:1092E80050EA410618BF52EA43067FF4C5AE50EA79
:1092F80041047FF40DAF52EA43057FF4EBAE12E769
:109308004FF0FF3C06E000BF4FF0010C02E000BF49
:109318004FF0010C4DF804CD4FEA410C7FEA6C5C2C
:109328004FEA430C18BF7FEA6C5C1BD001B050EACF
:10933800410C0CBF52EA430C91EA030F02BF90EABA
:10934800020F0020704710F1000F91EA030F58BF79
:10935800994208BF90422CBFD8176FEAE37040F0DB
:10936800010070474FEA410C7FEA6C5C02D150EA79
:10937800013C07D14FEA430C7FEA6C5CD6D152EA34
:10938800033CD3D05DF8040B704700BF84461046F9
:1093980062468C461946634600E000BF01B5FFF7F8
:1093A800B7FF002848BF10F1000F01BD4DF808EDC8
:1093B800FFF7F4FF0CBF012000205DF808FB00BF99
:1093C8004DF808EDFFF7EAFF34BF012000205DF8F3
:1093D80008FB00BF4DF808EDFFF7E0FF94BF012040
:1093E80000205DF808FB00BF4DF808EDFFF7CEFF41
:1093F80094BF012000205DF808FB00BF4DF808ED80
:10940800FFF7C4FF34BF012000205DF808FB00BF50
:109418004A0011D212F5001211D20DD56FF47873EB
:10942800B3EB62520ED44FEAC12343F0004343EA40
:10943800505323FA02F070474FF00000704750EA8B
:10944800013002D14FF0FF3070474FF000007047F5
:1094580053B94AB9002908BF00281CBF4FF0FF3193
:109468004FF0FF3000F07EB9ADF1080C6DE904CE85
:1094780000F006F8DDF804E0DDE9022304B07047E7
:109488002DE9F0478C460E460446089D002B50D126
:109498008A4217466CD9B2FA82FEBEF1000F0BD091
:1094A800CEF1200420FA04F401FA0EF644EA060C80
:1094B80002FA0EF700FA0EF44FEA1749220CBCFB29
:1094C800F9F01FFA87F809FB10C642EA064600FBC6
:1094D80008F3B34209D9F61900F1FF3280F022816E
:1094E800B34240F21F8102383E44F61AA2B2B6FBDC
:1094F800F9F309FB136642EA064403FB08F8A045A2
:1095080009D9E41903F1FF3280F00A81A04540F23D
:109518000781023B3C44C8EB040443EA00400021B5
:10952800002D62D024FA0EF400232C606B60BDE895
:10953800F0878B4207D9002D55D0002185E84100DE
:109548000846BDE8F087B3FA83F1002940F090801F
:10955800B34202D3824200F2F880841A66EB030613
:109568000120B446002D40D085E81010BDE8F087F2
:1095780012B90127B7FBF2F7B7FA87FEBEF1000F61
:1095880035D1F31B4FEA17481FFA87FC0121B3FBBB
:10959800F8F0220C08FB103642EA06460CFB00F3F2
:1095A800B34207D9F61900F1FF3202D2B34200F2F2
:1095B800CE801046F61AA2B2B6FBF8F308FB136683
:1095C80042EA06440CFB03FCA44507D9E41903F15D
:1095D800FF3202D2A44500F2B5801346CCEB040456
:1095E80043EA00409CE729462846BDE8F087CEF1CB
:1095F800200106FA0EF307FA0EF720FA01F94FEAEE
:109608001748CE4049EA0309B6FBF8FA4FEA19446D
:1096180008FB1A661FFA87FC44EA06430AFB0CF2A9
:109628009A4200FA0EF40AD9DB190AF1FF3180F0E8
:1096380087809A4240F28480AAF1020A3B449B1A2E
:109648001FFA89F9B3FBF8F108FB113349EA034320
:1096580001FB0CF69E4207D9DB1901F1FF326BD2F0
:109668009E4269D902393B449B1B41EA0A418EE775
:10967800C1F1200E22FA0EF48B40234320FA0EF794
:1096880006FA01F44FEA134C26FA0EF63C43B6FBF1
:10969800FCF9270C0CFB19661FFA83F847EA064603
:1096A80009FB08F7B74202FA01F200FA01FA08D9F1
:1096B800F61809F1FF3041D2B7423FD9A9F10209A2
:1096C8001E44F61BA0B2B6FBFCF40CFB146640EA81
:1096D800064704FB08F8B84507D9FF1804F1FF301E
:1096E80028D2B84526D9023C1F4444EA0940C8EBB1
:1096F8000707A0FB02894F4544464E4614D329D09C
:1097080065B3BAEB040367EB060707FA0EFECB4016
:10971800CF404EEA030385E888000021BDE8F087C2
:109728001346F8E61046E0E6B8EB020469EB0306D8
:109738000138E5E70446D8E7114695E78146C0E7D2
:109748008A467CE7023B3C4448E708460AE7023879
:109758003E442FE7C245E7D33E46D1E72946BDE858
:10976800F08700BF704700BF10B5054C13462CB1F9
:109778000A4601460220AFF3008010BD204610BD06
:109788000000000010B501390244904207D010F8DB
:10979800013B11F8014FA342F7D0181B10BD002060
:1097A80010BD10B5431E0A44914204D011F8014B74
:1097B80003F8014FF8E710BD02440346934202D074
:1097C80003F8011BFAE7704738B5124B1C68A36B06
:1097D8000546D3B91820FCF743FF43F20E33A063C4
:1097E80003804AF6CD33438041F2342383804EF21E
:1097F8006D63C3804DF6EC630381052343810B231E
:10980800838101220023C0E90423A36B00221D6188
:109818005A6138BDD4DC032010B502461346013224
:109828001C78002CFAD1013B11F8012B03F8012F09
:10983800002AF9D110BD10F8012B11F8013B012ABB
:1098480028BF9A42F7D0D01A7047034611F8012B67
:1098580003F8012B002AF9D170470000024B01469A
:10986800186800F003B800BFD4DC032070B50646C2
:1098780008460C4600F00DF8451C29463046FCF712
:1098880017FF064618B12A462146FFF78AFF3046D9
:1098980070BD034613F8012B002AFBD1181A0138B2
:1098A800704730B582B1451E013915F8013F11F8EE
:1098B800014FA34206D1EC431444E04201D0002BEF
:1098C800F3D11C46181B30BD104630BD10B50346F9
:1098D80042B111F8014B03F8014B013A002CF7D1C2
:1098E8001A4400E010BD934202D003F8014BFAE796
:1098F80010BD10B5034601448B4204D01A785C1C95
:109908000AB12346F8E7181A10BD00001D400D00E3
:1099180059400D0085400D0089400D0000000000F1
:1099280025752E25752E25752E2575007061727486
:1099380069636C652F6465766963652F6E616D6513
:10994800005061727469636C65446576696365008B
:109958003139322E3136382E312E39320052657374
:10996800706F6E7365546F70696300436F6D6D61DE
:109978006E64546F7069635F0022225C5C620866E3
:109988000C6E0A720D7409006E756C6C00652D0002
:10999800747275650066616C736500636D64004C74
:1099A8006967687453656E736F72006D6574686F6C
:1099B800640067657400526F74617279416E676CF8
:1099C8006553656E736F7200427574746F6E004DE7
:1099D80065736844617461546F706963004C6564B1
:1099E8000075756964007365740000044D51545422
:1099F8000400064D51497364700300000000000024
:109A080000000000FF660D0005670D002D670D00C2
:109A180011670D0001670D00000000000000000044
:109A2800CF6C0D00C56C0D00BB6C0D00B16C0D004A
:109A3800A56C0D00996C0D008D6C0D00856C0D00EA
:109A48007B6C0D00716C0D00D9740D0000000000D6
:109A580000000000ED6C0D00376D0D000F6D0D005E
:109A6800EF6C0D00176D0D001F6D0D00276D0D00BB
:109A78002F6D0D0000000000000000007F6D0D003C
:109A8800716D0D00736D0D0066006C6E00666E00E2
:109A9800636F64650064657461696C000D0A002574
:109AA8003031307520005D20002C200028293A2014
:109AB80000205B00636F6465203D20002569006419
:109AC800657461696C73203D2000626175640053A0
