:02000002D0002C
:1040000000400D00587E0D00000006000E00050166
:0840100004014E040000000051
:10401800F8780D0009480A49884208B505D0094AC8
:10402800824202D0121A03F0E7FB0748074A002130
:10403800121A03F0ECFB014808BD00BF00E10320A1
:10404800387D0D00F8E10320F8E10320F4E70320B0
:1040580070B502F0DDFB074C074BE41AA4080025F5
:104068001E46A54204D056F8253098470135F8E792
:1040780070BD00BF2C7D0D00F87C0D0000F05EB80F
:1040880008B500F0A1FDBDE8084002F08FBB00F0C4
:10409800FDBF00F0FBBF01F001B800F0FFBF0078E2
:1040A800B0FA80F0400970470123037070470000A0
:1040B80010B508460C4603F000FC214602460348AA
:1040C80003F003FC024B01221A7010BD58E20320D2
:1040D80099E20320037823F07F03194301707047A6
:1040E80010B502460C4650B1083021B10321FFF744
:1040F800F1FF146001E0FFF7EDFF012010BD10BDD6
:1041080030B544680A4443680568AB4207D2914217
:1041180005D05D1C456011F8015B1D70F3E70022B6
:104128001A704068001B30BD08B5102200230249F0
:1041380001F0C9FE002008BD99E3032010B586B040
:10414800002422460194009401231649164800F0E1
:104158003DFF164B14491B788DF8003022463C234E
:1041680002A801F023F9039C7CB16368013B6360FA
:104178005BB9236820469B689847A368013BA36006
:104188001BB923682046DB689847094902A801F053
:1041980087FE02A8FFF7C8FF02A801F03AFE06B0A2
:1041A80010BD00BFB9400D000C790D0098E2032046
:1041B80021790D0008B500F1200302460360436031
:1041C80013B100F5907100E0194691600BB102F54A
:1041D800907302F11800D3600021FFF77BFF1046AF
:1041E80008BD2DE9F0410E4617460446C8B100F156
:1041F8000808C1B1084603F060FB7D68B968421C35
:10420800AB188B420FD87B606DB13146284603F05E
:10421800F3FA40460421FFF75DFF25600120BDE861
:10422800F081BDE8F08140460021FFF753FF0020F0
:10423800BDE8F081F8B5047A14F07F0405460E460F
:10424800174605D120210830FFF744FF2C606C6029
:104258002B7A03F0200303F0FF007BB32C6894B1A2
:10426800E168B1420DD036B129B1304603F000FB08
:1042780010F0FF0F05D0B4F90A3023B104EB031492
:10428800EDE72046F8BD7A68BB681032934201D248
:104298000020F8BDA3F11000B8600028F8D06A68C3
:1042A8001AB1811A0911518100E028600022686062
:1042B80023F8062C03F8082C43F8046CF8BD0029F1
:1042C80038B502460C4600F108004FEAE17503DBF9
:1042D8000621FFF7FFFE05E00721FFF7FBFE64421A
:1042E80065EB4505C2E9004538BD38B504460846C2
:1042F8000D4603F0E2FA294602462068FFF700FF60
:1043080063681844606038BD10B503685A681C6853
:10431800A2423FBF541C5C6011705B683CBF002226
:104328001A70426834BF012300231344436010BD50
:1043380070B505460C4619B91149FFF7D6FF70BD8F
:104348002221FFF7E1FF013C14F8011F71B10D4B69
:1043580013F8026C7EB1023313F8032C8A42F7D1AA
:104368005C212846FFF7D0FF314604E02221284689
:10437800FFF7CAFF70BD2846FFF7C6FFE4E700BF96
:104388002F790D0036790D0010B5521A04460068D1
:10439800FFF7B6FE63681844606010BD2DE9F04170
:1043A80086B00DF11604054616461F46A04630464F
:1043B80039460A22002303F085F8303204F8012D2B
:1043C8000023304639460A2203F07CF806460F4699
:1043D80056EA0703EBD1424621462846FFF7D4FFA9
:1043E80006B0BDE8F081000070B51B4D1B4C2B6872
:1043F80013F0010F06461AD12846FFF750FEB0B158
:104408000DA3D3E90023C4E90A230DA3D3E90023AC
:10441800C4E90C230CA3D3E90023C4E90E230CA39D
:10442800D3E900232846C4E91023FFF73DFE04EB37
:10443800C60494ED000B70BD176E05B5B5B893466C
:10444800F5F93FE9034F384D321D30F94877825A64
:104458003CBF737FDD4F157550E2032048E1032010
:104468002DE9F84F2DED068B06468EA3D3E90023E0
:10447800D0E9000102F0F2FF00285DD09FED668BC5
:104488009FED679B9FED68AB4FF0080A4FF480776C
:1044980000255046D6E90089FFF7A6FF404653ECB1
:1044A800102B494602F0DAFF00283ED0DFF8FC81E5
:1044B8007B4CD8F8003013F0010F2AD14046FFF7A3
:1044C800EEFD30B35AA3D3E90023C4E906235AA367
:1044D800D3E90023C4E9082359A3D3E90023C4E995
:1044E8000A2359A3D3E90023C4E90C2358A3D3E929
:1044F8000023C4E90E2358A3D3E90023404684EDE2
:10450800008B84ED029B84ED04ABC4E91023FFF714
:10451800CBFD04EBCA03D3E90023D6E9000102F07E
:1045280017FDC6E900013D442DB21AF1FF3A4FEAE2
:104538006707AED2544603E04FF480770824054657
:10454800D6E90089002200234046494602F090FF40
:1045580000285BD042A3D3E900234046494602F035
:1045680073FF002852D09FED2C8B9FED3F9B9FED52
:1045780040AB631C4AD0DFF838B1DFF838A1DBF86C
:10458800003013F0010FD6E9008925D15846FFF70E
:1045980086FD08B338A3D3E90023CAE9082338A362
:1045A800D3E90023CAE90A2337A3D3E90023CAE9D8
:1045B8000C2337A3D3E90023CAE90E2336A3D3E992
:1045C800002358468AED028B8AED049B8AED06ABE0
:1045D800CAE91023FFF768FD0AEBC40ADAE90023E9
:1045E8004046494602F026FF60B12046FFF7FCFE30
:1045F800D6E9000153EC102B02F0AAFCC6E9000131
:10460800ED1B2DB2013C7F1064B2B2E7BDEC068B06
:104618002846BDE8F88F00BF9A9999999999B93FAA
:104628007B14AE47E17A843F2D431CEBE2361A3FF8
:104638003A8C30E28E79453EBC89D897B2D29C3C00
:1046480033A7A8D523F649393DA7F444FD0FA53271
:104658009D978CCF08BA5B25436FAC642806C80ABF
:10466800F168E388B5F8E43EFCA9F1D24D62503F09
:1046780048AFBC9AF2D77A3E1656E79EAF03D23CB3
:1046880080688965D63980390DD13196FC53DA3284
:10469800C2DEB78145549125148BD77DB207FE0A37
:1046A80008E2032000000000D012634100E203206A
:1046B800FCE1032000E103202DE9F04F55EC104BFD
:1046C80089B0074610EE102A2B4610EE100A29462C
:1046D80002F0A6FE20B973493846FFF706FEDEE071
:1046E800002200232046294602F09AFE68B9224695
:1046F8002B462046294602F079FA02460B46204608
:10470800294602F08DFE0028E5D10022002320462C
:10471800294602F08FFE30B12D213846FFF7F4FD0F
:1047280005F100431D4608A860E90845FFF798FE13
:10473800DDE9008904464946404602F0A3FEDFF859
:104748006CA10646024609230A215DB2092A03F133
:10475800FF33DBB204D9BAFBF1FAB2FBF1F2F4E7AA
:10476800304602F07FFB02460B464046494602F0BF
:104778003BFA80465046894602F074FB02460B46D7
:104788004046494602F0E4FB8046894602F07AFE3C
:10479800834602F067FB02460B464046494602F054
:1047A80023FA02460B4602F021FA02F06BFE00EBF8
:1047B8000B08C2450DD801363CB1092E07D9013482
:1047C80024B24FF00008012603E0A04601E04FF0B4
:1047D80000080A22B8FBF2F302FB138129B9002D65
:1047E80003DD013D98466DB2F4E70DF11E010A2282
:1047F800B6FBF2F302FB1366303601F8016D1E4674
:10480800002BF5D10DF11E023846FFF7BDFDD5B1DD
:10481800E9B202ABC1F11000184406AB1A460A26E9
:10482800834209D0B8FBF6F506FB158808F1300875
:1048380003F8018DA846F3E7511A2E2301F8013D2C
:104848003846FFF7A1FD002C12DA17493846FFF762
:104858004CFD64420DF11E010A2294FBF2F302FBA7
:104868001344303401F8014D1C46002BF5D111E0FA
:1048780015D065213846FFF747FD0DF11E010A22C4
:1048880094FBF2F302FB1344303401F8014D1CB2DF
:10489800002CF5D10DF11E023846FFF775FD09B061
:1048A800BDE8F08F2F790D0043790D0000CA9A3BBF
:1048B800F8B5037A03F07F03052B05460C466CD048
:1048C80008D8002B70D0022B58D901682046FFF772
:1048D8002FFDF8BD082B17D00CD8062B57D0072B67
:1048E80062D1D0E900672D212046FFF70DFD324641
:1048F8003B464EE0202B1FD0402B55D15B21204654
:10490800FFF702FD2D6813E090ED000B0846FFF756
:10491800D3FEF8BD21462846FFF7CAFFB5F90A308D
:1049280043B115EB031505D02C212046FFF7ECFC0D
:10493800002DEFD15D211DE07B212046FFF7E4FC2F
:104948002D68B5B1E9682046FFF7F2FC3A21204608
:10495800FFF7DAFC21462846FFF7AAFFB5F90A3027
:104968003BB115EB031504D02C212046FFF7CCFCF6
:10497800E7E77D212046FFF7C7FCF8BD90E8060071
:104988002068FFF7BDFB636818446060F8BDD0E994
:1049980000232046FFF702FDF8BDD0E900231343AA
:1049A80014BF0449044900E004492046FFF79DFC70
:1049B800F8BD00BF46790D004B790D002F790D0029
:1049C8001FB501F1FE03009310304FF00003019171
:1049D8000B70CDF808D0039303D002A9FFF768FF46
:1049E80003E0044902A8FFF780FC039805B05DF8CE
:1049F80004FB00BF2F790D0010B51320C8B001F0DB
:104A080045FF04466846FFF7D5FB6A46164904A8E1
:104A1800FFF710FC6A461549FFF7E3FB6A4614499D
:104A280004A8FFF707FC1349FFF75AFB6A46124927
:104A380004A8FFF7FFFB1149FFF752FB6A460D492F
:104A480004A8FFF7F7FB10B12146FFF738FC0C4923
:104A58006846FFF7B5FF0A4A0A490B4801F00CF807
:104A6800002048B010BD00BF1C790D0058E203209B
:104A780051790D0055790D0061790D0068790D00A7
:104A88009AE2032099E30320F0E3032010B50F20F6
:104A9800C8B001F0FBFE04466846FFF78BFB6A4688
:104AA800164904A8FFF7C6FB6A461549FFF799FBA4
:104AB8006A46144904A8FFF7BDFB1349FFF710FB2A
:104AC8006A46124904A8FFF7B5FB1149FFF708FB2E
:104AD8006A460D4904A8FFF7ADFB10B12146FFF760
:104AE800EEFB0C496846FFF76BFF0A4A0A490B4878
:104AF80000F0C2FF002048B010BD00BF1C790D00B7
:104B080058E2032051790D006C790D0061790D0090
:104B180068790D009AE2032099E30320F0E303206B
:104B280010B51120C8B001F0B1FE04466846FFF781
:104B380041FB002C6A461B4904A8D4BF0024012469
:104B4800FFF778FB6A461849FFF74BFB6A46174997
:104B580004A8FFF76FFB1649FFF7C2FA6A46154922
:104B680004A8FFF767FB1449FFF7BAFA6A46104929
:104B780004A8FFF75FFB024638B105210830FFF7AC
:104B8800A9FAE0B20021C2E900010C496846FFF722
:104B980017FF0A4A0A490B4800F06EFF002048B088
:104BA80010BD00BF1C790D0058E2032051790D009B
:104BB8007E790D0061790D0068790D009AE2032075
:104BC80099E30320F0E3032010B50C4B1B789BB14D
:104BD8000B4C00F05FF82368C01A41F28733984203
:104BE8000AD900F057F82060FFF706FFFFF74EFFDD
:104BF800BDE81040FFF794BF10BD00BF99E2032045
:104C080054E20320024B01221A7000F04BB800BF97
:104C180098E2032008B5024B1B689B68019308BD06
:104C28004802030008B5024B1B681B69019308BDC5
:104C38004802030008B5024B1B685B69019308BD75
:104C48004802030008B5024B1B681B6B019308BDA3
:104C58004802030008B5024B1B685B6C019308BD52
:104C68004802030008B5024B1B68DB6C019308BDC2
:104C78004802030008B5024B1B685B6D019308BD31
:104C88004802030008B5024B1B685B68019308BD26
:104C98001802030008B5024B1B685B69019308BD45
:104CA8001802030008B5024B1B681B68019308BD76
:104CB8002C02030008B5024B1B685B68019308BD12
:104CC8002C02030008B5024B1B681B6B019308BD3F
:104CD8002C02030008B5024B1B681B6A019308BD30
:104CE8002802030008B5024B1B685B6A019308BDE4
:104CF8002802030008B5024B1B689B6A019308BD94
:104D08002802030008B5024B1B68DB6A019308BD43
:104D18002802030008B5024B1B681B6B019308BDF2
:104D28002802030008B5024B1B685B6B019308BDA2
:104D38002802030008B5024B1B681B6C019308BDD1
:104D48002802030008B5024B1B681B69019308BDC4
:104D58006C02030008B5024B1B685B69019308BD30
:104D68006C02030008B5024B1B689B69019308BDE0
:104D78006C02030008B5024B1B685B6D019308BD0C
:104D88006C02030008B5024B1B689B6D019308BDBC
:104D98006C02030008B5024B1B685B69019308BDF0
:104DA8006402030008B5024B1B689B69019308BDA8
:104DB8006402030008B5024B1B681B6A019308BD17
:104DC8006402030008B5024B1B685B6A019308BDC7
:104DD8006402030008B5024B1B689B6A019308BD77
:104DE8006402030008B5024B1B689B68019308BD69
:104DF8006802030008B5024B1B68DB68019308BD15
:104E08006802030008B5024B1B685B68019308BD84
:104E18003802030008B5024B1B689B69019308BD63
:104E28003802030008B5024B1B68DB69019308BD13
:104E38003802030008B5024B1B68DB6A019308BD02
:104E48003802030008B5024B1B685B6B019308BD71
:104E58003802030008B5024B1B689B6B019308BD21
:104E68003802030008B5024B1B68DB69019308BDD3
:104E78003002030008B5024B1B681B6A019308BD8A
:104E88003002030008B5024B1B681B68019308BD7C
:104E98003C02030008B5024B1B68DB68019308BDA0
:104EA8003C02030008B5024B1B681B69019308BD4F
:104EB8003C02030008B5024B1B685B69019308BDFF
:104EC8003C02030008B5024B1B689B69019308BDAF
:104ED8003C02030008B5024B1B68DB69019308BD5F
:104EE8003C02030008B5024B1B681B6A019308BD0E
:104EF8003C02030008B5024B1B689B6A019308BD7E
:104F08003C02030008B5024B1B681B68019308BDEF
:104F18004C02030008B5024B1B681B69019308BDCE
:104F28004C02030008B5024B1B685B69019308BD7E
:104F38004C02030008B5024B1B689B69019308BD2E
:104F48004C02030008B5024B1B68DB69019308BDDE
:104F58004C02030008B5024B1B681B6A019308BD8D
:104F68004C02030008B5024B1B685B68019308BD3F
:104F78002002030008B5024B1B68DB6C019308BDD7
:104F88002002030008B5024B1B685B6D019308BD46
:104F98002002030008B5034B1B68D3F8883001933F
:104FA80008BD00002002030008B5034B1B68D3F8B6
:104FB8009430019308BD00002002030008B5024B9D
:104FC8001B681B6A019308BD4402030008B5024B25
:104FD8001B685B6A019308BD4402030008B5024BD5
:104FE8001B68DB6B019308BD4402030008B5024B44
:104FF8001B685B68019308BD4002030008B5024BBB
:105008001B689B68019308BD4002030008B5024B6A
:105018001B68DB68019308BD4002030008B5024B1A
:105028001B681B69019308BD4002030008B5024BC9
:105038001B685B69019308BD4002030008B5024B79
:105048001B689B69019308BD4002030008B5024B29
:105058001B68DB69019308BD4002030008B5024BD9
:105068001B681B6A019308BD4002030008B5024B88
:105078001B681B6B019308BD4002030008B5024B77
:105088001B685B6B019308BD4002030008B5024B27
:105098001B681B68019308BD1C02030008B5024B7E
:1050A8001B685B68019308BD1C02030008B5024B2E
:1050B8001B689B68019308BD1C02030008B5024BDE
:1050C8001B68DB6A019308BD1C02030008B5024B8C
:1050D8001B681B6B019308BD1C02030010B5836895
:1050E80004460BB901F031FCC3689847A3681BB1AB
:1050F80003222146204698472046BDE81040FEF787
:10510800CABF70470020704710B50446FEF7C3FFBA
:10511800204610BD08B508B1FFF7F6FF08BD10B569
:105128008368044613B1032201469847204610BD00
:1051380038B5C468D4B12378022B02D1E068FFF7F0
:10514800ADFF65682DB12846FFF7E9FF2846FEF751
:10515800A2FFA5682DB12846FFF7E1FF2846FEF714
:105168009AFF2046BDE83840FEF795BF38BD38B5F0
:10517800046805467CB16368013B63605BB92368DA
:1051880020469B689847A368013BA3601BB9236826
:105198002046DB689847284638BD13B5044691E891
:1051A800050000234B600B602060626001A801933A
:1051B8000093FFF7DCFF204602B010BD0B680360C8
:1051C80013B15A6801325A607047F7B50C4602AD00
:1051D80054F8043B45F8083D06460F4601A8214609
:1051E800FFF7ECFF29463046FFF7D7FF01A8FFF786
:1051F800BEFF2046FFF7BBFF3846FEF74CFF3046A0
:1052080003B0F0BD13B50B46044603C88DE8030090
:1052180093E8030084E803009DE8030083E80300A3
:1052280002B010BD826810B50AB901F08EFBC368E0
:10523800BDE81040184708B5006800F11001FFF7F5
:10524800F1FF08BD826810B50AB901F07EFBC3689A
:10525800BDE81040184708B5006800F11001FFF7D5
:10526800F1FF08BD38B5002383608B6804460D46FE
:105278002BB102229847EB68E360AB68A360204635
:1052880038BD00002DE9F0414FF69C7386B00468E4
:10529800B1F904208B8000230F688DF800300B6073
:1052A8004FF00200D4E84F1F994203D1C4E8450FDC
:1052B800002DF7D102D08DF800106AE014F10C052A
:1052C8001EBFE76022821F460123BFF35F8F0020C5
:1052D800637004F10803BFF35F8F53E8006F43E87E
:1052E8000002002AF9D1BFF35F8F002E51D0FFF7DB
:1052F80041FE20B129463046FFF794FF43E031468E
:105308006846FFF7AFFFE068B4F9105008B102F043
:10531800B9FA04901020ADF81450FEF7B8FE05460F
:1053280030B34FF00008C0F808801820FEF7AFFE31
:105338000446C0B1C0F8088001466846FFF762FF1E
:10534800029BA268A360039B0292E268E360BDF837
:105358001430A3824FF69C73ADF81430049B03926B
:105368002361CDF810800E4BEB600E4B2C60AB60C8
:105378000498FFF793FE6846FFF7D1FE00222946FE
:105388000948FFF7FFFD3046FFF7C9FE3046FEF734
:1053980082FE3846FFF782FE06B0BDE8F08100BF06
:1053A8003F520D009D540D00E5500D002DE9F04FC2
:1053B8008BB007AD4FF0000B0646994614200C231E
:1053C8000F4690469DF850A0C5F804B0C5F808B03F
:1053D8000793FEF75CFE044638B180F800B080F809
:1053E80001B0C0F804B0C0F808B00023102003943E
:1053F8000493FEF74CFE28B1012343608360234BDE
:105408000360C4600490224B08930820FEF73FFE17
:10541800044628B1039B40F8043B04A9FFF7CEFEDD
:1054280000955FFA8AF34A46414638460994FFF7E1
:10543800C5FDB8B9039B5B7803F0FF0293B94FF63B
:105448009C7305A903A80592ADF81830FFF71AFF59
:105458000598FFF723FE05A80999FFF7B6FE06A8E9
:10546800FFF785FE039B059304A906A8FFF7A6FE90
:1054780005A93046FFF791FE06A8FFF778FE04A8B5
:10548800FFF775FE30460BB0BDE8F08F90790D0040
:1054980005560D00022AF8B5044606D0032A17D08F
:1054A800012A20D10B6803601DE018200E68FEF762
:1054B800EEFD054650B13146FFF7D4FE3069B6F926
:1054C800147008B102F0DEF92861AF8225600AE0A5
:1054D800046844B12069FFF7E1FD2046FFF71FFE8D
:1054E8002046FEF7D8FD0020F8BD38B500238360BC
:1054F8008B6804460D462BB102229847EB68E3609F
:10550800AB68A360204638BD022A70B5044606D0B1
:10551800032A11D0012A17D10B68036014E0142064
:105528000E68FEF7B4FD054620B13146FFF7DDFFF2
:10553800337C2B74256007E004682CB12046FFF704
:10554800EEFD2046FEF7A7FD002070BDF0B5002354
:1055580087B00C46BFF35F8F50E8006F40E8003219
:10556800002AF9D1BFF35F8F002E3ED01846FFF70F
:1055780001FD074620B121463046FFF763FE2EE0C5
:10558800314601A8FFF7B1FF23788DF814301020B9
:10559800FEF77DFD0546D0B187601420FEF777FD44
:1055A800044678B18760014601A8FFF72BFE039BEC
:1055B800A268A360049B0392E268E3609DF814303C
:1055C800049223740A4BEB600A4B2C60AB6001A871
:1055D800FFF7A5FD002229460748FFF7D3FC304610
:1055E800FFF79DFD3046FEF756FD07B0F0BD00BF42
:1055F8005F520D0011550D00E5500D0030B585B016
:1056080004460D4668461146FFF7DFFD7CB124B21B
:1056180028460DB102F036F9029002A96846ADF8A5
:105628000C40FFF72FFE0298FFF738FD1DE00098A9
:105638008DF808404FF00102D0E84F3FA34203D154
:10564800C0E8412F0029F7D102D08DF808300CE0CE
:1056580010F10C014FF0010318BF0373BFF35F8F04
:10566800043000F8033CFFF771FF01A8FFF77FFD46
:1056780005B030BD002211464068FFF7EFBC00229C
:1056880011464068FFF7FABC00224068FFF7EEBCFD
:10569800002281F001014068FFF7D8BC00231A46B8
:1056A80019464068FFF7CABC00231A4619464068E5
:1056B800FFF7BCBC002211464068FFF7AFBC0022D0
:1056C80011464068FFF79ABC002202214068FFF7A4
:1056D8009DBC00231A464068FFF788BC024B032292
:1056E8005A60024A1A607047DCE30320AC790D0067
:1056F8007047F8B5064615460C468F18BC4206D0CA
:10570800336814F8011B9B6830469847F6E728462B
:10571800F8BD0022007CFFF7DDBA0021007CFFF70E
:10572800E1BA0021007CFFF7E5BA0021007CFFF711
:10573800E9BA0021007CFFF7EDBA10B50446FEF780
:10574800AAFC204610BD000010B504464FF47A7339
:105758000846A3600021044B207461602360FFF7B2
:10576800E9FA204610BD00BFE0790D000021007C59
:10577800FFF7D8BA704710B50446FEF78CFC2046F0
:1057880010BDF0B5037D062B8DB00E4600F1040761
:105798004FF0000402D000F1080518E00CAD3946BE
:1057A80005F8304D2F232A460A20FFF7F3FA28463A
:1057B80002F083F833680246DB682946304698478A
:1057C8000FE024B12E21304600F0BEFA044415F84B
:1057D800011D0A22304600F0E7FABD420444F0D128
:1057E80020460DB0F0BD000010B5054B044611224F
:1057F80040F8043B002102F00AF8204610BD00BF23
:10580800087A0D000346074A10B543F8042B01F146
:10581800100251F8044B43F8044B9142F9D10A782D
:105828001A7010BD087A0D00037D042B01D1406861
:1058380008E0062B0AD1436853B1836843B1C368B3
:1058480033B10069003018BF01207047002070474D
:105858001846704710B59DF8084044EA032343EA08
:10586800024242EA016104234160037510BD37B565
:105878000D788B784A78C97800912946FFF7EAFFB6
:1058880003B030BD0068FFF7EDB90000014B024AD4
:105898001A607047E4E30320C57A0D000022114620
:1058A8004068FFF7DBBB002211464068FFF7E6BB04
:1058B80000224068FFF7DABB002281F0010140684E
:1058C800FFF7C4BB00231A4619464068FFF7B6BB6A
:1058D80000231A4619464068FFF7A8BB0022114664
:1058E8004068FFF79BBB002211464068FFF786BB64
:1058F800002202214068FFF789BB00231A4640684E
:10590800FFF774BB38B5054678B1046844B1A3689D
:105918001BB103222146204698472046FEF7BBFBD1
:105928002846BDE83840FEF7B6BB38BD10B103685D
:105938005B681847704710B503680446BBB15868E0
:10594800FFF768F978B923685A7C12B95868FFF7E5
:1059580069F923685868FFF76DF920680023236008
:1059680028B1FFF7CFFF206808B1FFF7CBFF20462B
:1059780010BD000038B50B4B03600446D0F8CC01CD
:1059880008B1FEF78AFBD4F8C4512DB12846FFF7B9
:10599800D2FF2846FEF77FFBA06808B1FFF7C6FFD5
:1059A800204638BDF87A0D0030B58DB00446112276
:1059B800002101A801F02BFF062301AA09498DF84F
:1059C80014300A20FFF7EEF907AD01A906A8FFF782
:1059D80019FF0FCD04340FC42B68237000200DB0BD
:1059E80030BD00BF247B0D0030B5044689B000F5FA
:1059F800E070FFF747FF236883BB4C20FEF747FBA7
:105A0800054608B100F030FD2068256008B1FFF7B1
:105A18008DFF206820B300224FF49A6100F053FDF7
:105A280008A9002501F8195D1148FFF78BF92068CE
:105A38009DF80720036849F269011B6A984702A884
:105A4800FFF7D2FE02A8FFF7AFFF002804DB02A988
:105A5800206800F0A2FD04E0054602E0002500E011
:105A6800044DD4F8C001FFF705F9284609B030BD48
:105A7800317B0D00FCFEFFFF2DE9F04705468CB099
:105A880016460F4609B10B780BB9354C64E0084649
:105A980001F013FF8046002E5CD0304601F00DFF68
:105AA800441C08F102032344B3F59A6F4FD805F557
:105AB800E070FFF7E7FE2846FFF796FF002840DB77
:105AC8006846FFF791FE6846FFF76EFF002838DB4F
:105AD800D5F800A0DAF800300DF1040CD3F83890AE
:105AE800204B0693BCE80F000DF11C0EAEE80F002A
:105AF800DCF800308EF8003049F2690206A95046F9
:105B0800C84700281DDB002328688DF81830036873
:105B18000122DB6806A998472868036808F1010292
:105B2800DB68394698472CB1286803682246DB6849
:105B380031469847286803681B6C984700EAE07468
:105B480000E00446D5F8C001FFF794F804E06FF0D0
:105B5800BD0401E03446A4E720460CB0BDE8F08758
:105B6800F2FEFFFF087A0D0038B50D4C0D4B23608F
:105B78000025022304F5E4706360A560C4F8C451ED
:105B8800C4F8C851FFF766F8074BC4F8CC51236036
:105B98002046064A0649BDE8384000F0D1BE00BF9D
:105BA800E8E303205C7B0D00F87A0D00F8E10320A0
:105BB8007D590D0000231A464068FFF717BA0022E6
:105BC80002214068FFF722BA002211464068FFF719
:105BD80015BA002211464068FFF720BA00231A467A
:105BE80019464068FFF722BA00231A46194640684A
:105BF800FFF724BA002281F001014068FFF726BAB6
:105C080000224068FFF732BA002211464068FFF7C9
:105C180035BA002211464068FFF720BA2DE9F04353
:105C2800002495B016460D460746FFF7DDFD2146D0
:105C380020220CA8009401F0EAFD40230C93214691
:105C48006B460CAA3046FFF7D5F80446002844D125
:105C5800024601216868FFF7E1F9022180462246E1
:105C68006868FFF7DBF9009E81462146002E34D094
:105C7800002932D17368022B02D00A2B09D02AE0FE
:105C8800B8F1000F27D0716938460431FFF7EFFDEE
:105C980020E0B9F1000F1ED07469112201A801F0AB
:105CA800B6FD06238DF8143001AD04F1080318344D
:105CB800186859682A4603C20833A3421546F7D123
:105CC80001A906A807ADFFF79DFD0FCD3C1D0FC428
:105CD8002B6823700121F669C8E70098FFF782F85E
:105CE800384615B0BDE8F083024B034A1A6000221B
:105CF8005A607047B8E503205C7B0D00F8B506468E
:105D08000D468F180024BD420CD0336815F8011BCE
:105D18009B6830469847002801DB0444F3E7002CD1
:105D280008BF04462046F8BD70B505460C4608462F
:105D380049B101F0C2FD2B68024621462846DB68BE
:105D4800BDE87040184770BD03689B68184730B5B8
:105D58008BB00B4600218DF82410012A98BF0A2227
:105D68000DF12304B3FBF2F505FB123303F0FF0337
:105D7800092B94BF30333733DBB2214604F801399D
:105D88002B46002DEED1FFF7CFFF0BB030BD10B47E
:105D98002AB903685DF8044B9B68C9B21847D2B2A8
:105DA8005DF8044BFFF7D3BFFFF7F1BF10B504460A
:105DB800FFF7B5F9204610BD0348044A04490023FB
:105DC800836000F0BDBD00BFC0E50320F8E10320FB
:105DD800B55D0D00704710B50446FEF75CF9204626
:105DE80010BD000070B5084B0360044600250E4640
:105DF80040F80C5FFEF726FF30462671FFF732F8B1
:105E0800A560204670BD00BF907B0D000079FFF7AC
:105E180031B810B504460068FFF740F9204610BDB8
:105E280010B50446006808B1FFF738F9002323606D
:105E3800A360636010BD38B504460D4600680131A3
:105E4800FFF734F910B184E82100012038BD10B5FE
:105E58000368044613B143688B4207D22046FFF714
:105E6800EAFF20B1A3680BB922681370012010BDA6
:105E780070B50E46114604461546FFF7E8FF18B9F7
:105E88002046FFF7CDFF09E02A463146A560206885
:105E980001F0B2FC2268A3680021D154204670BDED
:105EA80038B50023044603604360836003730D46DE
:105EB80039B1084601F001FD294602462046FFF7A0
:105EC800D7FF204638BD70B50E469AB191B18568A6
:105ED8009D4202D800230B7070BD541EED1A016854
:105EE800AC4228BF2C4619442246304601F0EDFC4E
:105EF8000023335570BD0000044B00204FF6FF729D
:105F0800187058809A80FFF72DB800BFD0E503209D
:105F1800024B1A68024B1A60704700BF90E10320D9
:105F2800D8E5032010B40468246BA4465DF8044B3C
:105F3800604703689B6C1847808E7047028FC08E3D
:105F4800101A704713B502AB026803F8011DD46834
:105F580019460122A04702B010BD10B503681B699D
:105F68000446984728B1E38EE26B591CE186D05C61
:105F780010BD4FF0FF3010BD10B503681B69044613
:105F8800984718B1E38EE26BD05C10BD4FF0FF303C
:105F980010BD704710B403460846DC6BD98E1A8FC3
:105FA8000368521ADB6821445DF8044B1847A0F1D6
:105FB8001000FFF7EFBFF0B503688DB01C265B6AD1
:105FC80004460F461546984701233246002105A886
:105FD800029301F01CFC8DF8146038460A268DF8EF
:105FE8001560FEF7F7FE1122ADF8160002213046C3
:105FF800FEF730FF0028606124DB0422009202AB28
:1060080040F6FF71FEF706FFE0B995B10390ADF8D1
:10601800100003A9E8B2FEF79DFE98B90623009385
:1060280041F20B0203AB40F6FF716069FEF7F2FE26
:1060380040B91C2205A96069FEF7E4FE10B9656441
:10604800012004E0236820465B6A984700200DB0D1
:10605800F0BD10B504464069002801DBFEF7E2FEFA
:106068004FF0FF3363610023E386238710BD38B503
:10607800C36B0546C08E13B12C6C241A00E01C4675
:10608800944228BF14462246184401F0B5FBEB8E13
:106098002344EB86204638BD70B503681B69044667
:1060A8000E461546984788B1236820461B699847CD
:1060B800E38EE16B8542A8BF054619442A4630465F
:1060C80001F09AFBE38E2B44E38601E04FF0FF35A5
:1060D800284670BD70B50446054B44F8043B01F1F1
:1060E800200506460FCD0FC42B682370304670BDBF
:1060F800087A0D00F0B59446026889B0976A0A4A92
:1061080002921D1D8E4606460FCD03AC0FC42B68A8
:106118002370BDF838300093624602AB71463046B2
:10612800B84709B0F0BD00BF087A0D00F0B50368A4
:10613800B0F836E09F6A0D4B89B000F1200604469E
:1061480002930FCE03AD0FC533682B70A38E009357
:10615800724602ABE16B2046B84723680546DB6907
:1061680020469847284609B0F0BD00BF087A0D00C0
:10617800F0B54378022B8DB005460C46174601D181
:10618800011D33E00A2B35D11122002101A801F0AD
:106198003EFBAB6843B9EB6833B94FF6FF702E6925
:1061A800FEF708FE86421FD005F1080301AE05F18F
:1061B800180E18685968324603C2083373451646E4
:1061C800F7D1062301A906A807AE8DF81430FFF70A
:1061D80019FB0FCE04340FC43368237057B1688895
:1061E800FEF7F0FD388005E005F114012046FFF7C1
:1061F8003EFBF3E70DB0F0BD2DE9F0418EB00EABDC
:10620800002506461746084643F8345D2A462946BF
:10621800FEF7F0FD00281FDB019BFBB15B69EBB1CA
:1062280002A8FFF7E1FA019B2A46586902A9FFF77D
:106238009FFF02A8FFF7F8FA80B1336803ADD3F8DF
:1062480038800B4B08930FCD09AC0FC42B68237013
:106258003A4608A93046C047044601E04FF0FF34EB
:106268000198FEF7BFFD20460EB0BDE8F08100BFE3
:10627800087A0D002DE9F047D0F81480B8F1000F26
:106288008CB005460C461746994600DB11B94FF00D
:10629800FF3035E04FF01C0A05AE5246002130466B
:1062A80001F0B5FACDF808A0B9F1000F14D04FF4F9
:1062B8007A72B9FBF2F1039102FB11914A43082368
:1062C8000492009341F2060203AB40F6FF71404688
:1062D800FEF7A0FD08B113E0082002AB01932146A8
:1062E800034600963A466869FEF7A4FD041E06DBDD
:1062F80005F1340205F11C013046FFF739FF20464D
:106308000CB0BDE8F08738B5054614462B7D062B42
:10631800084611D11C2313700A235370FEF75AFD47
:10632800083424F8060C2B1D143553F8042B44F8B4
:10633800042BAB42F9D138BD042B0AD110231370BA
:1063480002235370FEF746FD60806868FEF732FD51
:10635800606038BD2DE9F0438BB003AC1C2599462D
:1063680006460F46904600212A46204601F04FFA7D
:106378002246BDF848104846FFF7C5FF9DF80D3086
:1063880043B18DE830000023424639467069FEF774
:1063980059FD01E04FF0FF300BB0BDE8F083F0B5D8
:1063A80091B00C4606460021154609A81C221F4636
:1063B80001F02DFA09AA00212046FFF7A4FF9DF855
:1063C8002530022B2ED1002305930A9B0493DDB1BF
:1063D80002A92846FEF7C6FCB0B910A941F8340D49
:1063E8000298FEF7C7FC60B9039B53B1DA681268DC
:1063F8005178022903D152680AB1059201E01B685D
:10640800F3E70398FEF7BEFC002F4FF00803009354
:1064180018BF032204AB08BF042200213046FEF750
:10642800F9FC1EE00A2B1AD104AC142200212046E4
:1064380001F0EDF90BAB0FCB002F84E80F004FF004
:106448001403009318BF0C22234608BF0D222921EC
:1064580030460895FEF7DEFC00EAE07001E04FF0F8
:10646800FF3011B0F0BD000038B54FF47A73836087
:106478000B4B03F108026C33002503614FF0FF3327
:1064880004464560026043611C30FFF7ADF94FF4E4
:106498000073E5862587E56323646564204638BD77
:1064A800C47B0D0010B590F8483004461BB1C06B92
:1064B80008B1FDF7F0FD0023E36384F84830236456
:1064C800E386238710BD70B5044616460D46FFF7D0
:1064D800E9FF0023E66323643EB935B12846FDF79A
:1064E800D8FD0123E06384F84830E36B03B12564E9
:1064F800206C003018BF012070BDF8B51746C26B7C
:1065080005460C461AB9016C09B1FFF7DCFF0434E3
:106518000FCC05F120060FC6236833700023AF8621
:10652800EB862B87286CF8BD70B5C26B04460E4607
:106538001AB9016C09B1FFF7C6FFE16B0022E286C8
:10654800228749B1226C3AB1236820461D6B334635
:10655800A8470028C8BF2087236820461B69BDE8D4
:106568007040184710B5074B03F108026C33044616
:1065780002600361FFF76DFD2046FFF793FF204699
:1065880010BD00BFC47B0D0010B50446FFF7EAFF3D
:106598002046FDF780FD204610BD024640690028D0
:1065A80004DB012392F84420FFF7F9BE4FF0FF30D7
:1065B8007047704741747047007CFEF79BBC007CB5
:1065C800FEF770BC007CFEF77DBC007CFEF772BC59
:1065D800007CFEF77FBC10B50446FDF75CFD204645
:1065E80010BD70B5457C04460E4625B9007CFEF703
:1065F80081FC002805DD3146207CBDE87040FEF7AF
:1066080049BC284670BD000010B50446084611462E
:10661800002262604FF47A72A260054A2260012269
:10662800207462741A46FEF72DFC204610BD00BF88
:106638003C7C0D00007CFEF755BC000038B50C4DC5
:10664800296811F0010411D12846FDF728FD68B129
:10665800084A094B09482146FFF7D6FF2846FDF7A7
:1066680023FD074A0749054800F06AF9034838BD81
:1066780074E6032078E60320F0E50320DCE5032038
:10668800F8E10320BB650D00417470477047002195
:10669800007CFEF74FBC0121007CFEF74BBC007C60
:1066A800FEF740BC007CFEF735BC38B50446007CDC
:1066B8000D46FEF737FC002801DC607C20B1294636
:1066C800207CFEF73FFC012038BD007CFEF742BC71
:1066D80010B50446FDF7DFFC204610BD10B5044692
:1066E800002363604FF47A73A360054B2360012392
:1066F8000846217463741146FEF704FC204610BD59
:106708006C7C0D0010B514220446002101F07FF8BE
:10671800204610BD30B50E4D87B001A8FFF7F2FF37
:10672800296811F0010410D12846FDF7B8FC60B1C2
:1067380001AA21460748FFF7D1FF2846FDF7B4FC18
:10674800054A0649034800F0FBF8024807B030BD87
:10675800FCE6032000E70320F8E1032095660D001E
:1067680008B50F4B33B1FFF7D5FF03681B6998478E
:1067780000280DDC0B4B33B1FFF760FF03681B6982
:106788009847002807DC084B43B1AFF3008008BDE9
:10679800AFF30080EEE7AFF30080F4E708BD00BF79
:1067A80000000000000000000000000008B5FFF72E
:1067B800D7FFFEF76FFA014B186008BD18E70320F2
:1067C80007B5002300931A466FF07701FEF7ECFB3C
:1067D80003B05DF804FB000007B543880A2B08D016
:1067E800502B09D1094B1B683BB103B05DF804EB92
:1067F8001847FFF7E5FF06E0002300931A466FF0FD
:106808007701FEF7D1FB03B05DF804FB14E7032022
:1068180010B5FEF737FA044601F002F8074B13B13A
:106828002046AFF3008000210448FEF7D7FB002183
:106838000348BDE81040FEF7ADBB00BF00000000F4
:10684800E1670D0010B504460F48FFF7DFFA28B1DD
:10685800A4F10B03022B01D8002010BD00F02EF884
:10686800FEF784FF08B1012CF6D9FFF7E7FEFFF722
:10687800E1FE18B1A4F10903012BEDD91E2C8CBF40
:106888000020012010BD00BF34E703200D2810B5FB
:1068980004469CBF0E34A4B22046FFF7D3FF50B184
:1068A80003212046FEF706FA032804D12046BDE856
:1068B8001040FEF707BA002010BD000038B50B4D98
:1068C800296811F001040FD12846FDF7E8FB58B1FB
:1068D80021460748FEF738FF2846FDF7E5FB054A3D
:1068E8000549034800F02CF8014838BD1CE703208F
:1068F80020E70320F8E10320F9560D0070B50C4C91
:106908000C4E0D4D00212046FFF76CFA20460B4C2B
:106918003246294600F014F801212046FFF762FAB2
:10692800324629462046BDE8704000F009B800BF4D
:1069380034E70320F8E10320DD5D0D0044E7032080
:106948000B460146184600F049BF08B5FEF7B6FBEE
:10695800244B1A68D0075CBF01221A60224B1A68C0
:10696800D1075CBF01221A60204B1A68D2075CBFAE
:1069780001221A601E4B1A68D0075CBF01221A60F8
:106988001C4B1A68D1075CBF01221A601A4B1A689F
:10699800D2075CBF01221A60184B1A68D0075CBF87
:1069A80001221A60164B1A68D1075CBF01221A60CF
:1069B800144B1A68D2075CBF01221A60124B1A687E
:1069C800D0075CBF01221A60104B1A68D1075CBF60
:1069D80001221A600E4B1A68D2075CBF01221A60A6
:1069E800704700BF80E703207CE7032078E7032097
:1069F80074E7032070E703206CE7032068E70320AF
:106A080064E7032060E703205CE7032058E70320DE
:106A180054E70320184B1A68D1075CBF01221A609B
:106A2800164B1A68D2075CBF01221A60144B1A6809
:106A3800D0075CBF01221A60124B1A68D1075CBFED
:106A480001221A60104B1A68D2075CBF01221A6033
:106A58000E4B1A68D0075CBF01221A600C4B1A68EB
:106A6800D1075CBF01221A600A4B1A68D2075CBFC3
:106A780001221A60704700BFA0E703209CE70320AB
:106A880098E7032094E7032090E703208CE703208E
:106A980088E7032084E70320184B1A68D1075CBFF6
:106AA80001221A60164B1A68D2075CBF01221A60CD
:106AB800144B1A68D0075CBF01221A60124B1A687F
:106AC800D1075CBF01221A60104B1A68D2075CBF5D
:106AD80001221A600E4B1A68D0075CBF01221A60A7
:106AE8000C4B1A68D1075CBF01221A600A4B1A685E
:106AF800D2075CBF01221A60704700BFC0E70320BD
:106B0800BCE70320B8E70320B4E70320B0E703207D
:106B1800ACE70320A8E70320A4E70320244B1A6866
:106B2800D0075CBF01221A60224B1A68D1075CBFEC
:106B380001221A60204B1A68D2075CBF01221A6032
:106B48001E4B1A68D0075CBF01221A601C4B1A68DA
:106B5800D1075CBF01221A601A4B1A68D2075CBFC2
:106B680001221A60184B1A68D0075CBF01221A600C
:106B7800164B1A68D1075CBF01221A60144B1A68B9
:106B8800D2075CBF01221A60124B1A68D0075CBF9B
:106B980001221A60104B1A68D1075CBF01221A60E3
:106BA8000E4B1A68D2075CBF01221A60704700BFFB
:106BB800F0E70320ECE70320E8E70320E4E70320FD
:106BC800E0E70320DCE70320D8E70320D4E703202D
:106BD800D0E70320CCE70320C8E70320C4E703205D
:106BE80081F0004102E000BF83F0004330B54FEA76
:106BF80041044FEA430594EA050F08BF90EA020FE3
:106C08001FBF54EA000C55EA020C7FEA645C7FEA75
:106C1800655C00F0E2804FEA5454D4EB5555B8BF98
:106C28006D420CDD2C4480EA020281EA030382EA09
:106C3800000083EA010180EA020281EA0303362D9B
:106C480088BF30BD11F0004F4FEA01314FF4801C6E
:106C58004CEA113102D0404261EB410113F0004F80
:106C68004FEA03334CEA133302D0524263EB430337
:106C780094EA050F00F0A780A4F10104D5F1200ED5
:106C88000DDB02FA0EFC22FA05F2801841F1000130
:106C980003FA0EF2801843FA05F359410EE0A5F104
:106CA80020050EF1200E012A03FA0EFC28BF4CF035
:106CB800020C43FA05F3C01851EBE37101F00045EB
:106CC80007D54FF0000EDCF1000C7EEB00006EEBF8
:106CD8000101B1F5801F1BD3B1F5001F0CD3490882
:106CE8005FEA30004FEA3C0C04F101044FEA4452D9
:106CF80012F5800F80F09A80BCF1004F08BF5FEA60
:106D0800500C50F1000041EB045141EA050130BD3F
:106D18005FEA4C0C404141EB010111F4801FA4F1E2
:106D28000104E9D191F0000F04BF01460020B1FA37
:106D380081F308BF2033A3F10B03B3F120020CDA6F
:106D48000C3208DD02F1140CC2F10C0201FA0CF04D
:106D580021FA02F10CE002F11402D8BFC2F1200CB2
:106D680001FA02F120FA0CFCDCBF41EA0C01904068
:106D7800E41AA2BF01EB0451294330BD6FEA0404B1
:106D88001F3C1CDA0C340EDC04F11404C4F120029C
:106D980020FA04F001FA02F340EA030021FA04F3AE
:106DA80045EA030130BDC4F10C04C4F1200220FA05
:106DB80002F001FA04F340EA0300294630BD21FA43
:106DC80004F0294630BD94F0000F83F4801306BF09
:106DD80081F480110134013D4EE77FEA645C18BFFD
:106DE8007FEA655C29D094EA050F08BF90EA020F94
:106DF80005D054EA000C04BF1946104630BD91EA8C
:106E0800030F1EBF0021002030BD5FEA545C05D18E
:106E18004000494128BF41F0004130BD14F58004CD
:106E28003CBF01F5801130BD01F0004545F0FE4141
:106E380041F470014FF0000030BD7FEA645C1ABF76
:106E4800194610467FEA655C1CBF0B46024650EAAD
:106E5800013406BF52EA033591EA030F41F40021D9
:106E680030BD00BF90F0000F04BF0021704730B55F
:106E78004FF4806404F132044FF000054FF0000134
:106E880050E700BF90F0000F04BF0021704730B5F5
:106E98004FF4806404F1320410F0004548BF4042CA
:106EA8004FF000013EE700BF42004FEAE2014FEA1F
:106EB80031014FEA02701FBF12F07F4393F07F4FFA
:106EC80081F06051704792F0000F14BF93F07F4F2C
:106ED800704730B54FF4607401F0004521F000416F
:106EE80020E700BF50EA010208BF704730B54FF0F5
:106EF80000050AE050EA010208BF704730B511F0FA
:106F0800004502D5404261EB41014FF4806404F131
:106F180032045FEA915C3FF4DCAE4FF003025FEAB3
:106F2800DC0C18BF03325FEADC0C18BF033202EB3B
:106F3800DC02C2F1200300FA03FC20FA02F001FA95
:106F480003FE40EA0E0021FA02F11444C1E600BF34
:106F580070B54FF0FF0C4CF4E06C1CEA11541DBFE7
:106F68001CEA135594EA0C0F95EA0C0F00F0DEF8B2
:106F78002C4481EA030621EA4C5123EA4C5350EA97
:106F8800013518BF52EA033541F4801143F48013E8
:106F980038D0A0FB02CE4FF00005E1FB02E506F079
:106FA8000042E0FB03E54FF00006E1FB03569CF0CE
:106FB800000F18BF4EF0010EA4F1FF04B6F5007FD4
:106FC80064F5407404D25FEA4E0E6D4146EB060646
:106FD80042EAC62141EA55514FEAC52040EA5E50CF
:106FE8004FEACE2EB4F1FD0C88BFBCF5E06F1ED879
:106FF800BEF1004F08BF5FEA500E50F1000041EBB0
:10700800045170BD06F0004646EA010140EA02005C
:1070180081EA0301B4EB5C04C2BFD4EB0C0541EA7E
:10702800045170BD41F480114FF0000E013C00F393
:10703800AB8014F1360FDEBF002001F0004170BDB7
:10704800C4F10004203C35DA0C341BDC04F11404D0
:10705800C4F1200500FA05F320FA04F001FA05F25C
:1070680040EA020001F0004221F0004110EBD37029
:1070780021FA04F642EB06015EEA430E08BF20EA55
:10708800D37070BDC4F10C04C4F1200500FA04F3F8
:1070980020FA05F001FA04F240EA020001F000418A
:1070A80010EBD37041F100015EEA430E08BF20EAFD
:1070B800D37070BDC4F1200500FA05F24EEA020E45
:1070C80020FA04F301FA05F243EA020321FA04F074
:1070D80001F0004121FA04F220EA020000EBD3702B
:1070E8005EEA430E08BF20EAD37070BD94F0000F2B
:1070F8000FD101F00046400041EB010111F4801F5F
:1071080008BF013CF7D041EA060195F0000F18BF0F
:10711800704703F00046520043EB030313F4801F4B
:1071280008BF013DF7D043EA0603704794EA0C0F05
:107138000CEA135518BF95EA0C0F0CD050EA41061B
:1071480018BF52EA4306D1D181EA030101F0004198
:107158004FF0000070BD50EA410606BF10461946C0
:1071680052EA430619D094EA0C0F02D150EA0136CC
:1071780013D195EA0C0F05D152EA03361CBF10460D
:1071880019460AD181EA030101F0004141F0FE41AC
:1071980041F470014FF0000070BD41F0FE4141F430
:1071A800780170BD70B54FF0FF0C4CF4E06C1CEA30
:1071B80011541DBF1CEA135594EA0C0F95EA0C0FE5
:1071C80000F0A7F8A4EB050481EA030E52EA0335A0
:1071D8004FEA013100F088804FEA03334FF08055C1
:1071E80045EA131343EA12634FEA022245EA1115EE
:1071F80045EA10654FEA00260EF000419D4208BF9F
:10720800964244F1FD0404F5407402D25B084FEA4B
:107218003202B61A65EB03055B084FEA32024FF4F7
:1072280080104FF4002CB6EB020E75EB030E22BF54
:10723800B61A754640EA0C005B084FEA3202B6EB14
:10724800020E75EB030E22BFB61A754640EA5C00C3
:107258005B084FEA3202B6EB020E75EB030E22BF53
:10726800B61A754640EA9C005B084FEA3202B6EB54
:10727800020E75EB030E22BFB61A754640EADC0013
:1072880055EA060E18D04FEA051545EA16754FEA75
:1072980006164FEAC30343EA52734FEAC2025FEA93
:1072A8001C1CC0D111F4801F0BD141EA00014FF022
:1072B80000004FF0004CB6E711F4801F04BF0143F3
:1072C8000020B4F1FD0C88BFBCF5E06F3FF6AFAE0F
:1072D800B5EB030C04BFB6EB020C5FEA500C50F19F
:1072E800000041EB045170BD0EF0004E4EEA113122
:1072F80014EB5C04C2BFD4EB0C0541EA045170BD29
:1073080041F480114FF0000E013C90E645EA060E6C
:107318008DE60CEA135594EA0C0F08BF95EA0C0F9A
:107328003FF43BAF94EA0C0F0AD150EA01347FF4E2
:1073380034AF95EA0C0F7FF425AF104619462CE7B9
:1073480095EA0C0F06D152EA03353FF4FDAE10461C
:10735800194622E750EA410618BF52EA43067FF46D
:10736800C5AE50EA41047FF40DAF52EA43057FF4FD
:10737800EBAE12E74FF0FF3C06E000BF4FF0010C08
:1073880002E000BF4FF0010C4DF804CD4FEA410C6C
:107398007FEA6C5C4FEA430C18BF7FEA6C5C1BD039
:1073A80001B050EA410C0CBF52EA430C91EA030FBA
:1073B80002BF90EA020F0020704710F1000F91EA17
:1073C800030F58BF994208BF90422CBFD8176FEAE5
:1073D800E37040F0010070474FEA410C7FEA6C5CB3
:1073E80002D150EA013C07D14FEA430C7FEA6C5CBA
:1073F800D6D152EA033CD3D05DF8040B704700BFE6
:107408008446104662468C461946634600E000BF33
:1074180001B5FFF7B7FF002848BF10F1000F01BD05
:107428004DF808EDFFF7F4FF0CBF012000205DF8D0
:1074380008FB00BF4DF808EDFFF7EAFF34BF012055
:1074480000205DF808FB00BF4DF808EDFFF7E0FFEE
:1074580094BF012000205DF808FB00BF4DF808ED3F
:10746800FFF7CEFF94BF012000205DF808FB00BFA6
:107478004DF808EDFFF7C4FF34BF012000205DF888
:1074880008FB00BF4A0011D212F5001211D20DD527
:107498006FF47873B3EB62520ED44FEAC12343F012
:1074A800004343EA505323FA02F070474FF00000BC
:1074B800704750EA013002D14FF0FF3070474FF06B
:1074C8000000704753B94AB9002908BF00281CBFFB
:1074D8004FF0FF314FF0FF3000F07EB9ADF1080CEE
:1074E8006DE904CE00F006F8DDF804E0DDE90223DA
:1074F80004B070472DE9F0478C460E460446089DB7
:10750800002B50D18A4217466CD9B2FA82FEBEF1DE
:10751800000F0BD0CEF1200420FA04F401FA0EF685
:1075280044EA060C02FA0EF700FA0EF44FEA17497D
:10753800220CBCFBF9F01FFA87F809FB10C642EAD7
:10754800064600FB08F3B34209D9F61900F1FF32E9
:1075580080F02281B34240F21F8102383E44F61A7D
:10756800A2B2B6FBF9F309FB136642EA064403FB31
:1075780008F8A04509D9E41903F1FF3280F00A811F
:10758800A04540F20781023B3C44C8EB040443EAAF
:1075980000400021002D62D024FA0EF400232C6054
:1075A8006B60BDE8F0878B4207D9002D55D00021CC
:1075B80085E841000846BDE8F087B3FA83F1002961
:1075C80040F09080B34202D3824200F2F880841ADD
:1075D80066EB03060120B446002D40D085E8101064
:1075E800BDE8F08712B90127B7FBF2F7B7FA87FEB3
:1075F800BEF1000F35D1F31B4FEA17481FFA87FC7D
:107608000121B3FBF8F0220C08FB103642EA0646CB
:107618000CFB00F3B34207D9F61900F1FF3202D28E
:10762800B34200F2CE801046F61AA2B2B6FBF8F3C7
:1076380008FB136642EA06440CFB03FCA44507D981
:10764800E41903F1FF3202D2A44500F2B5801346D3
:10765800CCEB040443EA00409CE729462846BDE8F1
:10766800F087CEF1200106FA0EF307FA0EF720FA9A
:1076780001F94FEA1748CE4049EA0309B6FBF8FA80
:107688004FEA194408FB1A661FFA87FC44EA0643C6
:107698000AFB0CF29A4200FA0EF40AD9DB190AF135
:1076A800FF3180F087809A4240F28480AAF1020A72
:1076B8003B449B1A1FFA89F9B3FBF8F108FB113315
:1076C80049EA034301FB0CF69E4207D9DB1901F195
:1076D800FF326BD29E4269D902393B449B1B41EA77
:1076E8000A418EE7C1F1200E22FA0EF48B402343A3
:1076F80020FA0EF706FA01F44FEA134C26FA0EF6B2
:107708003C43B6FBFCF9270C0CFB19661FFA83F8FF
:1077180047EA064609FB08F7B74202FA01F200FAFF
:1077280001FA08D9F61809F1FF3041D2B7423FD91A
:10773800A9F102091E44F61BA0B2B6FBFCF40CFB2F
:10774800146640EA064704FB08F8B84507D9FF184D
:1077580004F1FF3028D2B84526D9023C1F4444EA38
:107768000940C8EB0707A0FB02894F4544464E462F
:1077780014D329D065B3BAEB040367EB060707FAFD
:107788000EFECB40CF404EEA030385E88800002177
:10779800BDE8F0871346F8E61046E0E6B8EB0204C9
:1077A80069EB03060138E5E70446D8E7114695E793
:1077B8008146C0E78A467CE7023B3C4448E70846E6
:1077C8000AE702383E442FE7C245E7D33E46D1E7F1
:1077D8002946BDE8F08700BF704700BF10B5054CCB
:1077E80013462CB10A4601460220AFF3008010BDB3
:1077F800204610BD0000000010B5431E0A44914207
:1078080004D011F8014B03F8014FF8E710BD02440A
:107818000346934202D003F8011BFAE770470000C1
:1078280038B5124B1C68A36B0546D3B91820FDF771
:107838002DFC43F20E33A06303804AF6CD33438018
:1078480041F2342383804EF26D63C3804DF6EC63BE
:107858000381052343810B23838101220023C0E98F
:107868000423A36B00221D615A6138BDF4E1032093
:1078780010F8012B11F8013B012A28BF9A42F7D0D2
:10788800D01A7047024B0146186800F003B800BFD1
:10789800F4E1032070B5064608460C4600F00DF8E2
:1078A800451C29463046FDF711FC064618B12A4604
:1078B8002146FFF7A1FF304670BD034613F8012BA0
:1078C800002AFBD1181A0138704710B5034642B197
:1078D80011F8014B03F8014B013A002CF7D11A4477
:1078E80000E010BD934202D003F8014BFAE710BD47
:1078F8001D400D0059400D0085400D0089400D00C8
:10790800000000007061727469636C652F646576AD
:107918006963652F6E616D65004D657368446174B8
:1079280061546F706963006E756C6C0022225C5C38
:107938006208660C6E0A720D740900652D00747277
:1079480075650066616C736500636D64004C6967FA
:10795800687453656E736F72006D6574686F640048
:1079680067657400526F74617279416E676C655314
:10797800656E736F7200427574746F6E000000005C
:1079880000000000000000000B510D0011510D0017
:1079980039510D001D510D000D510D000000000062
:1079A80000000000DB560D00D1560D00C7560D0033
:1079B800BD560D00B1560D00A5560D0099560D0087
:1079C80091560D0087560D007D560D00255C0D0063
:1079D8000000000000000000F9560D0043570D009C
:1079E8001B570D00FB560D0023570D002B570D009C
:1079F80033570D003B570D00000000000000000049
:107A08008B570D007D570D007F570D0066006C6E7B
:107A180000666E00636F64650064657461696C007C
:107A28000D0A00253031307520005D20002C200023
:107A380028293A2000205B00636F6465203D200000
:107A480025690064657461696C73203D200062617A
:107A580075640053657269616C0053657269616C85
:107A680031007479706500706172616D006964003D
:107A7800686E64007374726D0066696C74006C766D
:107A88006C0061646448616E646C65720072656D57
:107A98006F766548616E646C657200656E756D48D9
:107AA800616E646C657273004A534F4E537472650D
:107AB800616D4C6F6748616E646C657200617070CF
:107AC800006E6F6E6500747261636500696E666F43
:107AD800007761726E006572726F720070616E6914
:107AE8006300616C6C0000000000000000000000F2
:107AF80003590D00F9580D00EF580D00E5580D0019
:107B0800D9580D00CD580D00C1580D00B9580D00B9
:107B1800AF580D00A5580D00255C0D006666303382
:107B28003A3A313A3130303100746831006D65735A
:107B38006870756200776972696E67007061727348
:107B480065207061636B6574202564000000000087
:107B580000000000BD5B0D00C75B0D00D15B0D0090
:107B6800DB5B0D00E55B0D00F15B0D00FD5B0D00BF
:107B7800095C0D00115C0D001B5C0D00255C0D00FF
:107B88000000000000000000DD5D0D00DF5D0D005D
:107B98005A00252B3033643A253032750025592D8B
:107BA800256D2D25645425483A254D3A2553257AC7
:107BB8000061736374696D650000000000000000D7
:107BC800000000006D650D0091650D004D5F0D0012
:107BD80077600D00455F0D00635F0D00815F0D004C
:107BE8009B5F0D00BF5F0D005B600D005D630D00C6
:107BF800FD600D007D620D002D5F0D0003650D0019
:107C080001620D0035610D0031650D00A1600D00A8
:107C18003B5F0D00DD600D00415F0D009D5F0D00B5
:107C2800F0FFFFFF00000000B75F0D00000000003C
:107C380000000000BB650D00DF650D00EB650D0061
:107C4800055D0D00C7650D00D3650D00CD650D0000
:107C5800D9650D00BD650D00C1650D00000000006F
:107C68000000000095660D00D9660D00B3660D0092
:107C7800055D0D00AD660D0097660D009F660D0051
:107C8800D3660D00A7660D0091660D000000000088
:107C980000000000000000000000000000000000DC
:107CA80000000000000000000000000000000000CC
:107CB80000000000000000000000000000000000BC
:107CC80000000000000000000000000000000000AC
:107CD800000000000000000000000000000000009C
:107CE8000000000000000000000000004300000049
:107CF8000D4C0D00E5560D0095580D00715B0D00FB
:107D0800F15C0D00C15D0D00015F0D00195F0D00F4
:107D180005690D0059690D001D6A0D00A16A0D0065
:087D2800256B0D0000000000B6
:087D3000CCF7FF7F0100000009
:107D3800000000000000F03F00000000000000000C
:107D4800000000000000000000000000000000002B
:107D5800000000000000000000000000000000001B
:107D6800000000000000000000000000000000000B
:107D78000000000000000000000000000000244097
:107D88000000000000005940000000000088C340C7
:107D98000000000084D797410080E03779C3414351
:107DA80000000000000000000000000000000000CB
:107DB80000000000000000000000000000000000BB
:107DC800B97B0D0000000000947C0D00B47C0D0010
:107DD800D47C0D000000000000000000000000003E
:107DE80000000000F47C0D0000000000000000000E
:107DF800000000000000000000000000000000007B
:107E0800000000000000000000000000000000006A
:107E1800000000000000000000000000000000005A
:087E28000000000094E10320BA
:107E3000FFFFFFFF00000102030405060708090A0F
:107E40000B0C0D0E0F101112131415161718191A0A
:087E50001B1C1D1E1F20280051
:047E58007856341212
:04000003D0004018D1
:00000001FF
