:020000040808EA
:10000000000008088C4F0808000006000A000501DF
:0800100004024E040000000090
:10001800044A080809480A4908B5884205D0094A27
:10002800824202D0121A04F055FC0748074A002100
:10003800121A04F05AFC064808BD00BF000400204C
:100048006C4E0808F8040020F8040020D40E0020A4
:10005800D40E002070B503F0D3FB074B074C1E46A7
:10006800E41AA4080025A54204D056F8253098477C
:100078000135F8E770BD00BF1C4E0808544E08084B
:1000880000F00AB908B501F04DFABDE8084003F0E0
:1000980079BB02F00BBA02F009BA02F00FBA02F00B
:1000A8000DBA0078B0FA80F0400970470123037058
:1000B8007047704710B508460C4604F084FC21468A
:1000C8000246034804F087FC024B01221A7010BD57
:1000D80074050020F8050020037823F07F031943F6
:1000E8000170704738B504460D468CB1E168A942E5
:1000F8000ED035B129B1284604F037FC10F0FF0FB7
:1001080006D0B4F90A3013B104EB0314EDE71C462A
:10011800204638BD10B502460C4648B105210830C6
:10012800FFF7DAFFE0B20021C2E90001012010BDAB
:1001380010BD10B502460C4650B1083021B103215C
:10014800FFF7CAFF146001E0FFF7C6FF012010BDEA
:1001580010BD10B54B688A6810339A4201D200204E
:1001680010BDA2F110038B60002BF8D0416819B1C3
:100178005C1A24114C8100E003600021436022F8DE
:10018800061C02F8081C42F8041C184610BD0000A2
:100198000B780BB9036002E0024B03600023436055
:1001A800704700BFBB00080830B544680A4443687C
:1001B8000568AB4207D2914205D05D1C456011F835
:1001C800015B1D70F3E700221A704068001B30BD08
:1001D80037B5174C00231022164902F0EBFE2246D1
:1001E800002302F8033F23706370A370A31C0192DD
:1001F80000932246631C10490E4802F06FF95820FC
:10020800FFF747FF054638B10C4B40F25B7200938D
:1002180021460F2301F09EFB094B0A4928461D6021
:1002280001F050FD084B012200201A7003B030BDC8
:10023800B4050020010B0020184A0808A518080872
:1002480070050020B80500200009002010B5064CF4
:1002580000232146102202F0ADFE40222146034829
:1002680004F0B9FB002010BD010B0020B8050020E8
:1002780008B510220023024902F09CFE002008BDA8
:10028800FB07002008B510220023024902F092FE65
:10029800002008BDFB06002010B586B002A802F0B9
:1002A80095F8002319222F4902A802F083FE0024A2
:1002B80002A802F014FE22460194009401232A4960
:1002C8002A4802F093F82A4B22461B7827498DF8D2
:1002D800003002A83C2302F0F7FA039C7CB1636863
:1002E800013B63605BB9236820469B689847A36815
:1002F800013BA3601BB923682046DB6898471D496A
:1003080002A802F033FE02A8FFF7A0FF02A802F03D
:10031800E6FD194902A802F029FE02A8FFF758FFD6
:1003280002A802F0DCFD0021012003F0B9FA002147
:100338000A2003F0B5FA114902A802F017FE02A834
:10034800FFF796FF02A802F0CAFD0D4902A802F0C5
:100358000DFE02A8FFF796FF02A802F0C0FD06B046
:1003680010BD00BF55050020BD000808244A080834
:10037800F9050020394A0808484A0808574A080871
:10038800614A080810B50A490A480B4C04F0F7FA04
:100398000A49084804F0DAFA206801F0AEFB28B1EF
:1003A8000449206801F080FE002010BD012010BD26
:1003B8006F4A0808FA05002070050020740500201F
:1003C80008B500F1200302460360436013B100F54D
:1003D800907100E0194691600BB102F5907302F13B
:1003E8001800D3600021FFF777FE104608BD2DE9FD
:1003F800F0410E4617460446C8B100F10808C1B1DD
:10040800084604F0E0FA7D68421CB968AB188B42D4
:100418000FD87B606DB13146284604F05BFA404640
:100428000421FFF759FE25600120BDE8F081BDE8F1
:10043800F08140460021FFF74FFE0020BDE8F08123
:1004480038B50246A0B1002900F108000C464FEA71
:10045800E17503DB0621FFF73FFE05E00721FFF703
:100468003BFE644265EB4505C2E90045012038BD05
:1004780038BD70B51646027A044612F07F020D4662
:1004880005D120210830FFF727FE22606260237A19
:1004980003F0200303F0FF0083B129462068FFF72B
:1004A80021FE00B170BD31462046FFF752FE28B14B
:1004B800037AC56003F07F03037270BD70BD40B15D
:1004C800037A03F07F03033B012B01D800687047D0
:1004D80000207047837B43B943685A1C42601B78ED
:1004E80023EAE373437301238373407B704770B53A
:1004F800044600252046FFF7EDFF0A2803D80928FF
:100508001DD2B0B12FE0202819D02F2802D00D28F5
:1005180029D114E0A5732046FFF7DCFF2A2802D072
:100528002F2816D01CE0A57300262046FFF7D2FF1F
:1005380010B94FF0010070BD2F2802D10EB1A5737C
:10054800D8E7A0F12A035E425E41A573EDE70A28C9
:10055800D0D0A5732046FFF7BDFF0028F7D1E8E704
:100568004FF0020070BD4FF0000070BD08B5027A70
:1005780002F0200202F0FF031AB10068FFF7B2FD93
:1005880008BD184608BD00002DE9F04104460F4695
:100598008668FFF79FFF80460025A5732046FFF772
:1005A80099FF80454FF00003A57326D018B94FF086
:1005B8000100BDE8F0815C281AD12046FFF78AFFC8
:1005C8000028F4D0752801D0124B06E04FF0040043
:1005D800BDE8F081904204D002331A78002AF9D19C
:1005E80005E0587818B94FF00200BDE8F081A5730E
:1005F800A3685A1CA2601870D0E7A268511CA160B9
:1006080013703E601EB94FF00300BDE8F081184634
:10061800BDE8F081814A0808A0F15F031B2B13D9BC
:10062800A0F14103192B0FD9A0F12B03DBB20E2B3C
:1006380004D9A0F12E0250425041704747F6E572A6
:1006480022FA03F3DB07F4D5012070472DE9F041C6
:1006580004460D46FFF73EFF27282CD022282AD033
:100668002046A768FFF736FF064608B3FFF7D4FF12
:10067800D8B14FF00008A36884F80E805A1CA26015
:1006880020461E70FFF726FF0646FFF7C5FF002825
:10069800F1D1A368002F03F10102A26018702F6046
:1006A8000CBF03200020BDE8F0810220BDE8F081E6
:1006B8000120BDE8F08129462046FFF765FFBDE827
:1006C800F08138B5044608460D4604F07CF9294601
:1006D80002462068FFF768FD63681844606038BD0B
:1006E80070B51B4D06462B681A4C13F0010F1AD132
:1006F8002846FFF7D6FCB0B10DA3D3E9002328465E
:10070800C4E90A230CA3D3E90023C4E90C230CA3EE
:10071800D3E90023C4E90E230BA3D3E90023C4E9DA
:100728001023FFF7C3FC04EBC604D4E9000170BD35
:10073800176E05B5B5B89346F5F93FE9034F384D3F
:10074800321D30F94877825A3CBF737FDD4F1575EB
:10075800500500204804002070B5334D06462B682C
:10076800324C13F0010F34D12846FFF79AFC0028C9
:100778002FD01BA3D3E900232846C4E900231AA3DA
:10078800D3E90023C4E9022319A3D3E90023C4E968
:10079800042319A3D3E90023C4E9062318A3D3E942
:1007A8000023C4E9082318A3D3E90023C4E90A23D2
:1007B80017A3D3E90023C4E90C2317A3D3E9002323
:1007C800C4E90E2316A3D3E90023C4E91023FFF7D5
:1007D8006DFC04EBC604D4E9000170BDAFF30080E2
:1007E8009A9999999999B93F7B14AE47E17A843FD0
:1007F8002D431CEBE2361A3F3A8C30E28E79453EA7
:10080800BC89D897B2D29C3C33A7A8D523F64939DE
:100818003DA7F444FD0FA5329D978CCF08BA5B2500
:10082800436FAC642806C80A0005002008050020AC
:100838002DE9F84F0B7804462B2B04D02D2B03D130
:100848000131012501E0013100250B78A3F13002C7
:10085800092A02D92E2B40F0AE80DFF800B2884674
:10086800002000214FF0993A4FF00A0CC6461EF8B6
:10087800013BA3F13002D2B2092A14D88B4508BF34
:10088800824511D30CFB01F3A0FB0C011944002392
:10089800D2B2DF43D6438F4208BF864204D38018C2
:1008A8005941F046E2E723B100234FF0FF36684F85
:1008B8000FE0C4E9000103F07FFB002DC4E9020149
:1008C8000CBF06230723B8E000230A2203F064FEC6
:1008D8004B468F4208BF864203F10109F4D3C8EBA7
:1008E800030303EB0806424618F8017B36B2A7F16A
:1008F800300EBEF1090FF4D92E2F1DD14FF00A0C7E
:10090800C6460FF24419D9E90089724617780EF1E4
:10091800010E303FFFB2092F0ED8894508BF804528
:10092800F3D3A0FB0C230CFB0133D01906F1FF36DF
:1009380043F1000136B2E8E7137803F0DF03452BF3
:1009480033D153782D2B03D1971C4FF0010E05E0BE
:100958002B2B14BF571C971C4FF0000E00234FF091
:100968000A083A4617F801CBACF1300C5FFA8CF95B
:10097800B9F1090F14D808FB03C3F218B2F59A7F2E
:10098800EFDD0022BEF1000F05D015B14FF0004396
:1009980050E000234EE00DB92E4B4BE02E4B49E0C2
:1009A800BEF1000F02D05B4200E0002392F80090F5
:1009B800B9F1000F09D000220023C4E90023002365
:1009C8000022C4E90223002337E01E4403F0F4FAAE
:1009D800002E80460F4612DDF2070BD55FFA89F02C
:1009E800FFF77EFE02460B464046394603F01AFBE7
:1009F80080460F46761009F10109EDD113E07642E1
:100A08008EB1F3070BD55FFA89F0FFF7A5FE024612
:100A18000B464046394603F005FB80460F467610E4
:100A280009F10109ECE715B107F1004100E0394689
:100A380042460B46C4E90223082323742046BDE836
:100A4800F88F00BFAFF300809899999999990100A0
:100A5800FFFF0F000000F07F0000F0FF999999193F
:100A68002DE9F04397B080460D46FFF733FD00248B
:100A78000746A1463846E6B2FFF7CEFD58B13F2CEF
:100A880009D006ABE75488F80E904046FFF722FDE0
:100A980001340746EEE716AB3344002403F8404C14
:100AA8009DF81830742B09D1052105F10800FFF7CE
:100AB80013FB01220023C5E9002310E0662B0CD1AB
:100AC80005F108000521FFF707FB00220023C5E90F
:100AD8000023701F18BF012024E06E2B01D1301FA6
:100AE800F8E706A96846FFF7A3FEDDE900679DF869
:100AF8001010072903D0082908D0062910D105F1BC
:100B08000800FFF7E9FAC5E9006707E005F1080002
:100B1800DDE90267FFF7E0FAC5E90067204601E072
:100B28004FF0020017B0BDE8F08370B588B00C46EE
:100B38000646FFF7DCFC01A98DF8040004A8FFF7BE
:100B480027FB049B002B3ED1059D15F001053AD1EA
:100B58003046FFF7BFFC272810D103A93046FFF71E
:100B680013FD02A98DF8080006A8FFF711FB069BE4
:100B780063BB079810F0010228D12AE007D8222881
:100B8800EBD021463046FFF76BFFC0B229E05B2867
:100B98000BD104F108004021FFF79EFA256065603B
:100BA8002146304600F01FF8EFE77B28E9D104F131
:100BB80008002021FFF790FA25606560214630463D
:100BC80000F077F8E1E79DF804000AE09DF80800D6
:100BD80007E004F108000421039DFFF77DFA1046A1
:100BE800256008B070BD70B5037B88B004460E461A
:100BF80013B94FF005005AE0FFF76CFC5B2810D1E1
:100C08000023A3732046FFF772FC01A98DF80400A6
:100C180002A8FFF7BDFA029BBBB9039BDA0714D4FD
:100C280016E04FF0020042E0237B2046013B23738D
:100C3800FFF77BFF237B8DF804000133237301A9A1
:100C480004A8FFF7A5FA049B53B19DF804002EE011
:100C58002046FFF73FFC5D2820D10020A07326E046
:100C6800059BDB07F1D42046FFF741FC01A98DF86D
:100C7800040006A8FFF78CFA069B002BE5D1079B1A
:100C880013F00105E1D12046FFF724FC5D28E4D0EC
:100C98002046FFF71FFC2C28C3D1A57321683046D6
:100CA800FFF757FA01460028BED14FF0030008B0FD
:100CB80070BDF0B5037B8FB004460F4613B94FF0F3
:100CC800050098E0FFF706FC7B287BD10023A3737F
:100CD8002046FFF70CFC69468DF8000002A8FFF7D4
:100CE80057FA029B002B4DD1039810F0010549D10A
:100CF8002046FFF7EFFB7D2817D1A57328467AE039
:100D08002046FFF7E7FB2C285CD10023A37320467D
:100D1800FFF7EDFB69468DF800000CA8FFF738FADD
:100D28000C9B7BBB0D9BDB072CD421683846FFF757
:100D380010FA054610B94FF003005CE001A92046FF
:100D4800FFF784FC69468DF8000004A8FFF720FA35
:100D5800049BBBB9059BD80714D42B7A204663F0B3
:100D68007F032B72019BEB60FFF7C1FB69468DF88F
:100D7800000006A8FFF70CFA069B1BB9079B13F0A7
:100D8800010602D09DF8000035E02046FFF7A2FBDF
:100D98003A2817D1237B2946013B2373A6732046A3
:100DA800FFF7C3FE237B8DF80000013323736946E8
:100DB80008A8FFF7EDF9089B002BE3D1099BD90799
:100DC80003D5DFE74FF0020015E02046FFF78FFB61
:100DD80069468DF800000AA8FFF7DAF90A9B002B8C
:100DE800D0D10B9BDA07CDD42046FFF773FB7D28C3
:100DF80086D10020A0730FB0F0BD10B503685A6803
:100E08001C68A2423FBF541C5C6011705B683CBF09
:100E180000221A70426834BF012300231344436040
:100E280010BD000070B505460C4619B91149FFF709
:100E380048FC70BD2221FFF7E0FF013C14F8011FB8
:100E480071B10D4B13F8026C7EB1023313F8032C09
:100E58008A42F7D15C212846FFF7CFFF314604E0EC
:100E680022212846FFF7C9FF70BD2846FFF7C5FFB6
:100E7800E4E700BF8C4A08087F4A080810B5044612
:100E8800521A0068FFF790F963681844606010BD53
:100E98002DE9F04186B00DF11604054616461F46A9
:100EA800A046304639460A22002303F075FB30324B
:100EB80004F8012D0023304639460A2203F06CFB62
:100EC80006460F4656EA0703EBD142462146284616
:100ED800FFF7D4FF06B0BDE8F08100000000000075
:100EE8002DE9F74F50A3D3E90023064603C803F0C2
:100EF8001FFB10B308244FF4807700252046D6E95D
:100F08000089FFF7EDFB02460B464046494603F0D1
:100F18000FFB60B12046FFF71FFC02460B46D6E9DF
:100F2800000103F07FF8C6E900013D442DB214F139
:100F3800FF344FEA6707E1D203E005464FF48077B4
:100F48000824D6E90089002200234046494603F0D8
:100F5800F9FA002861D036A3D3E900234046494670
:100F680003F0DCFA002858D00FF2CC0BDBE900AB19
:100F7800631C52D0D6E90023DFF8FC90CDE90023AA
:100F8800D9F80030DFF8F48013F0010F2BD1484670
:100F9800FFF787F838B32AA1D1E900012AA3D3E9DA
:100FA8000023C8E908012AA1D1E90001C8E90A011A
:100FB80029A1D1E90001C8E90C0129A1D1E9000161
:100FC800C8E90E0128A1D1E90001C8E91001484685
:100FD800C8E9022326A3D3E90023C8E906ABC8E978
:100FE8000423FFF763F8DDE9000108EBC403D3E944
:100FF800002303F089FA60B12046FFF771FB02462F
:101008000B46D6E9000103F00DF8C6E90001ED1B17
:101018002DB2013C7F1064B2AAE7284603B0BDE8B0
:10102800F08F00BFAFF3008000000000D0126341D2
:10103800F168E388B5F8E43E48AFBC9AF2D77A3E47
:101048001656E79EAF03D23C9A9999999999B93F58
:1010580080688965D63980390DD13196FC53DA32EA
:10106800C2DEB78145549125148BD77DB207FE0A9D
:10107800FCA9F1D24D62503FFC040020000400207E
:101088002DE9F04F194689B00746104615461C460B
:1010980003F030FA20B974493846FFF712FBDFE055
:1010A800002200232846214603F024FA68B92A467C
:1010B80023462846214602F003FE02460B462846F0
:1010C800214603F017FA0028E5D10022002328461C
:1010D800214603F019FA28B12D213846FFF78DFE75
:1010E80004F1004423462A4608A860E90823FFF7CC
:1010F800F7FEDDE9008904464946404603F02CFA2C
:1011080006460246DFF868A109230A215DB2092ACA
:1011180003F1FF33DBB204D9BAFBF1FAB2FBF1F207
:10112800F4E7304602F008FF02460B4640464946BF
:1011380002F0C4FD80465046894602F0FDFE024694
:101148000B464046494602F06DFF8046894603F04B
:1011580003FA834602F0F0FE02460B464046494633
:1011680002F0ACFD02460B4602F0AAFD03F0F4F9CA
:1011780000EB0B08C2450DD801363CB1092E07D942
:10118800013424B24FF00008012603E0A04601E034
:101198004FF000080A22B8FBF2F302FB138129B9C9
:1011A800002D03DD013D98466DB2F4E70DF11E01F7
:1011B8000A22B6FBF2F302FB1366303601F8016D22
:1011C8001E46002BF5D10DF11E023846FFF756FEDC
:1011D800D5B1E9B202ABC1F11000184406AB1A460A
:1011E8000A26834209D0B8FBF6F506FB158808F1F4
:1011F800300803F8018DA846F3E7511A2E2301F8A9
:10120800013D3846FFF73AFE002C12DA17493846F6
:10121800FFF757FA64420DF11E010A2294FBF2F31C
:1012280002FB1344303401F8014D1C46002BF5D164
:1012380011E015D065213846FFF7DFFD0DF11E01DD
:101248000A2294FBF2F302FB1344303401F8014DF7
:101258001CB2002CF5D10DF11E023846FFF70EFE28
:1012680009B0BDE8F08F00BF8C4A0808914A080809
:1012780000CA9A3BF8B5037A054603F07F03052BAD
:101288000C466CD008D8002B70D0022B58D90168B6
:101298002046FFF7C7FDF8BD082B17D00CD8062B42
:1012A80057D0072B62D1D0E900672D212046FFF7E0
:1012B800A4FD32463B464EE0202B1FD0402B55D193
:1012C8005B212046FFF799FD2D6813E0D0E9002344
:1012D8000846FFF7D5FEF8BD21462846FFF7CAFFA6
:1012E800B5F90A3043B115EB031505D02C2120467A
:1012F800FFF783FD002DEFD15D211DE07B21204606
:10130800FFF77BFD2D68B5B1E9682046FFF78AFD38
:101318003A212046FFF771FD21462846FFF7AAFF2C
:10132800B5F90A303BB115EB031504D02C21204642
:10133800FFF763FDE7E77D212046FFF75EFDF8BD77
:1013480090E806002068FEF72FFF63681844606085
:10135800F8BDD0E900232046FFF79AFDF8BDD0E993
:101368000023134314BF0449044900E004492046FC
:10137800FFF7A7F9F8BD00BF944A0808994A08087A
:101388008C4A08081FB501F2FF13009310304FF084
:10139800000301910B70CDF808D0039303D002A984
:1013A800FFF768FF03E0044902A8FFF78AF90398EA
:1013B80005B05DF804FB00BF8C4A080830B50A2068
:1013C800C9B002F0AAFA05466846FEF7F9FF6A4670
:1013D8001B4904A8FFF74DF86A461A49FFF707F8B2
:1013E8006A46194904A8FFF744F8184C6A46184990
:1013F800FEF7FDFF6A46174904A8FFF73AF82146A9
:10140800FEF797FE6A46144904A8FFF732F8134915
:10141800FEF78FFE6A46214604A8114CFFF729F80B
:101428002946FFF70DF821466846FFF7ABFF0D4B3D
:1014380022460D49186800F0C4FC002049B030BDB0
:101448009F4A080855050020344A0808C34A080876
:1014580074050020A84A0808B84A0808BF4A0808BE
:10146800010B002070050020FB07002030B501208B
:10147800C9B002F03FFA05466846FEF7A1FF6A4682
:101488001D4904A8FEF7F5FF6A461C49FEF7AFFFA1
:101498006A461B4904A8FEF7ECFF1A4C6A461A492B
:1014A800FEF7A5FF6A46194904A8FEF7E2FF2146A0
:1014B800FEF73FFE6A46164904A8FEF7DAFF15490B
:1014C800FEF737FE21466A4604A8FEF7D2FF124C03
:1014D800002DD4BF00210121FEF71CFE21466846DD
:1014E800FFF750FF0D4B22460D49186800F069FCC4
:1014F800002049B030BD00BF9F4A080855050020AC
:10150800344A0808D54A080874050020A84A08087B
:10151800B84A0808BF4A0808010B002070050020D7
:10152800FB07002010B5194C2378F3B100F0E2FD59
:10153800174C2368C01A41F28733984224D900F027
:10154800D9FD2060134C206800F0D7FA124B50B137
:1015580001221A70FFF732FFFFF788FF2068BDE805
:10156800104000F075BC187010BD0C4B1B785BB1B7
:101578000B4B1B7843B1074B186800F0BEFA18B143
:10158800FEF700FF0123237010BD00BFFA060020FC
:10159800FC0800207005002054050020F8050020F4
:1015A800000900202DE9F041ADF5567D56AB4EAC53
:1015B8004E934F930021D6AB54A850935193FEF706
:1015C8008BFD236800216360E36854A8A360FEF7DD
:1015D80083FDA24B52A90793089332238DF8243038
:1015E80006A800238DF826300694FFF79EFA02A974
:1015F8008DF8080004A8FEF7CBFD049B8BB9059B6A
:10160800DA070ED49DF825305BB1237E13F0600F06
:1016180007D103F07F03033B012B84BF02238DF81E
:1016280008309DF8083006A88DF80430FEF7C8FE8B
:1016380001A902A8FEF7ACFD029B894E002B40F0E1
:10164800DD80039BDB0700F1D980864952A8FEF7AD
:101658008DFFFEF734FF8449074652A8FEF786FF40
:10166800FEF72DFF8149054652A8FEF77FFFFEF7DA
:1016780026FF7F49804603F078F900285AD17D4932
:10168800284603F072F900283CD17A4952A8FEF79F
:101698006DFF50B3037A03F07F03033B052B24D877
:1016A800DFE803F016160303030A90E80C0013435F
:1016B80014BF0124002412E00022002303C84FF0C5
:1016C800010402F017FF08B14FF00004E4B206E08D
:1016D8000168694803F049F9B0FA80F4640924B153
:1016E8000121022002F0EDF804E00021022002F0BE
:1016F800E8F80024294606AA0AA8FEF7BAFE2146F9
:10170800FEF708FD06AA5D490AA8FEF7B2FE06AA7A
:101718005B49FEF76CFE06AA53490AA8FEF7A9FE24
:101728002946FEF706FD514906AA0AA8FEF7A1FEBA
:10173800414658E05349284603F017F970B90C2080
:1017480002F0EBF806AA484904460AA8FEF791FEFB
:101758004C49FEF7EEFC06AA4A4912E04A492846D7
:1017680003F003F9A0B90A2002F0D7F806AA3E4907
:1017780004460AA8FEF77DFE4349FEF7DAFC424913
:1017880006AA0AA8FEF775FE2146FEF759FE1BE0D9
:101798003E49284603F0E9F8B0B9012002F0BDF847
:1017A800044606AA30490AA8FEF763FE3749FEF741
:1017B800C0FC364906AA0AA8FEF75BFE002CD4BF77
:1017C80000210121FEF7A6FC06AA2C490AA8FEF76B
:1017D80050FE06AA2A49FEF70AFE244906AA0AA8C4
:1017E800FEF747FE2A49FEF7A4FC06AA1D490AA8E7
:1017F800FEF73FFE3946FEF79CFC20E006AA1F498B
:101808000AA8FEF736FE06AA1D49FEF7F0FD06AA4D
:1018180015490AA8FEF72DFE1A49FEF78AFC06AA02
:1018280012490AA8FEF725FE1949FEF782FC154958
:1018380006AA0AA8FEF71DFE6321FEF701FE154958
:1018480006A8FFF79FFD134A1349306800F0B9FA5C
:1018580000200DF5567DBDE8F08100BF010900208C
:1018680070050020E04A0808A84A0808B84A08088D
:10187800E54A0808DC4A0808944A0808344A08086F
:1018880074050020AC4A0808C34A0808D54A080865
:10189800BF4A0808010B0020FB060020054B10B5C5
:1018A8001846144603F016F800220255BDE8104009
:1018B800FFF778BE01090020024B01221A7000F0E0
:1018C80021BC00BFF905002038B50B4B84690546DB
:1018D80003607CB16368013B63605BB923682046A1
:1018E8009B689847A368013BA3601BB923682046FF
:1018F800DB689847284638BDD04C080810B5044620
:10190800FFF7E2FF2046FEF7C8FB204610BD38B5BA
:101918001D46059B044603630023436302B18264AA
:1019280019B104F1380001F034FB049BE069236528
:10193800069BA4F84C50FF2BB8BFFF23A4F85430E3
:1019480008B1FEF7ACFBB4F85400FEF7A4FBE06165
:1019580038BD00002DE9FF410446174698460E465B
:10196800002501F059FDE5610A4904F1380001F04C
:10197800FDFAFF2302930A9B20460193A564CDF844
:1019880000803B4632462946FFF7C1FF204604B097
:10199800BDE8F0818B4A080810B50446204601F0DE
:1019A800D6FB0028FAD0204601F086FBC0B210BD55
:1019B8002DE9F0470546C4698A46FFF7EDFF4FF069
:1019C800010846462070EB69002793F8009009F05B
:1019D800F0092846FFF7E0FFEB69741C985500F002
:1019E8007F0303FB08770306A4B2BFB24FEAC81807
:1019F80001D52646EDE7631EB9F1300F8AF80030AD
:101A080013D12846D5F81C80FFF7C6FF08F8040054
:101A18002846D5F81C80FFF7BFFFF41C0236B6B283
:101A2800A4B208F80600022300E000231B1B9EB2A4
:101A3800A3199BB29F420BD92846FFF7ADFFB5F813
:101A48005430A34284BFEB6918550134A4B2EFE7C0
:101A5800B5F85400A0422CBF20460020BDE8F0870E
:101A6800F7B507468E461E461D46002405F07F033F
:101A780002A9ED09214418BF43F08003013401F89D
:101A8800043CE4B2002DF1D1C4F10403D11802F8EA
:101A980003E0A54206DA01A82B1B285C1344587101
:101AA8000135F6E7721C2244384601F0B4FA0546BF
:101AB80000F020FB013478623444A8B2231A58425B
:101AC800584103B0F0BDF0B50D4602339BB26C1A15
:101AD80015F8016BA4B23EB1B0F854709F4203D917
:101AE8005C1CD654A3B2F2E7191B0A44211202F86F
:101AF800021C02F8014C1846F0BD38B5054601F045
:101B08001CFC002814BF0124002402D1284601F03F
:101B18005AFB204638BD00002DE9F04385B0044645
:101B2800894617461E46DDF83080FFF7E6FF054672
:101B3800002840F0BD80A16C39B90346B4F84C20A8
:101B4800A16B204601F08AFC09E001A801F0BCF86D
:101B58002B46B4F84C2001A9204601F04DFB002883
:101B680000F0A280012323849DF84430042B15D172
:101B7800524B18689A880190ADF808209B79E26961
:101B880001988DF80A30C2F80500531DBDF80810F9
:101B98009DF80A2099809A710C2312E0484B01AAFB
:101BA800186859681B7A03C2D4F81CC0137001ABBB
:101BB80003CBCCF80500CCF8091013788CF80D305D
:101BC8000E23B8F1000F0AD09DF838209DF8341084
:101BD800520142F0060242EAC102D2B200E00222F9
:101BE8009DF8401009B902F0FD022FB116B942F074
:101BF800800201E042F0C002E169581CCA54226D1B
:101C0800E16912120A54E169206D9A1C8854033361
:101C1800E26949462046FFF756FFB8F1000F0BD09E
:101C28000346E26941462046FFF74DFFE269034655
:101C38000F992046FFF747FF67B10346E269394627
:101C48002046FFF740FF2EB10346E26931462046A1
:101C5800FFF739FF431F9BB2E26910212046FFF7C7
:101C6800FFFE00F047FA4FF47A766062A0622046E1
:101C780001F06DFA40B900F03DFAA36AC01A236D6D
:101C880073439842F3D90FE001A92046FFF790FE6D
:101C9800042809D1E369DE7836B900F02BFA01256A
:101CA800A06284F82C6004E0204601F08CFA00E081
:101CB8000025284605B0BDE8F08300BFE94A0808BA
:101CC800F04A08087FB504230593012304930023F1
:101CD80003930293019300931A46FFF71DFF07B081
:101CE8005DF804FB2DE9F14F0D9E04468B469146A5
:101CF8009A469DF828809DF82C509DF83070FFF783
:101D0800FCFE00284BD0B4F854200021E06902F012
:101D1800ECFD0523E26959462046FFF7D4FE6B1E09
:101D2800012B12D8238CE26901339BB223841B1246
:101D38001354411CE369228C89B2023080B25A5490
:101D48001EB1238C5A1C22843380002291B283183E
:101D58008A459BB209D9B4F8546001329E4204D92D
:101D680019F80160E169CE54F0E7B8F1000F0CBF33
:101D7800302131210FB141F00801022D02D141F08B
:101D8800040103E0012D08BF41F002012046053B94
:101D9800E2699BB201B0BDE8F04FFFF761BE01B048
:101DA800BDE8F08F1FB5089C0394002402949DF8A9
:101DB8001C4001949DF818400094FFF793FF04B06D
:101DC80010BD7FB5054610460E46144602F0FBFDD1
:101DD8000023029301930093224603463146284686
:101DE800FFF7E0FF04B070BD38B504460D46FFF7B5
:101DF80084FE90B1E36962221A70E36902225A7084
:101E0800E3692A129A70E3690422DD70E1692046C9
:101E180001F001F9003018BF012038BD38B504467B
:101E28000D46FFF76AFE90B1E36972221A70E36902
:101E380002225A70E3692A129A70E3690422DD705B
:101E4800E169204601F0E7F8003018BF012038BDED
:101E58002DE9F04F83B000AF0446FFF74EFE8146F0
:101E6800002800F0F68000F045F9226D4FF47A73EF
:101E78005343A26A0546821A9A4203D8626A821AB2
:101E8800934217D294F82C302BB1204601F09BF9DD
:101E98004FF00009DDE0E269C0211170E2692046D7
:101EA8005370E169022201F0B6F801236562A56268
:101EB80084F82C30204601F04AF9002800F0C98047
:101EC800F91D2046FFF774FD0246002800F0C18086
:101ED800E369A562187800F0F00130297DD1D4F8C3
:101EE80030B0BBF1000F00F0B48097F807C0EA46A5
:101EF80003EB0C00817890F801E001EB0E2E1FFA3D
:101F08008EFE0EF1080121F00701ADEB010D6846C8
:101F180000218EB2B64506D90CEB01061E44F678B0
:101F280046540131F5E7002100F80E101E780CF137
:101F3800030106F00606022ECCEB02021ED1714404
:101F480013F8018019444978CEEB020201EB082806
:101F58000CF105017144053A1944D847E369402258
:101F68001A70E3691FFA88F85E70E3694FEA28225D
:101F78009A70E369042283F8038020E0042E24D1B8
:101F8800714413F8018019444978CEEB020201EB41
:101F980008280CF105017144053A1944D847E3694A
:101FA80050221A70E36902225A70E3691FFA88F80E
:101FB8004FEA28229A703246E36983F80380E16980
:101FC800204601F028F8656205E0033A7144CEEB3B
:101FD80002021944D847D5463BE0502908D19978E0
:101FE800DB78204603EB012189B2FFF7FDFE30E0E4
:101FF80040290CD0602908D19978DB78204603EB7A
:10200800012189B2FFF70AFF23E070290DD1616B26
:10201800F9B1042A1DD110F0060F1AD19878DB788F
:1020280003EB002080B2884713E0902911D0C02923
:102038000AD1D0221A70E36900225A70E16902229B
:10204800204600F0E8FF04E0D02904BF002384F80C
:102058002C3048460C37BD46BDE8F08F70B50446B5
:102068000E461546FFF749FDE8B1238C01339BB2B4
:1020780003B901232384238CE2691B125371E3699A
:10208800228C31469A71E26907232046FFF71BFD2F
:10209800E36982211D54031FE2692046BDE87040B0
:1020A8009BB2FFF7DDBC70BD0022FFF7D7BF00F081
:1020B80029B8000008B5024B1B689B6B019308BD4B
:1020C8002000060808B5024B1B68DB6B019308BDAE
:1020D8002000060808B5024B1B681B6B019308BD5E
:1020E800D001040808B5024B1B685B68019308BD62
:1020F8009C01040808B5024B1B685B69019308BD85
:102108009C01040808B5024B1B681B68019308BDB5
:10211800B001040808B5024B1B685B68019308BD51
:10212800B001040808B5024B1B689B68019308BD01
:10213800B001040808B5024B1B68DB68019308BDB1
:10214800B001040808B5024B1B681B69019308BD60
:10215800B001040808B5024B1B685B69019308BD10
:10216800B001040808B5024B1B681B6B019308BD3E
:10217800B001040808B5024B1B681B6A019308BD2F
:10218800AC01040808B5024B1B685B6A019308BDE3
:10219800AC01040808B5024B1B689B6A019308BD93
:1021A800AC01040808B5024B1B68DB6A019308BD43
:1021B800AC01040808B5024B1B681B6B019308BDF2
:1021C800AC01040808B5024B1B685B6B019308BDA2
:1021D800AC01040808B5024B1B681B6C019308BDD1
:1021E800AC01040808B5024B1B681B68019308BDC5
:1021F8002400060808B5024B1B685B68019308BDFC
:102208002400060808B5024B1B689B68019308BDAB
:102218002400060808B5024B1B68DB68019308BD5B
:102228002400060808B5024B1B681B69019308BD0A
:102238002400060808B5024B1B681B6A019308BDF9
:102248002400060808B5024B1B681B6B019308BDE8
:102258002400060808B5024B1B685B6C019308BD97
:102268002400060808B5024B1B68DB69019308BD0A
:10227800B401040808B5024B1B681B6A019308BD2A
:10228800B401040808B5024B1B689B69019308BD9B
:10229800C401040808B5024B1B685B6A019308BDBA
:1022A800C401040808B5024B1B689B6A019308BD6A
:1022B800C401040808B5024B1B68DB6A019308BD1A
:1022C800C401040808B5024B1B681B6B019308BDC9
:1022D800C401040808B5024B1B685B6B019308BD79
:1022E800C401040808B5024B1B689B6B019308BD29
:1022F800C401040808B5024B1B681B6C019308BD98
:10230800C401040808B5024B1B681B68019308BD8B
:102318001C00060808B5024B1B681B69019308BD21
:102328001C00060808B5024B1B685B69019308BDD1
:102338001C00060808B5024B1B689B69019308BD81
:102348001C00060808B5024B1B68DB69019308BD31
:102358001C00060808B5024B1B681B6A019308BDE0
:102368001C00060808B5024B1B681B6D019308BDCD
:10237800A001020808B5024B1B685B68019308BD01
:10238800A401040808B5024B1B68DB6C019308BD67
:10239800A401040808B5024B1B685B6D019308BDD6
:1023A800A401040808B5034B1B68D3F890300193C7
:1023B80008BD0000A401040808B5034B1B68D3F846
:1023C8009C30019308BD0000A401040808B5024B25
:1023D8001B68DB69019308BDCC01040808B5024BF2
:1023E8001B681B6A019308BDCC01040808B5024BA1
:1023F8001B685B6A019308BDCC01040808B5024B51
:102408001B68DB6B019308BDCC01040808B5024BBF
:102418001B685B68019308BDC801040808B5024B36
:102428001B689B68019308BDC801040808B5024BE6
:102438001B68DB68019308BDC801040808B5024B96
:102448001B681B69019308BDC801040808B5024B45
:102458001B685B69019308BDC801040808B5024BF5
:102468001B689B69019308BDC801040808B5024BA5
:102478001B68DB69019308BDC801040808B5024B55
:102488001B681B6A019308BDC801040808B5024B04
:102498001B681B6B019308BDC801040808B5024BF3
:1024A8001B685B6B019308BDC801040808B5024BA3
:1024B8001B681B68019308BDA001040808B5024BFE
:1024C8001B685B68019308BDA001040808B5024BAE
:1024D8001B689B68019308BDA001040808B5024B5E
:1024E8001B685B69019308BDA001040808B5024B8D
:1024F8001B68DB6A019308BDA001040808B5024BFC
:102508001B681B6B019308BDA001040810B5836804
:1025180004460BB901F083FAC3689847A3681BB156
:1025280003222146204698472046BDE81040FDF783
:10253800B4BD002211464068FFF780BF2DE9FF4176
:10254800002604AC054610468846174644F8046D34
:1025580002F039FA009681B2D8F80430224638469B
:10256800FFF7B0FD20B13146284600F083FB03E0B9
:102578002146284600F076FB284604B0BDE8F081E5
:10258800002211464068FFF779BF002211464068D3
:10259800FFF784BF00224068FFF778BF002281F070
:1025A80001014068FFF762BF00231A4619464068D8
:1025B800FFF754BF00231A4619464068FFF746BF85
:1025C800002211464068FFF729BF00220221406817
:1025D800FFF72CBF00231A464068FFF717BF00001B
:1025E80038B50C4C28252A460021204602F07DF9F2
:1025F8004FF0FF3363602580074C04232046636057
:10260800064B2C2540F8083B2A46002102F06DF9BC
:10261800258138BD380D0020040D0020044B080822
:1026280070470020704710B50446FDF736FD204678
:1026380010BD08B508B1FFF7F6FF08BD10B58368EF
:10264800044613B1032201469847204610BD38B509
:10265800C468D4B12378022B02D1E068FFF72EFFBB
:1026680065682DB12846FFF7E9FF2846FDF715FDF7
:10267800A5682DB12846FFF7E1FF2846FDF70DFDB7
:102688002046BDE83840FDF708BD38BD38B50468B8
:1026980005467CB16368013B63605BB923682046EB
:1026A8009B689847A368013BA3601BB92368204631
:1026B800DB689847284638BD13B5044691E80500FD
:1026C80000234B600B602060626001A801930093B7
:1026D800FFF7DCFF204602B010BD0B68036013B1A2
:1026E8005A6801325A607047F7B50C4606460F46DD
:1026F80054F8043B02AD45F8083D214601A8FFF710
:10270800ECFF29463046FFF7D7FF01A8FFF7BEFFC9
:102718002046FFF7BBFF3846FDF7BFFC304603B045
:10272800F0BD13B50B46044603C88DE8030093E8D3
:10273800030084E803009DE8030083E8030002B077
:1027480010BD826810B50AB901F069F9C368BDE81F
:102758001040184708B5006800F11001FFF7F1FFB5
:1027680008BD826810B50AB901F059F9C368BDE817
:102778001040184708B5006800F11001FFF7F1FF95
:1027880008BD38B5002383608B6804460D462BB11D
:1027980002229847EB68E360AB68A360204638BD27
:1027A8002DE9F0414FF69C7304684FF0020086B0A3
:1027B800B1F904208B8000230F688DF800300B607E
:1027C800D4E84F1F994203D1C4E8450F002DF7D133
:1027D80002D08DF800106BE014F10C051CBFE76007
:1027E8002282BFF35F8F18BF1F4601236370BFF3B8
:1027F8005F8F04F10803002053E8006F43E80002EC
:10280800002AF9D1BFF35F8F002E51D0FFF7BAFD30
:1028180020B129463046FFF794FF43E03146684629
:10282800FFF7AFFFE068B4F9105008B102F0B0F854
:1028380004901020ADF81450FDF72BFC054630B37A
:102848004FF00008C0F808801820FDF722FC044665
:10285800C0B1C0F8088001466846FFF762FF029BD6
:10286800A268A360039B0292E268E360BDF814309B
:102878000392A3824FF69C73ADF81430049BCDF8F5
:10288800108023610D4B2C60EB600D4BAB600498FE
:10289800FFF714FE6846FFF7D1FE002229460948D3
:1028A800FFF778FD3046FFF7C9FE3046FDF7F5FB28
:1028B8003846FFF703FE06B0BDE8F0815D2708083B
:1028C800B9290808152508082DE9F04F8BB007AD80
:1028D8004FF0000B0646994614200C230F469046ED
:1028E8009DF850A0C5F804B0C5F808B00793FDF7E7
:1028F800D0FB044638B180F800B080F801B0C0F8C9
:1029080004B0C0F808B00023102003940493FDF726
:10291800C0FB28B1012343608360234BC46003607C
:10292800224B049008200893FDF7B3FB044628B116
:10293800039B04A940F8043BFFF7CFFE00955FFA1C
:102948008AF34A46414638460994FFF747FDB8B925
:10295800039B5B7803F0FF0293B94FF69C7305A9BC
:1029680003A80592ADF81830FFF71AFF0598FFF78E
:10297800A5FD05A80999FFF7B7FE06A8FFF786FE8B
:10298800039B04A906A80593FFF7A7FE05A93046EF
:10299800FFF792FE06A8FFF779FE04A8FFF776FE78
:1029A80030460BB0BDE8F08F384B0808212B0808DB
:1029B800022AF8B5044606D0032A17D0012A20D1E6
:1029C8000B6803601DE018200E68FDF762FB0546E2
:1029D80050B13146FFF7D5FE3069B6F9147008B129
:1029E80001F0D6FF2861AF8225600AE0046844B18F
:1029F8002069FFF763FD2046FFF720FE2046FDF71C
:102A08004CFB0020F8BD38B5002383608B68044672
:102A18000D462BB102229847EB68E360AB68A360D0
:102A2800204638BD022A70B5044606D0032A11D0C4
:102A3800012A17D10B68036014E014200E68FDF713
:102A480028FB054620B13146FFF7DDFF337C2B74A8
:102A5800256007E004682CB12046FFF7EFFD20460B
:102A6800FDF71BFB002070BDF0B50C46BFF35F8F70
:102A780087B0002350E8006F40E80032002AF9D1FF
:102A8800BFF35F8F002E3ED01846FFF77BFC07464A
:102A980020B121463046FFF764FE2EE0314601A8FA
:102AA800FFF7B1FF237810208DF81430FDF7F1FA05
:102AB8000546D0B187601420FDF7EBFA044678B1DB
:102AC8008760014601A8FFF72CFE039BA268A3605C
:102AD800049B0392E268E3609DF814300492237427
:102AE8000A4B2C60EB600A4BAB6001A8FFF7A6FD10
:102AF800002229460748FFF74DFC3046FFF79EFDA8
:102B08003046FDF7CAFA07B0F0BD00BF7D270808B8
:102B18002D2A08081525080830B5044685B00D4645
:102B280068461146FFF7E0FD7CB124B228460DB196
:102B380001F02EFF029002A96846ADF80C40FFF79D
:102B48002FFE0298FFF7BAFC1DE04FF00102009833
:102B58008DF80840D0E84F3FA34203D1C0E8412F89
:102B68000029F7D102D08DF808300CE010F10C01E3
:102B78004FF0010318BF0373BFF35F8F043000F8F1
:102B8800033CFFF771FF01A8FFF780FD05B030BDDA
:102B98007047F8B5064615460C468F18BC4206D055
:102BA800336814F8011B9B6830469847F6E72846B7
:102BB800F8BD0022007CFFF7DDBA0021007CFFF79A
:102BC800E1BA0021007CFFF7E5BA0021007CFFF79D
:102BD800E9BA0021007CFFF7EDBA10B50446FDF70D
:102BE8005CFA204610BD000010B5044608464FF4B4
:102BF8007A73A360044B0021207461602360FFF79F
:102C0800E9FA204610BD00BF544B08080021007C9B
:102C1800FFF7D8BA704710B50446FDF73EFA2046CC
:102C280010BDF8B50F4600F10806051D002416F87A
:102C3800011D0A22384600F01CF9AE42044407D0B0
:102C4800002CF4D02E21384600F0E6F80444EEE7D4
:102C58002046F8BD024A026000224260704700BF69
:102C68007C4B0808024A02600A684260704700BF4D
:102C78007C4B0808014A4160026070477C4B080899
:102C880010B59DF8084044EA032343EA024242EAA9
:102C98000161416010BD000037B5044D05609DF825
:102CA80018500095FFF7ECFF03B030BD7C4B0808C7
:102CB80037B50D788B784A78C97800912946FFF79F
:102CC800DFFF03B030BD000010B50446024B0360BF
:102CD800FFF7EEFF204610BD7C4B0808014A024B67
:102CE8001A6070473C4C0808600D002000231A4603
:102CF8004068FFF78BBB002202214068FFF796BBB4
:102D0800002211464068FFF789BB0022114640683F
:102D1800FFF794BB00231A4619464068FFF796BB95
:102D280000231A4619464068FFF798BB002281F035
:102D380001014068FFF79ABB00224068FFF7A6BB75
:102D4800002211464068FFF7A9BB002211464068DF
:102D5800FFF794BBF0B5174687B0054604A8FFF700
:102D680079FF002606AC384644F80C6D01F02BFEBE
:102D78000A4B009681B25B6822463846FFF7A2F9F3
:102D880020B131462846FFF775FF03E02146284663
:102D9800FFF768FF284607B0F0BD00BF040D00200C
:102DA800034B044A04280CBF10461846704700BF5E
:102DB800640D0020040D0020024B034A1A60002213
:102DC8005A607047640D0020704C0808F8B5064634
:102DD8000D468F180024BD420CD0336815F8011B2E
:102DE8009B6830469847002801DB0444F3E7002C31
:102DF80008BF04462046F8BD70B505460C4608468F
:102E080049B101F0E0FD2B68024621462846BDE89D
:102E18007040DB68184770BD03689B681847012A33
:102E280098BF0A2230B50B468BB000218DF82410CC
:102E38000DF12304B3FBF2F505FB1233DBB2092BCA
:102E480094BF30333733DBB2214604F801392B46BF
:102E5800002DEFD1FFF7D0FF0BB030BD10B422B971
:102E68000368C9B29B6810BC1847D2B210BCFFF700
:102E7800D6BFFFF7F3BF10B50446FFF7DFFB2046C8
:102E880010BD0000034800238360034A034900F093
:102E9800C1BD00BF6C0D0020F80400207F2E08087B
:102EA800704710B50446FDF7F8F8204610BD00003D
:102EB80070B504460E46074B0025036040F80C5FCA
:102EC800FFF708F930462671FFF7CCF9A5602046D0
:102ED80070BD00BFA44C08080079FFF7CBB910B546
:102EE80004460068FFF7EAFA204610BD10B504460C
:102EF800006808B1FFF7E2FA00232360A36063606B
:102F080010BD38B504460D4600680131FFF7DEFAFA
:102F180010B184E82100012038BD10B503680446CB
:102F280013B143688B4207D22046FFF7EAFF20B16E
:102F3800A3680BB922681370012010BD70B50E4646
:102F4800114604461546FFF7E8FF18B92046FFF773
:102F5800CDFF09E02A463146A560206801F0BAFC99
:102F68002268A3680021D154204670BD38B50023DB
:102F7800044603604360836003730D4639B1084615
:102F880001F021FD294602462046FFF7D7FF2046DB
:102F980038BD38B505460C4641B1084601F013FD69
:102FA800214602462846FFF7C9FF01E0FFF79EFFCA
:102FB800284638BD70B50E469AB191B185689D42D4
:102FC80002D800230B7070BD541EED1AAC4228BF06
:102FD8002C46016822461944304601F0FCFC0023C7
:102FE800335570BD4FF6FF72034B002018705880A0
:102FF8009A80FFF7BFB900BF7C0D002037B502AC3F
:10300800036804F8011DDD6B012247F230532146A5
:10301800A84703B030BD10B40368DC6B47F23053E7
:10302800A44610BC604737B502AC036804F8011D1C
:10303800DD6B214613460122A84703B030BD704717
:103048004A6903490160D2F88C204260704700BF8A
:103058007C4B080870470020704710B50446FDF700
:103068001CF8204610BDFDF718B810B504460368D3
:103078009B689847A368013BA3602BB92368204647
:10308800BDE81040DB68184710BD10B54369044619
:10309800B3F88620B3F884309A4205D06269B2F852
:1030A80084301344187910BD03681B6998470028B9
:1030B800F4D14FF0FF3010BD10B543690446B3F8A2
:1030C8008620B3F884309A4208D06269B2F8843016
:1030D800591CA2F884101344187910BD03681B69A1
:1030E80098470028F1D14FF0FF3010BDF8B543697B
:1030F8001746B3F88620B3F8843005469A420E4640
:1031080006D103681B69984710B94FF0FF3414E0E3
:1031180069693046B1F88430B1F886401944E41A38
:10312800BC4228BF3C460431224601F0D3FB6A6901
:10313800B2F884302344A2F884302046F8BD4269AE
:103148000023A2F884304269A2F88630704738B567
:1031580042690446B2F886301BB1B2F884209A421C
:103168000CD02069FFF71CFE0368DB68984718B38A
:1031780063691868FFF73EF818B91DE0FFF7DFFF2D
:10318800EFE76069B0F886107F2915D8051DC1F1F1
:103198008002002329440068FFF744F800280BDD6B
:1031A8006369B3F886200AB9A3F884206269B2F883
:1031B80086301844A2F886006269B2F88630B2F800
:1031C8008400181A38BD38B5436904461868FFF7F3
:1031D80011F818B163691868FFF72CF86569FFF7EB
:1031E80031F8286063690022C3F88C202046BDE8C6
:1031F8003840FFF7A4BF00002DE9F0411E460368E0
:103208008AB0DB6A04460D46174698473046FFF7F2
:10321800C7FD0368DB689847002850D000963B46F6
:10322800062201210220D4F81480FEF7EBFF2023A8
:10323800C8F8000000260293636903961B68012002
:103248000193204B02AA00931F493346FFF78AF8DF
:1032580063691868FEF7CEFF88B32046FFF76FFF53
:103268000223ADF808303B0A8DF80A30EB794FF4A9
:10327800FA508DF80C30AB798DF80B708DF80D3055
:103288006B798DF80E302B798DF80F30FEF712FF21
:1032980063691022804602A91868FEF7BBFF07463B
:1032A8004046FEF707FF63696A68C3F88C202FB1B0
:1032B80023682046DB6A9847304600E001200AB0C0
:1032C800BDE8F0811B4D0808144D080810B5436986
:1032D80004461868FEF78EFF08B9002010BD206963
:1032E800FFF75EFD0368DB6898470028F5D063693F
:1032F8001868FEF777FFB0FA80F0400910BD2DE995
:10330800F3410025456004460E4617469846FFF7E8
:10331800DDFF60B160690195CDF800802B463A4623
:1033280031460068FEF796FF002803DA01E04FF007
:10333800FF30606002B0BDE8F08138B50446FFF7A1
:10334800C5FF00BB6369B3F88610B3F884209142C7
:1033580019D11868FEF74EFF28B163691868FEF79F
:1033680041FF012801D000250EE0236820461B6993
:103378009847002814BF0125002505D12368204659
:10338800DB6A984700E00125284638BD08B5FFF7F5
:103398009DFF003018BF012008BD10B5044600236A
:1033A8000160A0F88430A0F886308830FFF752FC1E
:1033B800204610BD4FF47A7270B58260144A00231B
:1033C8004360026043618361044690200E46FCF727
:1033D80060FE054610B13146FFF7DFFF1420FCF709
:1033E80058FE034628B1012242608260094A0561FD
:1033F8000260A0696561A36128B14368013B43602D
:103408000BB9FFF732FE2046FFF799FE204670BD44
:10341800D04C0808B44C080810B50446FEF712FF53
:1034280001462046FFF7C6FF204610BD10B50446EA
:103438000068FEF7DFFE10B12068FEF7FBFE2046AD
:1034480010BD10B504692046FFF7F0FF24B12046EF
:10345800BDE81040FCF721BE10BD0000F0B51D46C8
:10346800036887B0DB6A04460E461746984710483B
:10347800FFF74BFCC8B102A8FFF7ECFB304601F0A0
:10348800A2FA0023009381B22B4603AA3046FEF726
:1034980019FE50B923683A461E6A064B04A90493DC
:1034A800039B204605932B46B04707B0F0BD00BFED
:1034B800640D00207C4B0808024B1A68024B1A6006
:1034C800704700BF90040020840D002070474174AD
:1034D8007047007CFEF70EBF007CFEF7E3BE007C61
:1034E800FEF7F0BE007CFEF7E5BE007CFEF7F2BEFC
:1034F80010B50446FCF7D1FD204610BD70B5457CDB
:1035080004460E4625B9007CFEF7F4FE002805DDCA
:103518003146207CBDE87040FEF7BCBE284670BD31
:1035280010B5044608461146002262604FF47A72CC
:10353800A260054A20742260012262741A46FEF7CE
:10354800A1FE204610BD00BF604D0808007CFEF7B4
:10355800C9BE0000F8B5194C25684DB98420FCF7A0
:1035680098FD064618B18422294601F0BEF9266066
:10357800134D2E684EB98420FCF78BFD074618B111
:103588008422314601F0B1F92F600E4F396811F0ED
:10359800010611D13846FCF784FD68B1226831462E
:1035A8002B680948FFF7BCFF3846FCF77FFD074A40
:1035B8000749054800F02EFA0348F8BDA40D00207D
:1035C8009C0D0020A00D0020880D0020F80400208C
:1035D800D53408084174704770470021007CFEF715
:1035E800A9BE0121007CFEF7A5BE007CFEF79ABEAD
:1035F800007CFEF78FBE38B50446007C0D46FEF70A
:1036080091FE002801DC607C20B12946207CFEF771
:1036180099FE012038BD007CFEF79CBE10B504461B
:10362800FCF73BFD204610BD10B50446002363603F
:103638004FF47A73A360054B084623600123217475
:1036480063741146FEF75EFE204610BD904D0808D3
:1036580010B504461422002101F047F9204610BD98
:1036680030B50E4D87B001A8FFF7F2FF296811F0B9
:10367800010410D12846FCF714FD60B101AA2146C7
:103688000748FFF7D1FF2846FCF710FD054A064911
:10369800034800F0BFF9024807B030BDA80D00206C
:1036A800B00D0020F8040020E135080810B50446E4
:1036B8001422002101F019F9204610BD10B50E4C56
:1036C80086B001A8FFF7F2FF2368DB0710D4204675
:1036D800FCF7E7FC60B101AA01210848FFF7A4FF45
:1036E8002046FCF7E3FC064A0649044800F092F934
:1036F800024806B010BD00BFAC0D0020C40D00206C
:10370800F8040020E135080808B5184B33B1FFF775
:10371800A7FF03681B69984700281EDC144B33B1C8
:10372800FFF718FF03681B699847002818DC114B3E
:103738000BB1AFF30080104B0BB1AFF300800F4B10
:103748000BB1AFF300800E4B7BB1FFF7B7FF0368F7
:103758001B699847002806DC08BDAFF30080DDE749
:10376800AFF30080E3E7AFF3008008BD000000007E
:103778000000000000000000000000000000000041
:103788000000000008B5FFF7BFFFFEF7B3FC014BD0
:10379800186008BDE00D00200248034A0349121AC8
:1037A80001F098B80040024004400240684E080802
:1037B80007B5002300931A466FF07701FEF7FCFD6A
:1037C80003B05DF804FB000007B543880A2B08D056
:1037D800502B09D1094B1B683BB103B05DF804EBD2
:1037E8001847FFF7E5FF06E0002300931A466FF03D
:1037F8007701FEF7E1FD03B05DF804FBD80D00206A
:1038080038B5104C104D2368AB42104B0CBF012249
:1038180000221A7002D0FFF7BFFF2560FEF762FC96
:10382800044601F06BF80A4B13B12046AFF3008051
:1038380000210748FEF7E2FDBDE8384000210548B1
:10384800FEF7B0BD004002401E1C279ADC0D002088
:1038580000000000D137080810B504460F48FFF7EC
:103868003BFB28B1A4F10D03022B01D8002010BDA9
:1038780000F06AF8FFF7CAF908B1012CF6D9FFF78A
:1038880069FEFFF763FE18B1A4F11203012BEDD90D
:103898002E2C8CBF0020012010BD00BF040E00207C
:1038A8002E2838B504460D460AD8FF2908D0FFF758
:1038B800D3FF28B129462046BDE83840FEF732BC80
:1038C80038BD38B504460D46FEF734FCFF2810D045
:1038D800062804D84D2323FA00F0C30709D420464C
:1038E800FFF7BAFF28B129462046BDE83840FEF761
:1038F80029BC38BD10B50446FEF71CFC0438C0B21C
:10390800012808D92046FFF7A7FF20B12046BDE8C7
:103918001040FEF71FBC002010BD10B50446092852
:103928009CBF0A34A4B22046FFF796FF50B103218A
:103938002046FEF7EFFB032804D12046BDE81040DF
:10394800FEF710BC002010BD38B50B4D296811F0EA
:1039580001040FD12846FCF7A4FB58B121460748BB
:10396800FFF742F92846FCF7A1FB054A0549034839
:1039780000F050F8014838BDE40D0020E80D0020A3
:10398800F8040020992B080813B5084C00231A46A0
:10399800194600932046FFF77FF92046044A054957
:1039A80002B0BDE8104000F035B800BFFC0D0020A3
:1039B800F80400201D2C080870B5114E114D124C4A
:1039C80000213046FFF774FA3046104E2A46214649
:1039D80000F020F801213046FFF76AFA30460C4E15
:1039E8002A46214600F016F802213046FFF760FA11
:1039F8002A4621463046BDE8704000F00BB800BFAB
:103A0800040E0020F8040020A92E0808140E002037
:103A1800240E00200B460146184600F04DBF08B59D
:103A2800FEF764FD244B1A68D0075CBF01221A60B8
:103A3800224B1A68D1075CBF01221A60204B1A6812
:103A4800D2075CBF01221A601E4B1A68D0075CBF00
:103A580001221A601C4B1A68D1075CBF01221A6048
:103A68001A4B1A68D2075CBF01221A60184B1A68F1
:103A7800D0075CBF01221A60164B1A68D1075CBFD9
:103A880001221A60144B1A68D2075CBF01221A601F
:103A9800124B1A68D0075CBF01221A60104B1A68D3
:103AA800D1075CBF01221A600E4B1A68D2075CBFAF
:103AB80001221A60704700BF600E00205C0E0020D3
:103AC800580E0020540E0020500E00204C0E0020EE
:103AD800480E0020440E0020400E00203C0E00201E
:103AE800380E0020340E0020184B1A68D1075CBF2E
:103AF80001221A60164B1A68D2075CBF01221A60AD
:103B0800144B1A68D0075CBF01221A60124B1A685E
:103B1800D1075CBF01221A60104B1A68D2075CBF3C
:103B280001221A600E4B1A68D0075CBF01221A6086
:103B38000C4B1A68D1075CBF01221A600A4B1A683D
:103B4800D2075CBF01221A60704700BF800E0020B8
:103B58007C0E0020780E0020740E0020700E0020CD
:103B68006C0E0020680E0020640E0020184B1A68A6
:103B7800D1075CBF01221A60164B1A68D2075CBFD6
:103B880001221A60144B1A68D0075CBF01221A6020
:103B9800124B1A68D1075CBF01221A60104B1A68D1
:103BA800D2075CBF01221A600E4B1A68D0075CBFAF
:103BB80001221A600C4B1A68D1075CBF01221A60F7
:103BC8000A4B1A68D2075CBF01221A60704700BF0F
:103BD800A00E00209C0E0020980E0020940E0020BD
:103BE800900E00208C0E0020880E0020840E0020ED
:103BF800244B1A68D0075CBF01221A60224B1A684E
:103C0800D1075CBF01221A60204B1A68D2075CBF3B
:103C180001221A601E4B1A68D0075CBF01221A6085
:103C28001C4B1A68D1075CBF01221A601A4B1A682C
:103C3800D2075CBF01221A60184B1A68D0075CBF14
:103C480001221A60164B1A68D1075CBF01221A605C
:103C5800144B1A68D2075CBF01221A60124B1A680B
:103C6800D0075CBF01221A60104B1A68D1075CBFED
:103C780001221A600E4B1A68D2075CBF01221A6033
:103C8800704700BFD00E0020CC0E0020C80E0020C8
:103C9800C40E0020C00E0020BC0E0020B80E00206C
:103CA800B40E0020B00E0020AC0E0020A80E00209C
:103CB800A40E002081F0004102E000BF83F0004321
:103CC80030B54FEA41044FEA430594EA050F08BFAF
:103CD80090EA020F1FBF54EA000C55EA020C7FEA73
:103CE800645C7FEA655C00F0E2804FEA5454D4EBF0
:103CF8005555B8BF6D420CDD2C4480EA020281EABA
:103D0800030382EA000083EA010180EA020281EAF1
:103D18000303362D88BF30BD11F0004F4FEA013143
:103D28004FF4801C4CEA113102D0404261EB410152
:103D380013F0004F4FEA03334CEA133302D05242D8
:103D480063EB430394EA050F00F0A780A4F1010494
:103D5800D5F1200E0DDB02FA0EFC22FA05F28018CE
:103D680041F1000103FA0EF2801843FA05F35941B4
:103D78000EE0A5F120050EF1200E012A03FA0EFC33
:103D880028BF4CF0020C43FA05F3C01851EBE3715D
:103D980001F0004507D54FF0000EDCF1000C7EEB7A
:103DA80000006EEB0101B1F5801F1BD3B1F5001FB8
:103DB8000CD349085FEA30004FEA3C0C04F10104D7
:103DC8004FEA445212F5800F80F09A80BCF1004F00
:103DD80008BF5FEA500C50F1000041EB045141EA82
:103DE800050130BD5FEA4C0C404141EB010111F483
:103DF800801FA4F10104E9D191F0000F04BF01462E
:103E08000020B1FA81F308BF2033A3F10B03B3F10B
:103E180020020CDA0C3208DD02F1140CC2F10C029B
:103E280001FA0CF021FA02F10CE002F11402D8BFF9
:103E3800C2F1200C01FA02F120FA0CFCDCBF41EAC5
:103E48000C019040E41AA2BF01EB0451294330BD94
:103E58006FEA04041F3C1CDA0C340EDC04F1140471
:103E6800C4F1200220FA04F001FA02F340EA030048
:103E780021FA04F345EA030130BDC4F10C04C4F18E
:103E8800200220FA02F001FA04F340EA030029466E
:103E980030BD21FA04F0294630BD94F0000F83F4B8
:103EA800801306BF81F480110134013D4EE77FEA9B
:103EB800645C18BF7FEA655C29D094EA050F08BFE7
:103EC80090EA020F05D054EA000C04BF19461046C8
:103ED80030BD91EA030F1EBF0021002030BD5FEA0C
:103EE800545C05D14000494128BF41F0004130BD34
:103EF80014F580043CBF01F5801130BD01F0004588
:103F080045F0FE4141F470014FF0000030BD7FEAFA
:103F1800645C1ABF194610467FEA655C1CBF0B46F5
:103F2800024650EA013406BF52EA033591EA030F0C
:103F380041F4002130BD00BF90F0000F04BF002104
:103F4800704730B54FF4806404F132044FF0000537
:103F58004FF0000150E700BF90F0000F04BF0021B0
:103F6800704730B54FF4806404F1320410F0004516
:103F780048BF40424FF000013EE700BF42004FEA11
:103F8800E2014FEA31014FEA02701FBF12F07F438E
:103F980093F07F4F81F06051704792F0000F14BF8B
:103FA80093F07F4F704730B54FF4607401F00045CF
:103FB80021F0004120E700BF50EA010208BF704726
:103FC80030B54FF000050AE050EA010208BF70471B
:103FD80030B511F0004502D5404261EB41014FF484
:103FE800806404F132045FEA915C3FF4DCAE4FF088
:103FF80003025FEADC0C18BF03325FEADC0C18BF6F
:10400800033202EBDC02C2F1200300FA03FC20FABF
:1040180002F001FA03FE40EA0E0021FA02F114440C
:10402800C1E600BF70B54FF0FF0C4CF4E06C1CEA21
:1040380011541DBF1CEA135594EA0C0F95EA0C0F96
:1040480000F0DEF82C4481EA030621EA4C5123EA09
:104058004C5350EA013518BF52EA033541F4801138
:1040680043F4801338D0A0FB02CE4FF00005E1FBEB
:1040780002E506F00042E0FB03E54FF00006E1FB35
:1040880003569CF0000F18BF4EF0010EA4F1FF0478
:10409800B6F5007F64F5407404D25FEA4E0E6D41B8
:1040A80046EB060642EAC62141EA55514FEAC520C9
:1040B80040EA5E504FEACE2EB4F1FD0C88BFBCF545
:1040C800E06F1ED8BEF1004F08BF5FEA500E50F1F6
:1040D800000041EB045170BD06F0004646EA0101BC
:1040E80040EA020081EA0301B4EB5C04C2BFD4EBEE
:1040F8000C0541EA045170BD41F480114FF0000EE7
:10410800013C00F3AB8014F1360FDEBF002001F054
:10411800004170BDC4F10004203C35DA0C341BDCCE
:1041280004F11404C4F1200500FA05F320FA04F0A0
:1041380001FA05F240EA020001F0004221F00041D4
:1041480010EBD37021FA04F642EB06015EEA430E47
:1041580008BF20EAD37070BDC4F10C04C4F1200577
:1041680000FA04F320FA05F001FA04F240EA02002A
:1041780001F0004110EBD37041F100015EEA430EFB
:1041880008BF20EAD37070BDC4F1200500FA05F21B
:104198004EEA020E20FA04F301FA05F243EA02039A
:1041A80021FA04F001F0004121FA04F220EA0200A9
:1041B80000EBD3705EEA430E08BF20EAD37070BDEF
:1041C80094F0000F0FD101F00046400041EB0101CF
:1041D80011F4801F08BF013CF7D041EA060195F0B1
:1041E800000F18BF704703F00046520043EB03036B
:1041F80013F4801F08BF013DF7D043EA0603704758
:1042080094EA0C0F0CEA135518BF95EA0C0F0CD062
:1042180050EA410618BF52EA4306D1D181EA0301A8
:1042280001F000414FF0000070BD50EA410606BFA2
:104238001046194652EA430619D094EA0C0F02D1E7
:1042480050EA013613D195EA0C0F05D152EA03362C
:104258001CBF104619460AD181EA030101F000414A
:1042680041F0FE4141F470014FF0000070BD41F093
:10427800FE4141F4780170BD70B54FF0FF0C4CF46D
:10428800E06C1CEA11541DBF1CEA135594EA0C0F8C
:1042980095EA0C0F00F0A7F8A4EB050481EA030ED9
:1042A80052EA03354FEA013100F088804FEA0333C0
:1042B8004FF0805545EA131343EA12634FEA02228E
:1042C80045EA111545EA10654FEA00260EF000414F
:1042D8009D4208BF964244F1FD0404F5407402D2A1
:1042E8005B084FEA3202B61A65EB03055B084FEA32
:1042F80032024FF480104FF4002CB6EB020E75EB2F
:10430800030E22BFB61A754640EA0C005B084FEA56
:104318003202B6EB020E75EB030E22BFB61A7546D3
:1043280040EA5C005B084FEA3202B6EB020E75EB1E
:10433800030E22BFB61A754640EA9C005B084FEA96
:104348003202B6EB020E75EB030E22BFB61A7546A3
:1043580040EADC0055EA060E18D04FEA051545EA92
:1043680016754FEA06164FEAC30343EA52734FEA3B
:10437800C2025FEA1C1CC0D111F4801F0BD141EAB4
:1043880000014FF000004FF0004CB6E711F4801F19
:1043980004BF01430020B4F1FD0C88BFBCF5E06FF9
:1043A8003FF6AFAEB5EB030C04BFB6EB020C5FEA09
:1043B800500C50F1000041EB045170BD0EF0004E5E
:1043C8004EEA113114EB5C04C2BFD4EB0C0541EA90
:1043D800045170BD41F480114FF0000E013C90E68D
:1043E80045EA060E8DE60CEA135594EA0C0F08BF51
:1043F80095EA0C0F3FF43BAF94EA0C0F0AD150EA50
:1044080001347FF434AF95EA0C0F7FF425AF1046E2
:1044180019462CE795EA0C0F06D152EA03353FF40A
:10442800FDAE1046194622E750EA410618BF52EA87
:1044380043067FF4C5AE50EA41047FF40DAF52EA5B
:1044480043057FF4EBAE12E74FF0FF3C06E000BFF8
:104458004FF0010C02E000BF4FF0010C4DF804CD05
:104468004FEA410C7FEA6C5C4FEA430C18BF7FEAC5
:104478006C5C1BD001B050EA410C0CBF52EA430CF3
:1044880091EA030F02BF90EA020F0020704710F173
:10449800000F91EA030F58BF994208BF90422CBF02
:1044A800D8176FEAE37040F0010070474FEA410CFB
:1044B8007FEA6C5C02D150EA013C07D14FEA430C19
:1044C8007FEA6C5CD6D152EA033CD3D05DF8040B8A
:1044D800704700BF8446104662468C4619466346BC
:1044E80000E000BF01B5FFF7B7FF002848BF10F193
:1044F800000F01BD4DF808EDFFF7F4FF0CBF0120D8
:1045080000205DF808FB00BF4DF808EDFFF7EAFF53
:1045180034BF012000205DF808FB00BF4DF808ED0E
:10452800FFF7E0FF94BF012000205DF808FB00BF03
:104538004DF808EDFFF7CEFF94BF012000205DF88D
:1045480008FB00BF4DF808EDFFF7C4FF34BF01209A
:1045580000205DF808FB00BF4A0011D212F50012D6
:1045680011D20DD56FF47873B3EB62520ED44FEAC3
:10457800C12343F0004343EA505323FA02F0704743
:104588004FF00000704750EA013002D14FF0FF3081
:1045980070474FF00000704753B94AB9002908BF67
:1045A80000281CBF4FF0FF314FF0FF3000F082B9F8
:1045B800ADF1080C6DE904CE00F006F8DDF804E072
:1045C800DDE9022304B070472DE9F04F8C460C4614
:1045D8000546099E002B4FD18A4217466BD9B2FA7D
:1045E80082FEBEF1000F0BD0CEF1200520FA05F5B2
:1045F80001FA0EF345EA030C02FA0EF700FA0EF57B
:10460800390CBCFBF1F0BAB201FB10C300FB02F895
:104618004FEA154C4CEA0344A04509D9E41900F1C6
:10462800FF3380F02881A04540F2258102383C44C0
:10463800C8EB0404B4FBF1F301FB134C03FB02F2D7
:10464800ACB244EA0C418A4209D9C91903F1FF34D2
:1046580080F00F818A4240F20C81023B39448A1A69
:1046680043EA00400021002E63D022FA0EF2002314
:1046780086E80C00BDE8F08F8B4207D9002E56D093
:10468800002186E811000846BDE8F08FB3FA83F1EF
:10469800002940F09380A34202D3824200F2FE80B8
:1046A800851A64EB03039C460120002E41D086E85E
:1046B8002010BDE8F08F12B90127B7FBF2F7B7FA5F
:1046C80087FEBEF1000F36D1E41B4FEA17481FFAE8
:1046D80087F90121B4FBF8F308FB134409FB03F243
:1046E8004FEA154C4CEA0444A24207D9E41903F1F5
:1046F800FF3002D2A24200F2D3800346A41AB4FBD0
:10470800F8F008FB104809FB00F9ACB244EA08428B
:10471800914507D9D21900F1FF3402D2914500F230
:10472800BA802046C9EB020240EA03409BE73146C3
:104738003046BDE8F08F07FA0EF7CEF1200C24FAC8
:104748000CF34FEA1748B3FBF8FA1FFA87F908FB8E
:104758001A3520FA0CFC04FA0EF40AFB09FB4CEAA1
:10476800040C4FEA1C4242EA05439B4500FA0EF549
:104778000AD9DB190AF1FF3280F08B809B4540F2A1
:104788008880AAF1020A3B44CBEB0303B3FBF8F0A1
:1047980008FB103300FB09F41FFA8CFC4CEA0343B6
:1047A8009C4207D9DB1900F1FF326ED29C426CD9CA
:1047B80002383B441C1B40EA0A418BE7C1F1200E3A
:1047C8008B4022FA0EFC4CEA030C24FA0EF74FEA4F
:1047D8001C49B7FBF9FA1FFA8CF309FB1A7720FA80
:1047E8000EF88C400AFB03F548EA04044FEA144823
:1047F80048EA0747BD4202FA01F200FA01FB09D96B
:1048080017EB0C070AF1FF3041D2BD423FD9AAF19C
:10481800020A67447F1BB7FBF9F509FB157705FB0F
:1048280003F3A4B244EA0747BB4208D917EB0C07C5
:1048380005F1FF3027D2BB4225D9023D674445EA3E
:104848000A40A0FB0289FF1A4F4545464C4614D33F
:1048580029D066B3BBEB050367EB040707FA0EFE26
:10486800CB40CF404EEA030386E888000021BDE82C
:10487800F08F2346F3E61846DAE6B8EB020569EB53
:104888000C040138E5E70546D9E7104692E7824669
:10489800C0E7924678E702383A4443E7084604E717
:1048A800023B3C442AE7C345E7D33C46D1E73146BF
:1048B800BDE8F08F704700BF10B5054C13462CB10A
:1048C8000A4601460220AFF3008010BD204610BD05
:1048D8000000000010B5431E0A44914204D011F8AC
:1048E800014B03F8014FF8E710BD03460244934219
:1048F80002D003F8011BFAE77047000038B5124BE5
:1049080005461C68A36BD3B91820FDF7CFFD43F209
:104918000E33A06303804AF6CD33438041F234233B
:1049280083804EF26D63C3804DF6EC6303810523EB
:1049380043810B23838101220023C0E90423A36B55
:1049480000221D615A6138BDF4040020024610B5EA
:1049580013461C780132002CFAD1013B11F8012BC7
:1049680003F8012F002AF9D110BD10F8012B11F816
:10497800013B012A28BF9A42F7D0D01A7047034654
:1049880011F8012B03F8012B002AF9D17047000018
:10499800024B0146186800F003B800BFF404002079
:1049A80070B5064608460C4600F00DF8451C294629
:1049B8003046FDF7A3FD064618B12A462146FFF703
:1049C80089FF304670BD034613F8012B002AFBD13E
:1049D800181A01387047034610B542B111F8014B57
:1049E800013A03F8014B002CF7D11A4400E010BD3E
:1049F800934202D003F8014BFAE710BD1D000808E6
:104A08005D000808890008088D00080800000000FB
:104A180025752E25752E25752E25750070617274E5
:104A280069636C652F6465766963652F6E616D6572
:104A3800005061727469636C6544657669636500EA
:104A48003133372E3131372E33382E323535004455
:104A5800617461546F70696300526573706F6E732F
:104A680065546F70696300436F6D6D616E64546F58
:104A78007069635F0022225C5C6208660C6E0A72D1
:104A88000D7409006E756C6C00652D007472756587
:104A98000066616C736500646576696365496400E6
:104AA800636D64004C6967687453656E736F720058
:104AB8006D6574686F640067657400526F74617225
:104AC80079416E676C6553656E736F7200427574D9
:104AD800746F6E004C656400757569640073657465
:104AE8000000044D5154540400064D51497364703C
:104AF800030000000000000000000000DD25080899
:104B0800D3250808C92508083B250808BD25080835
:104B1800B1250808A52508089D2508089325080833
:104B28008925080845250808000000000000000045
:104B3800292608082F260808572608083B260808AB
:104B48002B2608080000000000000000992B080828
:104B5800E32B0808BB2B08089B2B0808C32B080865
:104B6800CB2B0808D32B0808DB2B08080000000013
:104B7800000000002B2C08081D2C08081F2C080812
:104B880066006C6E00666E00636F64650064657431
:104B980061696C000D0A00253031307520005D20F8
:104BA800002564002C200028293A2000205B00639F
:104BB8006F6465203D200025690064657461696C37
:104BC80073203D2000626175640053657269616CF1
:104BD8000055534253657269616C31007479706590
:104BE80000706172616D00686E64007374726D00AC
:104BF80066696C74006C766C0061646448616E640C
:104C08006C65720072656D6F766548616E646C657F
:104C18007200656E756D48616E646C657273004AEA
:104C2800534F4E53747265616D4C6F6748616E6483
:104C38006C657200617070006E6F6E6500747261F1
:104C4800636500696E666F007761726E00657272E7
:104C58006F720070616E696300616C6C0000000027
:104C68000000000000000000F52C0808FF2C0808D0
:104C7800092D0808132D08081D2D0808292D0808D6
:104C8800352D0808412D0808492D0808532D080816
:104C98005D2D08080000000000000000A92E08088B
:104CA800AB2E080800000000000000005D30080876
:104CB800633008084B3408086F3008085F3008086C
:104CC8000000000000000000D118080805190808B5
:104CD800053008081F30080857310808C13008088F
:104CE8009330080847300808013208086534080876
:104CF800F5300808CF310808433308089533080809
:104D08002F3008080733080849300808776972699E
:104D18006E6700544350436C69656E7420736F630B
:104D28006B65743D2578005A00252B3033643A258D
:104D38003032750025592D256D2D25645425483AA6
:104D4800254D3A2553257A0061736374696D6500B2
:104D58000000000000000000D5340808F9340808F5
:104D680005350808D52D0808E1340808ED34080889
:104D7800E7340808F3340808D7340808DB3408088F
:104D88000000000000000000E1350808253608088A
:104D9800FF350808D52D0808F9350808E33508084F
:104DA800EB3508081F360808F3350808DD3508080C
:104DB80000000000000000000000000000000000EB
:104DC80000000000000000000000000000000000DB
:104DD80000000000000000000000000000000000CB
:104DE80000000000000000000000000000000000BB
:104DF80000000000000000000000000000000000AB
:104E0800000000000000000000000000000000009A
:104E180043000000C1180808B7200808E925080859
:104E2800E52C0808C12D08088D2E0808ED2F080864
:104E3800C134080891390808C13908082D3A08080A
:104E4800F13A0808753B0808F93B0808000000001B
:084E5800000000000000000052
:084E600070F7FF7F0100000064
:044E68000000000046
:104E6C00000000000000F03F000000000000000007
:104E7C000000000000000000000000000000000026
:104E8C000000000000000000000000000000000016
:104E9C000000000000000000000000000000000006
:104EAC000000000000000000000000000000244092
:104EBC000000000000005940000000000088C340C2
:104ECC000000000084D797410080E03779C341434C
:104EDC0000000000000000000000000000000000C6
:104EEC0000000000000000000000000000000000B6
:104EFC00504D080800000000B84D0808D84D0808AF
:104F0C00F84D080800000000000000000000000040
:104F1C0000000000184E080800000000000000000F
:104F2C000000000000000000000000000000000075
:104F3C000000000000000000000000000000000065
:104F4C000000000000000000000000000000000055
:084F5C00000000009404002095
:104F6400FFFFFFFF00000102030405060708090A0A
:104F74000B0C0D0E0F101112131415161718191A05
:084F84001B1C1D1E1F2028004C
:044F8C00785634120D
:0400000508080018CF
:00000001FF
